S10EC0008EB5FFBDDC674FCE98008CAE
S111C00B9DEC2705A7000820F6CEE9F218CE1A
S111C01980008CEA22270AE60018E7000818C7
S111C0270820F1CC0000270CC39DEC3736CC6A
S10EC0359DECBDE82138BDC21020FEC8
S104E9F20020
S104E9F3001F
S104E9F4001E
S104E9F5001D
S110C040BDE7608CC606E70B18CEC291BDAB
S111C04DE866EC00C30006188FBDE8A3204F80
S110C05BE60B4F5D2A01433736CC0000BDD3
S111C068D0711838EC00C30006188FEC00C32A
S111C07600023C8FCC0004BDE80938EC00C386
S111C08400023736CC04B03736F680034F5D29
S110C0922A0143BDE25B18381838EC00C3E6
S111C09F0006BDE425C600E00BE70B20AF8FC2
S111C0ADC3000C8F353839BDE7608CC606E73A
S111C0BB0B18CEC291BDE866EC00C300061857
S111C0C98FBDE8A3204FE60B4F5D2A014337DD
S111C0D736CC0001BDD0711838EC00C3000651
S110C0E5188FEC00C300023C8FCC0004BD9A
S111C0F2E80938EC00C300023736CC13883757
S111C10036F680004F5D2A0143BDE25B18381D
S111C10E1838EC00C30006BDE425C600E00BA3
S110C11CE70B20AF8FC3000C8F353839BD01
S111C129E7608CC606E70B18CEC291BDE8662F
S111C137EC00C30006188FBDE8A3204FE60BF2
S111C1454F5D2A01433736CC0002BDD071187D
S111C15338EC00C30006188FEC00C300023C59
S111C1618FCC0004BDE80938EC00C30002379F
S111C16F36CC02583736F680014F5D2A014364
S110C17DBDE25B18381838EC00C30006BDA5
S111C18AE425C600E00BE70B20AF8FC3000CCA
S111C1988F353839BDE7608CC606E70B18CE2C
S110C1A6C291BDE866EC00C30006188FBD11
S111C1B3E8A3204FE60B4F5D2A01433736CC3C
S111C1C10003BDD0711838EC00C30006188FBF
S111C1CFEC00C300023C8FCC0004BDE809382C
S110C1DDEC00C300023736CC03E83736F619
S111C1EA80024F5D2A0143BDE25B183818380D
S111C1F8EC00C30006BDE425C600E00BE70B17
S111C20620AF8FC3000C8F353839BDDD78CCE6
S111C214001E3736CC00643736CC980037361F
S10EC222CCC040BDDECCBDE7A906F790
S110C22D8003CC00233736CC00643736CCB8
S10EC23A992C3736CCC0B4BDDECCBD5F
S111C245E7A906F78000CC00283736CC006449
S111C2533736CC98C83736CCC128BDDECCBDFA
S111C261E7A906F78001CC002D3736CC006427
S111C26F3736CC98643736CCC19CBDDECCBDCE
S10DC27DE7A906F78002BDCFACBDAF
S10DC287DE74BDDD35CC000039394A
S107C29100000000A5
S111C295CC00013736CC01003736CC99BA37CD
S10FC2A336CCC6ABBDDECCBDE7A906F767
S111C2AF99B939BDE76046EC08E709E6094F86
S111C2BDBDCDD5E702CCC96ABDD1F8CC0002D4
S110C2CB3736EC00C300033736E6094FBDDB
S111C2D8D7F018381838EC00C30003BDD1F8B5
S111C2E6CCC962BDD1F8CC00023736EC00C3DF
S111C2F400033736E6024FBDD7F0183818386D
S111C302EC00C30003BDD1F8CCC95FBDD1F877
S111C3108FC300068F3538183839BDE76046F4
S110C31EEC08E709E6094FBDCE0DE702CC9F
S110C32BC956BDD1F8CC00023736EC00C372
S111C33800033736E6094FBDD7F01838183821
S111C346EC00C30003BDD1F8CCC962BDD1F830
S111C354CC00023736EC00C300033736E60295
S111C3624FBDD7F018381838EC00C30003BDE7
S111C370D1F8CCC95FBDD1F88FC300068F355C
S111C37E38183839BDE76046EC08E709E609CF
S110C38C4FBDD00CE702CCC94FBDD1F8CC99
S111C39900023736EC00C300033736E6094FC6
S110C3A7BDD7F018381838EC00C30003BDF2
S111C3B4D1F8CCC947BDD1F8CC00023736EC25
S111C3C200C300033736E6024F5D2A0143BD77
S111C3D0D7F018381838EC00C30003BDD1F8BC
S111C3DECCC95FBDD1F88FC300068F35381867
S111C3EC3839BDE7604CEC0EBDDB08ED0A1AD3
S111C3FAEE0A18E6004F5D2A0143ED081A838F
S111C408003F26037EC67AEC081A83003F2EFE
S111C4160AEC0826037EC69A7EC694EC081A29
S111C42483006126037EC4A5EC081A8300621F
S111C43226037EC513EC081A8300642719EC58
S111C440081A8300612C037EC694EC081A834C
S111C44E006D26037EC5817EC694CC0000EDF1
S111C45C06CC00023736EC00C300023736EC83
S111C46A06BDD8B818381838EC00C30002BD5F
S111C478D1F8CC0020BDD1C7EC0618CE0010C0
S110C486BDE6DC1A83000F2606CCC95FBD9D
S111C493D1F8EC06C30001ED061A8300802DDB
S111C4A1BB7EC69ACC0000ED06EC0ABDDA8F15
S111C4AFED0A1AEE0A18E6004F5D2A0143ED6D
S111C4BD04270EEC042D11EC041A83003F2713
S111C4CB022007CC0001ED0620281AEE0A1804
S111C4D9E6004F5D2A0143BDD6121A8300000F
S110C4E7270FEC0ABDD71FE703E6034FBD86
S111C4F4C2B22005CC0001ED06EC0626037E44
S10CC502C69ACCC92DBDD1F8CCB8
S111C50BC911BDD1F87EC69ACC0000ED06EC35
S111C5190ABDDA8FED0A1AEE0A18E6004F5D2D
S111C5272A0143ED04270EEC042D11EC041A36
S111C53583003F27022007CC0001ED062028DA
S111C5431AEE0A18E6004F5D2A0143BDD61217
S111C5511A830000270FEC0ABDD71FE703E68C
S111C55F034FBDC31A2005CC0001ED06EC0607
S10FC56D26037EC69ACCC8F7BDD1F8CCDA
S111C579C8DBBDD1F87EC69ACC0000ED06ECFE
S111C5870ABDDA8FED0A1AEE0A18E6004F5DBF
S111C5952A0143ED041A83003F2740EC041AE8
S111C5A383003F2E06EC042734203AEC041AE1
S111C5B1830078270220306F03201BCC00008B
S111C5BF3736E6034FBDD0711838E6034FBD82
S111C5CDC382E6034FC30001E703E603C10483
S111C5DB25DF7EC656CC0001ED067EC6561A3C
S111C5E9EE0A18E6004F5D2A0143BDD6121A71
S111C5F78300002755EC0ABDD71FE703EC0AAA
S111C605BDDA8FED0A1AEE0A18E6004F5D2A20
S111C6130143BDD5AF1A830000271CEC0ABDFD
S110C621D71F4F5D2A01433736E6034FBD96
S111C62ED0711838E6034FBDC382201C1AEEEB
S111C63C0A186D002608E6034FBDC382200CC9
S111C64ACC0001ED062005CC0001ED06EC0647
S10FC6582740CCC8C5BDD1F8CCC8A3BD98
S10CC664D1F8CCC878BDD1F8CCA2
S10CC66DC84CBDD1F8CCC830BDA5
S10EC676D1F82020CCC81DBDD1F8CCA9
S10CC681C809BDD1F8CCC7FDBD08
S10EC68AD1F8CCC7F2BDD1F82006CCDB
S111C695C7D4BDD1F88FC3000C8F35381838C8
S10BC6A339CCC7D1BDD1F8392F
S110C6ABBDE760126F10BDC6A47EC7C6BDFA
S111C6B8CF481A830000270DCCFFFA3736CC8A
S111C6C60000BDD0711838BDCF721A83000079
S111C6D4270DCC00063736CC0000BDD07118FF
S111C6E238EC00C3000C188FEC00C300083CB9
S111C6F08FCC0004BDE80938EC00C300083705
S111C6FE36CC00643736F699B94F5D2A0143F5
S110C70CBDE25B18381838EC00C3000CBD0A
S111C719E4257EC7B5E6114FED061A83000D28
S111C7272708EC061A83000A261FE6104FC3EB
S110C7359990188F186F006F10CCC95FBD6C
S10CC742D1F8CC9990BDC3EEBD01
S111C74BC6A47EC7B5E611C1082622E610C1B9
S111C759002359E6104F830001E710CC0008BE
S110C767BDD1C7CC0020BDD1C7CC0008BD9A
S111C774D1C7203DE6114FED041A8300202D9D
S111C78232EC041A83007F2E2AE610C128240C
S111C7901EE6104FED02C30001E710EC02C3D9
S110C79E9990188FE61118E700E6114FBDC1
S110C7ABD1C72006CC0021BDD1C7EC00C3CE
S111C7B80011BDD23F1A83000027037EC71E66
S10EC7C67EC6B78FC300128F353839D0
S111C7D13E2000756E6B6E6F776E20636F6D89
S111C7DF6D616E642C203F20666F72206865C9
S111C7ED6C700D0A003F203D2068656C700DD5
S111C7FB0A006D203D206D6F746F720D0A00F0
S111C80964203D2064756D7020286D656D6F90
S111C8177279290D0A0061203D20616E616C6A
S111C8256F6720696E7075740D0A006D2078BF
S111C833202020203D2073746F707320616CF0
S111C8416C206D6F746F72730D0A006D2033DE
S111C84F202D32203D2073657473206D6F74AC
S111C85D6F72203320746F206261636B776109
S111C86B726420737065656420320D0A006DDE
S111C8792032203520203D2073657473206D1D
S111C8876F746F72203220746F20666F7277A8
S111C89561726420737065656420350D0A00BD
S111C8A36D2031202020203D2073686F7773B4
S111C8B1207370656564206F66206D6F746F70
S111C8BF7220310D0A006D203F202020203D04
S111C8CD206D6F746F722068656C700D0A0028
S111C8DB622038203D20726561642062696E1F
S111C8E961727920696E70757420380D0A0032
S111C8F762203F203D2062696E6172792069E3
S111C9056E7075742068656C700D0A006120F8
S111C91331203D207265616420616E616C6F9D
S111C9216720696E70757420310D0A00612064
S111C92F3F203D20616E616C6F6720696E7061
S111C93D75742068656C700D0A0020737065B7
S111C94B656420006D6F746F7220006469676C
S111C9596974616C20000D0A002076616C7513
S10EC967652000616E616C6F672000AA
S104E9F6001C
S104E9F7001B
S109C97274003E0C06A057
S111C978BDE76008EC00C3000218CEC9723C93
S111C9868FCC0006BDE80938BDCCDDCC000620
S110C9943736EC00C30002BDCD061838BDD7
S111C9A1C9AEBDCBDE8FC300088F353839BD5B
S111C9AFE760066F0420366F052024E6044F6F
S111C9BD188FCC000CBDE701C39ABAED02E658
S111C9CB054FE302188FC6A018E700E6054FDB
S111C9D9C30001E705E605C10C25D6E6044FB0
S111C9E7C30001E704E604C10325C47F8004F5
S111C9F57F80058FC300068F35383937363CF6
S111CA03303C30EC04E705EC08E709E6094F87
S111CA113736E6054FBDCA381838EC0A3736FA
S111CA1FE6094F3736E6054FBDCA0018381831
S111CA2D388FC300028F353818383937363C3D
S111CA3B303C30EC04E705EC08E709E609C1DD
S111CA490C25022012E605C1032502200AE690
S111CA5705F78004E609F780058FC300028FFF
S111CA653538183839BDE760486F072062E69F
S111CA73074FE30A188F18E6004F5D2A0143AF
S111CA81BDCAF0ED04F680044F188FCC000CF3
S111CA8FBDE701C39ABAED02F680054FE3023B
S111CA9D188FEC0418E700F680054FC3000163
S111CAABF78005F68005C10C25177F8005F67F
S111CAB980044FC30001F78004F68004C1031B
S111CAC725037F8004E6074FC30001E707E65E
S111CAD5074FE30A188F186D0027037ECA72FC
S111CAE3BDCBDE8FC300088F3538183839BD3F
S111CAF1E76048E60B4F5D2A0143E707E607BE
S111CAFFC124260DCC00828FC300088F353869
S111CB0D183839E607C140260DCC00C08FC38E
S111CB1B00088F3538183839E6074FED041A34
S111CB298300212D1CEC041A83005A2E14E6FE
S111CB37074F830021C300A14F8FC300088F56
S111CB453538183839E6074FED021A830061BF
S111CB532D1CEC021A83007A2E14E6074F8381
S111CB610061C300E14F8FC300088F35381800
S111CB6F3839CC00A08FC300088F3538183831
S111CB7D398FC300088F3538183839BDE7608A
S111CB8B44EC06E707EC0AE70BEC0CE70DE6BA
S111CB990BC10C25022034E607C1032502203F
S110CBA72CE6074F188FCC000CBDE701C32E
S111CBB49ABAED02E60B4FE302188FE60D1855
S111CBC2E700BDCBDEE60B4F3736E6074FBD6E
S111CBD0CC6718388FC300048F3538183839F5
S110CBDEBDE760066F047ECC56BDCD3FCC94
S111CBEB0074BDCD50CC0000BDCD50E6044F0B
S111CBF9C3000105050505058A00CA804FBD6D
S10FCC07CD50BDCDBCBDCD3FCC0074BDF4
S111CC13CD50CC0040BDCD506F052026E60468
S111CC214F188FCC000CBDE701C39ABAED0288
S111CC2FE6054FE302188F18E6004FBDCD5006
S111CC3DE6054FC30001E705E605C10C25D44A
S111CC4BBDCDBCE6044FC30001E704E604C1FE
S111CC590324037ECBE78FC300068F353839E2
S110CC67BDE76044EC06E707EC0AE70BBDEF
S111CC74CD3FCC0074BDCD50CC0000BDCD50E2
S111CC82E6074FC3000105050505053736E634
S111CC900B4FED023233E3028A00CA804FBD1F
S10FCC9ECD50BDCDBCBDCD3FCC0074BD5D
S111CCAACD50CC0040BDCD50E6074F188FCCC6
S111CCB8000CBDE701C39ABAED02E60B4FE390
S111CCC602188F18E6004FBDCD50BDCDBC8FB7
S10CCCD4C300048F353818383907
S111CCDD18CE1009181C000418CE1009181CDB
S111CCEB002018CE1008181D002018CE1008C6
S111CCF9181C000418CE1008181C002039BDA9
S111CD07E76046EC0CE70D6F05BDCD3F20172D
S111CD15E6054FED02C30001E705EC02E3085A
S111CD23188F18E6004FBDCD50E605E10D2532
S111CD31E3BDCDBC8FC300068F3538183839EA
S111CD3F18CE1008181D002018CE1008181D5C
S111CD4D000439BDE76044EC06E707C680E742
S111CD5B032030E607E4035D270A18CE100813
S111CD69181C0020200818CE1008181D0020E9
S111CD7718CE1008181C000418CE1008181D41
S111CD850004E6034F4756E7036D0326CC185F
S111CD93CE1009181D002018CE1008181C0020
S111CDA10418CE1008181D000418CE1009182E
S111CDAF1C00208FC300048F35381838391843
S111CDBDCE1008181D002018CE1008181C00F7
S10DCDCB0418CE1008181C002039CB
S111CDD5BDE76044EC06E7070FE6074F840055
S111CDE3C407F71030F61030C4805D27F80E38
S111CDF1F61031E703E6034F8FC300048F35BD
S111CDFF381838398FC300048F353818383986
S111CE0DBDE7604EEC10E711CCCFAABDD1F802
S111CE1BCC00023736EC00C3000B3736E611AC
S111CE294FBDD7F018381838EC00C3000BBD0D
S111CE37D1F8CCCFA8BDD1F8E611C109230D66
S111CE45CC00008FC3000E8F3538183839E644
S111CE53114FED061A8300072712EC061A830E
S111CE610008272BEC061A83000927432061E2
S111CE6FF61000C4015D2607CC0001ED04207E
S111CE7D05CC0000ED04EC04ED08CCCFA6BDFE
S111CE8BD1F87ECF09F61000C4025D2607CC54
S111CE990001ED042005CC0000ED04EC04EDD6
S111CEA708CCCFA4BDD1F82059F61000C480E9
S111CEB55D2607CC0001ED042005CC0000ED45
S111CEC304EC04ED08CCCFA2BDD1F82039E672
S111CED1114F188FCC0001188C0000270505A6
S111CEDF180926FBED02F67FFF4FA402E403C0
S111CEED1A8300002607CC0001ED042005CCBA
S111CEFB0000ED04EC04ED08CCCFA0BDD1F88E
S111CF09CCCFA8BDD1F8CC00013736EC00C364
S111CF17000B3736EC08BDD7F018381838EC8C
S111CF2500C3000BBDD1F8CCCF9CBDD1F8ECFD
S110CF33088FC3000E8F35381838398FC3AE
S110CF40000E8F3538183839BDE76004F64F
S111CF4D7FFFC4405D2607CC0001ED022005E5
S111CF5BCC0000ED02EC028FC300048F3538C9
S111CF69398FC300048F353839BDE76004F6F4
S111CF777FFFC4805D2607CC0001ED0220057B
S111CF85CC0000ED02EC028FC300048F35389F
S10CCF93398FC300048F353839CD
S111CF9C5D0D0A0044004300420041002C00D9
S105CFAA5B0026
S105E9F8000019
S105E9FA808017
S105E9FC888805
S105E9FEAAAABF
S105EA00EEEE34
S105EA02FEFE12
S105EA04FFFF0E
S105EA0600000A
S105EA08000008
S105EA0A000006
S105EA0C000004
S110CFAC0F7F7FFFCC00003736CC0000BDA6
S110CFB9D0711838CC00003736CC0001BD13
S110CFC6D0711838CC00003736CC0002BD05
S110CFD3D0711838CC00003736CC0003BDF7
S110CFE0D0711838BDD0EFCCD0D93736CC85
S111CFED0007BDDD0D1838FC100EC34E21FDEB
S111CFFB101AC620F7102318CE1020181D009F
S111D009300E39BDE76044EC06E707E607C1C8
S111D01704250DCC00008FC300048F3538189B
S111D0253839E6074FC38014188F18E600E769
S111D03303E6074FC38018188F18E600C10FDC
S110D0412613C600E0034F5D2A01438FC390
S111D04E00048F3538183839E6034F5D2A0187
S110D05C438FC300048F35381838398FC353
S111D06900048F353818383937363C303C30E7
S111D077EC04E705E605C104244BE6054FC3AF
S111D0858014188F186F006D092D0DE6054FED
S111D093C38018188F186F002013C600E00920
S111D0A1E709E6054FC38018188FC60F18E77D
S111D0AF00E609C1062F04C606E709E6054F90
S111D0BDC38014188FE6094F5D2A014318E75B
S111D0CB00BDD0EF8FC300028F3538183839FE
S111D0D9BDD0EFBDD0E03BFC101AC34E21FDCC
S10BD0E7101AC620F7102339CA
S105EA0E000101
S111D0EFBDE760086F05C611E7066F072057FE
S111D0FDE6074FC38014188F18E6004F05C3D2
S111D10B8006188F18EC00B4801CF4801D1AE6
S111D1198300002728E6074FC38018188F18DC
S111D127E6004F8A00CAF03736E6064FED02E6
S111D1353233A402E403ED02E6054FAA02EA37
S110D14303E705E6064F05E706E6074FC3C0
S111D1500001E707E607C10424037ED0FDFCBE
S111D15E801C05FD801CFC801C2606CC0001F4
S111D16CFD801CE605F77FFF8FC300088F359A
S105D17A38393E
S111D17C0FC610F7102CC6ACF7102DC630F7F6
S111D18A102BBDD19ECCD2DC3736CC0000BDBC
S111D198DD0D18380E39CC00143736CC9BDD73
S110D1A63736CC9BF9BDD32918381838CC86
S110D1B300FF3736CC9ADE3736CC9BF1BD39
S111D1C0D329183818383937363C303C30EC57
S111D1CE04E70518CE102D181D0080E6054F4D
S111D1DC3736CC9BF1BDD41A183818CE102D5E
S111D1EA181C00808FC300028F3538183839A6
S111D1F837363C303C3018CE102D181D008008
S111D206201D1AEE0418E6004F5D2A01434F66
S110D2143736CC9BF1BDD41A1838EC04C396
S111D2210001ED041AEE04186D0026DB18CE91
S111D22F102D181C00808FC300028F35381894
S111D23D3839BDE7604418CE102D181D0020AE
S111D24BEC063736CC9BF9BDD37318384FED83
S110D2590218CE102D181C0020EC028FC30B
S111D26600048F35381838398FC300048F3513
S110D27438183839BDE7604AEC10E711CCDA
S111D2810000ED08EC0CED0618CE102D181D63
S111D28F00202007EC08C30001ED08EC06EDBA
S111D29D04C30001ED06EC043736CC9BF9BD4A
S111D2ABD37318385D270CE6114FED02EC0822
S111D2B91AA3022DD518CE102D181C0020EC3F
S110D2C7088FC3000A8F35381838398FC31B
S111D2D4000A8F3538183839BDE760040FF6AC
S111D2E2102EC4805D2721EC00C300033736F4
S111D2F0CC9BF1BDD37318385D2707E603F716
S110D2FE102F200818CE102D181D0080F6EA
S111D30B102EC4205D270EF6102F4F3736CC9F
S111D3199BF9BDD41A18380E8FC300048F354B
S111D327383B37363C303C30EC0AE70B1AEE4C
S111D33504EC0818ED00EC04C30002188FECA1
S111D3430818ED00EC04C30004188FEC081861
S111D351ED00EC04C30006188FE60B18E7008D
S111D35FEC04C30007188F186F008FC3000280
S110D36D8F3538183839BDE76046EC08C329
S111D37A0004188F18EC003736EC08C30002CC
S111D388188F3233CDA30026037ED403EC08A5
S111D396C30004188F18EE0018E6001AEE0CFF
S111D3A418E700EC08C30004ED041AEE0418A8
S111D3B2EC00C300011AEE0418ED00EC08C3F1
S111D3C00006188F18E6004F1AEE0818E30056
S111D3CEC3FFFFED02EC08C30004188F18EC37
S111D3DC001AA3022314EC08C30004188F18CF
S110D3EA3C1AEE0818EC00183818ED00CCC1
S110D3F700018FC300068F3538183839CC7B
S111D40400008FC300068F35381838398FC3E7
S111D41200068F3538183839BDE7604AEC1033
S111D420E7116F09EC0CC30002188F18EE0020
S111D42EE61118E700EC0CC30002ED061AEE3E
S111D43C0618EC00C300011AEE0618ED00EC11
S111D44A0CC30006188F18E6004F1AEE0C18DB
S111D458E300C3FFFFED02EC0CC30002188FCB
S111D46618EC001AA3022314EC0CC3000218E5
S111D4748F183C1AEE0C18EC00183818ED0056
S111D482EC0CC30002188F18EC003736EC0CCB
S111D490C30004188F3233CDA3002657EC0CD2
S111D49EC30004ED041AEE0418EC00C30001F0
S111D4AC1AEE0418ED00E6094FC30001E7096B
S111D4BAEC0CC30006188F18E6004F1AEE0C97
S111D4C818E300C3FFFFED02EC0CC3000418D0
S111D4D68F18EC001AA3022314EC0CC30004FC
S111D4E4188F183C1AEE0C18EC00183818EDCE
S111D4F200E6094F8FC3000A8F353818383909
S10DD5008FC3000A8F35381838393C
S111D50AF610004F8800C808F71000393736B5
S111D5183C303C30EC041AB39C01272BEC048D
S111D526FD9C01FC100EF39C01FD101EC608B6
S110D534F7102318CE1020181C000118CE8B
S111D5411020181D000218CE1022181C00081D
S111D54F8FC300028F353818383918CE1022D9
S110D55D181D008018CE1020181D0003CCEE
S110D56A0000FD9C0139FC100EF39C01FD36
S10BD577101EC608F710233B47
S110D57F37363C303C30E605C120260DCC8B
S110D58C00018FC300028F3538183839CCE8
S111D59900008FC300028F35381838398FC355
S111D5A700028F3538183839BDE76046E609B2
S111D5B54F5D2A0143ED041A8300302D15EC5E
S111D5C3041A8300392E0DCC00018FC300061C
S111D5D18F3538183839E6094F5D2A0143EDCD
S111D5DF021A83002D2708EC021A83002B2663
S111D5ED0DCC00018FC300068F353818383975
S111D5FBCC00008FC300068F35381838398FE6
S111D609C300068F3538183839BDE76044E693
S111D617074F5D2A0143ED021A8300302D15E2
S110D625EC021A8300392E0DCC00018FC3D6
S110D63200048F3538183839CC00008FC340
S111D63F00048F35381838398FC300048F3536
S111D64D38183839BDE76048E60B4F5D2A01F6
S110D65B43ED061A8300302D15EC061A83EA
S111D66800392E0DCC00018FC300088F353819
S111D676183839E60B4F5D2A0143ED041A8380
S110D68400412D15EC041A8300462E0DCC38
S111D69100018FC300088F3538183839E60BB6
S111D69F4F5D2A0143ED021A8300612D15EC44
S111D6AD021A8300662E0DCC00018FC3000804
S111D6BB8F3538183839CC00008FC300088F23
S111D6C935381838398FC300088F35381838B3
S111D6D739BDE76044E6074F5D2A0143ED02CA
S111D6E51A8300302D1DEC021A8300392E1515
S110D6F3E6074F5D2A01438300304F8FC3CB
S110D70000048F3538183839CC00008FC371
S111D70D00048F35381838398FC300048F3567
S111D71B38183839BDE7604E6F0D2008E60D52
S111D7294FC30001E70DE60D4FE310188F18F3
S111D737E600C12027EAE60D4FE310188F1814
S111D745E600C12D2606C6FFE7092004C60132
S111D753E709E60D4FE310188F18E6004F5D4E
S111D7612A0143ED061A83002D2708EC061A50
S111D76F83002B2608E60D4FC30001E70DCC06
S110D77D0000ED0A202DCC000A1AEE0ABDB2
S111D78AE7013736E60D4FE310188F18E6005E
S111D7984F5D2A0143830030ED023233E30279
S111D7A6ED0AE60D4FC30001E70DE60D4FE35B
S111D7B410188F18E6004F5D2A0143ED041A89
S111D7C28300302D08EC041A8300392FB4E6DE
S111D7D0094F5D2A01431AEE0ABDE7018FC31B
S111D7DE000E8F35381838398FC3000E8F3582
S111D7EC38183839BDE7604CEC14E7156F08A7
S111D7FA6F07EC0E2C26E608E1152415E60850
S111D8084FED04C30001E708EC04E312188F8F
S111D816C62D18E700CC0000A30EED0EC601CF
S111D824E707CC0001ED0A200BCC000A1AEE37
S110D8320ABDE701ED0ACC000A1AEE0ABD9A
S111D83FE7011AA30E2FE72048EC0E1AEE0A9A
S111D84DBDE6A24F5D2A0143E709E6094F1A22
S111D85BEE0ABDE701ED02EC0EA302ED0EE6AF
S111D86908E1152417E6084FED04C30001E79B
S111D87708EC04E312188FE609CB3018E70022
S111D885EC0A18CE000ABDE6A2ED0AEC0A2257
S111D893B4E608E115240AE6084FE312188FE4
S111D8A1186F00E6154FE312188F186F008FF2
S111D8AFC3000C8F3538183839BDE76046ECDD
S111D8BD0EE70FE60FE7042043EC084F84004B
S111D8CBC40FE705E605C10A240AE6054FC3AB
S110D8D90030ED02200BE6054F83000AC36A
S111D8E60041ED02E6044F830001E30C188FAD
S111D8F4E60318E700EC0804040404ED08E65B
S111D902044F830001E704E604C10022B7E6E7
S111D9100F4FE30C188F186F008FC300068FA3
S111D91E3538183839BDE76048E60B4F5D2AEE
S111D92C0143ED061A8300302D1DEC061A830C
S111D93A00392E15E60B4F5D2A0143830030A1
S111D9484F8FC300088F3538183839E60B4F5F
S111D9565D2A0143ED041A8300412D20EC04E8
S111D9641A8300462E18E60B4F5D2A014383FA
S111D9720041C3000A4F8FC300088F353818D8
S110D9803839E60B4F5D2A0143ED021A838E
S111D98D00612D20EC021A8300662E18E60BB2
S111D99B4F5D2A0143830061C3000A4F8FC30E
S110D9A900088F3538183839CC00008FC3C2
S111D9B600088F35381838398FC300088F35B4
S111D9C438183839BDE7604A6F05CC0000ED15
S111D9D206202FE6054FE30C188F18E6004FD1
S111D9E05D2A0143BDD923E709E609C11026DB
S111D9EE02202BEC06050505053736E6094F29
S111D9FCED023233E302ED06E6054FE30C18AC
S111DA0A8F18E6004F5D2A0143BDD6511A83E2
S111DA18000026B9EC068FC3000A8F353818BB
S110DA2638398FC3000A8F3538183839BDE0
S111DA33E76048EC10E7116F072021E6074F6B
S111DA41ED04E30E188F18E6003736EC04E30C
S111DA4F0A188F323318E700E6074FC30001B0
S111DA5DE707E6074FED04E6114FED02EC0477
S111DA6B1AA3022C0BEC04E30E188F186D00A6
S111DA7926C3E6074FE30A188F186F008FC309
S110DA8700088F3538183839BDE76046CCEB
S111DA940001ED02CC0000ED04204FEC04E391
S111DAA208188F186D0026022044EC02271E7F
S111DAB0EC04E308188F18E6004F5D2A0143CA
S111DABEBDD57F1A8300002720CC0000ED02A6
S111DACC2019EC04E308188F18E6004F5D2AB9
S111DADA0143BDD57F1A83000026022009EC0B
S111DAE804C30001ED0420AFEC04E3088FC377
S111DAF600068F35381838398FC300068F3577
S111DB0438183839BDE76044CC0000ED02202B
S111DB1220EC02E306188F18E6004F5D2A018E
S111DB2043BDD57F1A83000026022009EC02C3
S110DB2EC30001ED0220DEEC02E3068FC30C
S111DB3B00048F35381838398FC300048F3535
S107DB493818383913
S111DB4DBDE76046CC0000ED04CC0000ED0204
S111DB5BEC00C30002188FEC083C8FCC0004D1
S111DB69BDE809388FC300068F3538183839E7
S111DB77BDE76044EC0AC30002ED021AEE02A0
S111DB8518EC00E30C1AEE0218ED00EC0AC3D3
S111DB930002188F18EC001AA30C240F1AEECF
S111DBA10A18EC00C300011AEE0A18ED00EC9D
S111DBAF061AEE0A3C8FCC0004BDE809388F3C
S111DBBDC300048F353818383937363C303CF5
S111DBCB301AEE0418EC001AEE08CDA3002464
S111DBD90DCCFFFF8FC300028F35381838398A
S111DBE71AEE0418EC001AEE08CDA300230D6C
S111DBF5CC00018FC300028F3538183839EC8C
S111DC0304C30002188F18EC003736EC08C377
S111DC110002188F3233CDA300240DCCFFFF88
S110DC1F8FC300028F3538183839EC04C368
S111DC2C0002188F18EC003736EC08C3000213
S111DC3A188F3233CDA300230DCC00018FC30D
S110DC4800028F3538183839CC00008FC326
S111DC5500028F35381838398FC300028F351E
S107DC6338183839F8
S109FFD6DD08DD08DD0872
S109FFDCDD08DD08DD086C
S109FFE2DD08DD08DD0866
S109FFE8DD08DD08DD0860
S109FFEEDD08DD08DD085A
S109FFF4DD08DD08DD0854
S109FFFADD08DD08C00073
S110DC670F7F10227F1024C604F710287FC1
S110DC74102D7F1002C60CF7103FC6A0F75C
S10FDC811039CCDD08FDFFD6CCDD08FD19
S10CDC8DFFD8CCDD08FDFFDACC60
S10CDC96DD08FDFFDCCCDD08FD16
S10CDC9FFFDECCDD08FDFFE0CC42
S10CDCA8DD08FDFFE2CCDD08FDFE
S10CDCB1FFE4CCDD08FDFFE6CC24
S10CDCBADD08FDFFE8CCDD08FDE6
S10CDCC3FFEACCDD08FDFFECCC06
S10CDCCCDD08FDFFEECCDD08FDCE
S10CDCD5FFF0CCDD08FDFFF2CCE8
S10CDCDEDD08FDFFF4CCDD09FDB5
S10CDCE7FFF6CCDD08FDFFF8CCCA
S10CDCF0DD08FDFFFACCDD08FD9E
S111DCF9FFFCCCC000FDFFFEC625F7103C0E5C
S111DD073939BDDD353937363C303C30EC045B
S110DD15E705E605C114220EE6054F05C31F
S111DD22FFD6188FEC0818ED008FC300028F97
S111DD303538183839BDE760040F18CE1009D5
S111DD3E181C0010202AF610004F8800C80898
S111DD4CF7100018CE1008181D00102005E670
S111DD5A03F77FFFE6034F830001E702E703B0
S111DD68E602C10022EB20D48FC300048F35E5
S105DD76383936
S109BFD6DD08DD08DD08B2
S109BFDCDD08DD08DD08AC
S109BFE2DD08DD08DD08A6
S109BFE8DD08DD08DD08A0
S109BFEEDD08DD08DD089A
S109BFF4DD08DD08DD0894
S109BFFADD08DD08C000B3
S105EA10000000
S105EA120000FE
S105EA140000FC
S105EA160000FA
S104EA1800F9
S105EA190000F7
S105EA1B0000F5
S104EA1D00F4
S105EA1E0000F2
S105EA200000F0
S110DD78BDE760087D802B27037EDE6CF67E
S110DD85802B4FC30001F7802BCC9D78BD8F
S111DD92DB4D6F072050E6074F188FCC0012B0
S110DDA0BDE701ED04C39D88188FEC04C39A
S111DDAD9D8E18ED00E6074FED02CC00121A11
S111DDBBEE02BDE701C39D7C188FE60318E756
S110DDC900E6074F188FCC0012BDE701C320
S111DDD69D86188FCC000218ED00E6074FC39F
S111DDE40001E707E607C10625AACC0000FDF2
S111DDF29DE2CC9D7CFD80296F072031E60761
S111DE004F05050505ED04C39C11188FEC04B5
S111DE0EC39C1318ED00E6074FED0205050551
S111DE1C05C39C03188FEC0218ED00E6074FB7
S111DE2AC30001E707E607C11425C9CC0000B8
S111DE38FD9D41CC9C03FD802CCC00003736B0
S111DE46CC00323736CC9D463736CCE5EABDEB
S111DE54DECCBDE7A9064F5D2A0143F79D43CE
S111DE62F69D434FBDE5EDFD9D448FC30008C2
S111DE708F3538397D802B2603BDDD350FCC70
S110DE7EE0843736CC0008BDDD0D1838CC2B
S110DE8BE12A3736CC0010BDDD0D1838BD7E
S10CDE98E648FC8027FD8024FC0F
S111DEA180242603BDDD3518FE802418E6001B
S111DEAFF78026FC8024C30002188F18EC00B4
S111DEBDFD801EBE801E3284EF363BBDDD3577
S111DECB39BDE76046EC10E7117D802B26037D
S111DED9BDDD35FC80292610BDDD35CCFFFFF4
S111DEE78FC300068F35381838390FFC802998
S111DEF5ED04FC8029C3000C188F18EC00FD0E
S111DF038029EC04C30004188FEC0EE30CC359
S111DF11FFFF18ED00EC04C30006188FEC0CA3
S111DF1F18ED00EC04C30004188F18EC003752
S111DF2D36EC04C30002188F323318ED00ECFA
S111DF3B04C30008188FE61118E700EC04C3B5
S110DF49000A188FCC000018ED00EC04C392
S110DF56000E188FCC000018ED00EC04C381
S110DF630010188FCC000018ED00EC04C372
S110DF700002188F18EC00FD801EEC08FD67
S10CDF7D8022BF9DE8BE801ECC89
S111DF86DD353736FC802237368600363636D7
S110DF9436363636BF801EBE9DE8EC04C351
S111DFA10002188FFC801E18ED00FC8027265D
S111DFAF15EC04FD8027EC04C3000C188FCC85
S111DFBD000018ED007EE05CEC04C3000818C0
S111DFCB8F18E6003736FC8027C30008188F35
S111DFD9323318E1002315EC04C3000C188F3A
S111DFE7FC802718ED00EC04FD80277EE05C32
S111DFF5FC8027ED022030EC02C3000C188FD4
S111E00318EC00C30008188FEC04C3000818C2
S111E0113C188F18E600183818E1002302208E
S111E01F18EC02C3000C188F18EC00ED02EC94
S111E02D02C3000C188F18EC0026C4EC02C3CA
S111E03B000C188F18EC003736EC04C3000CF0
S111E049188F323318ED00EC02C3000C188F50
S111E057EC0418ED000E1AEE0418E6004F5DFE
S111E0652A01438FC300068F35381838398FCF
S111E073C300068F3538183839BDDD3539BD88
S111E081E760080FCC00643736EC00C30004DF
S111E08F18CE9D783C8FCC0004BDE80938EC17
S111E09D00C300043736CC9D78BDDB771838FD
S110E0AB1838BDE67DBDE4F4C100235FFC20
S110E0B88024C30002188F18EC00ED02FC58
S111E0C58024C30004188FEC02CDA300220FA8
S111E0D3FC8024C30006188FEC02CDA30024A9
S111E0E103BDDD35FC8024C30002FD8020BD9C
S110E0EFE1D0FD802418FE802418E600F71F
S111E0FC8026FC8024C30002188F18EC00FD5F
S111E10A801E18FE802018AF00BE801E3284D6
S111E118EF363BBDDD358FC300088F35383937
S111E126BDE76006FC8024C30002188F18ECCD
S111E13400ED04FC8024C30004188FEC04CD1D
S111E142A300220FFC8024C30006188FEC04F7
S111E150CDA3002403BDDD35FC8024C30002F2
S10EE15EFD8020BDE1D0FD802418FEF0
S111E169802418E600F78026FC8024C3000200
S111E177188F18EC00ED02FC8024C30004187D
S111E1858FEC02CDA300220FFC8024C3000601
S110E193188FEC02CDA3002403BDDD35FC84
S111E1A08024C30002188F18EC00FD801E18A6
S111E1AE3C3C36370784EF3618FE802018AF4D
S111E1BC00BE801E3284EF363BBDDD358FC3BE
S111E1CA00068F353839BDE76004FC8027ED70
S111E1D8022022EC02C3000A188F18EC002665
S111E1E60AEC028FC300048F353839EC02C3F3
S111E1F4000C188F18EC00ED02EC0226DABDC8
S111E202DD35CC00008FC300048F3538398F12
S111E210C300048F353839BDE76046EC00C307
S111E21E00021AEE0C3C8FCC0004BDE8093857
S111E22CEC00C300023736CC00003736E6099A
S111E23A4F5D2A0143BDE25B183818384F8F40
S111E248C300068F35381838398FC300068F8F
S111E2563538183839BDE760640FFC802C267B
S110E26403BDDD35E6274F5D2A01434FBDA4
S111E271E5EDED20EC202603BDDD35FC802C10
S111E27FED22FC802CC3000E188F18EC00FD5D
S110E28D802CEC22C30002188F183C18FEF0
S110E29A802418E600183818E700EC22C3B1
S111E2A70004188FEC2018ED00EC2A3736EC3A
S111E2B500C3001C18CE9D783C8FCC0004BD25
S110E2C3E80938EC00C3001C3736EC00C33A
S111E2D00018BDDB7718381838EC00C30018AE
S110E2DE188FEC22C300063C8FCC0004BD59
S111E2EBE80938EC22C3000A1AEE2C3C8FCC52
S111E2F90004BDE80938FC802E2615EC22FD39
S111E307802EEC22C3000E188FCC000018EDFF
S111E315007EE40DEC00C300143736EC22C386
S111E3230006188F32333C8FCC0004BDE8098D
S111E33138EC00C300143736EC00C30010377C
S111E33F36FC802EC30006188F32333C8FCC80
S111E34D0004BDE80938EC00C30010BDDBC6B7
S111E35B1838ED026D032F15EC22C3000E18C6
S110E3698FFC802E18ED00EC22FD802E7E2E
S111E376E40DFC802EED0E205BEC00C3000ACB
S111E3843736EC22C30006188F32333C8FCCA0
S111E3920004BDE80938EC00C3000A3736EC7D
S111E3A00EC3000E188F18EC00C30006188F71
S111E3AEEC00C300063C8FCC0004BDE8093827
S111E3BCEC00C30006BDDBC61838ED046D0589
S111E3CA2F02201BEC0EC3000E188F18EC005F
S111E3D8ED0EEC0EC3000E188F18EC00270398
S111E3E67EE37FEC0EC3000E188F18EC003798
S111E3F436EC22C3000E188F323318ED00EC05
S110E4020EC3000E188FEC2218ED000ECC96
S111E40F00008FC300248F35381838398FC3AE
S111E41D00248F3538183839BDE760440FFCF1
S110E42B8024C3000E188F18EC00260FFC8F
S111E4388024C3000A188FCC000118ED003FA9
S111E4460FFC8024C3000E188F18EC00ED02AA
S111E454EC022603BDDD35EC02C30004188F74
S110E46218EC001AB380242703BDDD35FC3F
S111E46F8024C30010188FEC02CDA300261EDB
S111E47DFC8024C3000E188FCC000018ED00A4
S111E48BFC8024C30010188FCC000018ED0094
S111E4992019EC02C3000E188F18EC00373661
S111E4A7FC8024C3000E188F323318ED00ECF5
S111E4B5062712EC02C3000A188FEC063C8FF7
S111E4C3CC0004BDE80938EC02C3000E188F2B
S110E4D1FC802C18ED00EC02FD802C0ECC1C
S111E4DE00018FC300048F35381838398FC3FE
S111E4EC00048F3538183839BDE760126F0D03
S111E4FA7EE58CFC802EC30004188F18EC0005
S111E508ED10EC102603BDDD35EC10C3000A47
S111E516188FCC000018ED00FC802EED0EFCDA
S111E524802EC3000E188F18EC00FD802EEC24
S111E53210C3000E188F18EC00261AEC10C34C
S111E540000E188FEC0E18ED00EC10C3001046
S111E54E188FEC0E18ED002020EC10C3001006
S111E55C188F18EC00C3000E188FEC0E18ED8B
S111E56A00EC10C30010188FEC0E18ED00EC3E
S111E5780EC3000E188FCC000018ED00E60D47
S111E5864FC30001E70DFC802E2746EC00C3B6
S111E594000818CE9D783C8FCC0004BDE80929
S111E5A238EC00C300083736EC00C300043721
S111E5B036FC802EC30006188F32333C8FCC0D
S111E5BE0004BDE80938EC00C30004BDDBC650
S111E5CC1838ED026D032E037EE4FDE60D4FBC
S111E5DA8FC300128F3538398FC300128F356E
S111E5E8383920FE3937363C303C30EC04E73D
S111E5F605E605C1062503BDDD35E6054F1813
S111E6048FCC0012BDE701C39D86188F18EC61
S111E612001A830002260DCC00008FC3000204
S111E6208F3538183839E6054F188FCC0012A4
S111E62EBDE701C39D7C8FC300028F353818F1
S110E63C38398FC300028F3538183839BDC6
S111E649E76004CC07D018CE0064BDE701EDF5
S111E65702FC100EE302FD101818CE1022185B
S111E6651C0040C640F7102318CE1020181DCC
S111E67300C08FC300048F353839BDE7600442
S110E681CC07D018CE0064BDE701ED02FC0B
S111E68E1018E302FD1018C640F710238FC3C6
S109E69C00048F3538393B
S111E6A23C183C38028F38393C364D2A05436B
S111E6B053C30001183C3818308C00002A08AF
S111E6BE8F43538F08186300028F186D002AD3
S10CE6CC054353C3000131383940
S111E6D53C183C380238393C364D2A05435374
S111E6E3C30001183C388C00002A058F4353F5
S111E6F18F0802306D002A054353C300013127
S105E6FF3839A4
S111E7013C183C37363C3C30CC0000ED00A602
S111E70F05E6073DED02A605E6063DE301ED35
S111E71D01A604E6073DE301ED016900A60430
S111E72BE6063DE300ED001838323338383886
S104E73939A2
S111E73A1838181F00400237363C3018EC0027
S111E748843F37368F30A3008F35EF00181F43
S111E7560080043C3C3C3C186E021838181F2E
S111E76400400237363C3018E6004FC43F3701
S111E772368F30A3008F35EF00181F0080048F
S111E7803C3C3C3C186E0118303736188FC3F1
S111E78E0001183018EE0218E300188F323321
S111E79C183C183018AE0018EE02186E021861
S111E7AA303736188FC30001183018EE0218ED
S111E7B8EB008900188F3233183C183018AE6D
S111E7C60018EE02186E01183C183C37361885
S111E7D43018EC0618ED04EC0218ED06323392
S111E7E2183839183C3736183018EC06ED029A
S111E7F018EC0418ED0618EC0218ED0418ECF1
S10EE7FE0018ED0218383233183839C7
S111E8091A83000027113718E600E700338356
S10DE8170001270508180820EF3956
S111E821BDE76046EC08ED041AEE04FC9DEA27
S111E82F18ED00EC04FD9DEAEC08C30006EDB4
S111E83D02EC0CA3023736EC04C30004188F5F
S111E84B323318ED00EC04C30002188FEC0CFD
S110E85918ED008FC300068F3538183839CC
S111E86637368F8300088F18EC00ED0418EC91
S111E87402ED06C6083A323339373618EC0086
S111E882ED0418EC02ED0632333937368F837D
S111E89000088F18EC00ED0018EC02ED02C633
S111E89E083A32333937368F8300088FEC0482
S111E8AC18ED00EC0618ED02C6083A323339B6
S111E8BA3736EC0418ED00EC0618ED0232338C
S111E8C83937368F8300088FEC0018ED00EC12
S111E8D60218ED02C6083A32333937368F8302
S111E8E400088FEC04ED00EC06ED02C6083AC5
S111E8F232333937368F8300088F6F046F0579
S111E9003233ED062C0463046305C6083A396D
S111E90E37368F8300088F6F006F013233EDB0
S111E91C022C0463006301C6083A3937368FB3
S111E92A8300088F3233ED066F046F05C608B4
S111E9383A3937368F8300088F3233ED026F81
S111E946006F01C6083A398F8300088FEC0673
S111E95437C6083A33393736183018EE02EC5D
S111E9620018E300188F18EC00830004188FCF
S111E970BDE8A332331838186E02183C183074
S111E97E18EE02183C183018EE02183C37C68A
S111E98C051830183ABDE8A332183839183C83
S111E99A183018EE02183C183018EE02183C23
S111E9A837C6051830183ABDE8C93318383997
S111E9B6183C3736C6061830183ABDE8661805
S111E9C43018EC0418ED0832331838313131B4
S110E9D23139183C3736C6061830183ABDE6
S111E9DFE88C183018EC0418ED0832331838A0
S108E9ED313131313924
S903C0003C
