S10EC0008EB5FFBDCB0B4FCE98008C1B
S111C00BA8132705A7000820F6CEE3DE18CE02
S111C01980008CE40B270AE60018E7000818E4
S111C0270820F1CC0000270CC3A8133736CC38
S10EC035A813BDDE9F38BDDCCE20FE4A
S105E3DE000039
S105E3E0000037
S105E3E2000035
S105E3E4000033
S105E3E6000031
S105E3E800002F
S104E3EA002E
S105E3EB00002C
S105E3ED00002A
S110C040BDDDDE087D800C27037EC154F6B3
S111C04D800C4FC30001F7800C18CE100918A8
S110C05B1C001018CE1009181C002018CE6F
S111C0681008181C002018CE1008181C001018
S111C076CC9ED9BDC9D56F072050E6074F18E0
S111C0848FCC0012BDDD7FED04C39EE9188F42
S111C092EC04C39EEF18ED00E6074FED02CC60
S111C0A000121AEE02BDDD7FC39EDD188FE68E
S110C0AE0318E700E6074F188FCC0012BD01
S111C0BBDD7FC39EE7188FCC000218ED00E66F
S111C0C9074FC30001E707E607C10B25AACC09
S111C0D70000FD9F9DCC9EDDFD800A6F0720BA
S111C0E531E6074F05050505ED04C3980E1856
S111C0F38FEC04C3981018ED00E6074FED0221
S111C10105050505C39800188FEC0218ED0023
S111C10FE6074FC30001E707E607C16425C930
S110C11DCC0000FD9E3ECC9800FD800DCCB2
S111C12A00003736CC00963736CC9E433736AD
S111C138CCC885BDC15CBDDE27064F5D2A0163
S10FC14643F79E40F69E404FBDC888FDA4
S111C1529E418FC300088F353839BDDDDE46AF
S110C160EC10E7117D800C2603BDC040FCEF
S111C16D800A260DCCFFFF8FC300068F3538E5
S111C17B183839FC800AED04FC800AC3000C5D
S111C189188F18EC00FD800A0FEC04C30004AC
S111C197188FEC0EE30CC3FFFF18ED00EC0450
S110C1A5C30006188FEC0C18ED00EC04C369
S111C1B20004188F18EC003736EC04C30002AA
S111C1C0188F323318ED00EC04C30008188FFA
S110C1CEE61118E700EC04C3000A188FCC3A
S110C1DB000018ED00EC04C3000E188FCC1A
S110C1E8000018ED00EC04C30010188FCC0B
S111C1F5000018ED00EC04C30002188F18ECD3
S111C20300FD8000EC08FD8004BDC9B5EC040C
S111C211C30002188FFC800018ED00FC8008AA
S111C21F2615EC04FD8008EC04C3000C188FF7
S111C22DCC000018ED007EC2CDEC04C3000866
S111C23B188F18E6003736FC8008C300081878
S111C2498F323318E1002315EC04C3000C18E7
S110C2578FFC800818ED00EC04FD80087ECB
S111C264C2CDFC8008ED022030EC02C3000CB9
S110C272188F18EC00C30008188FEC04C3EB
S111C27F0008183C188F18E600183818E10063
S111C28D23022018EC02C3000C188F18EC00DA
S111C29BED02EC02C3000C188F18EC0026C450
S111C2A9EC02C3000C188F18EC003736EC04BE
S110C2B7C3000C188F323318ED00EC02C3E5
S111C2C4000C188FEC0418ED000E1AEE04188E
S111C2D2E6004F5D2A01438FC300068F353806
S111C2E01838398FC300068F35381838397D69
S111C2EE800C2603BDC0400FCCC9833736CC6C
S111C2FC0008BDCB1A1838BDC8E3FC8008FD4D
S111C30A8006FC8006C30002188F18EC00FDAC
S10DC3188000BDC9A7BDC91139BDDD
S111C322DDDE040FFC8006C30002188F18EC49
S111C33000ED02FC8006C30004188FEC02CD61
S111C33EA300220FFC8006C30006188FEC0239
S111C34CCDA3002403BDC911FC8006C3000E5E
S111C35A188F18EC00262EFC8006C3000A186B
S111C3688FCC000118ED00FC8006C30002FD1E
S10CC3768002BDC43DFD8006FCFB
S111C37F8006C30002188F18EC00FD8000BD7C
S111C38DC9990E8FC300048F353839BDC9110C
S110C39B39BDDDDE08CC00053736EC00C3EB
S111C3A8000418CE9ED93C8FCC0004BDDE8765
S111C3B638EC00C300043736CC9ED9BDC9FF55
S111C3C418381838BDC902BDC6B5C1002360C3
S111C3D2FC8006C30002188F18EC00ED02FC7C
S111C3E08006C30004188FEC02CDA300220FC8
S111C3EEFC8006C30006188FEC02CDA30024C9
S111C3FC03BDC911FC8006C30002FD8002FCD3
S111C40A8006C3000A188FCC000018ED00BD98
S111C418C43DFD8006FC8006C30002188F1888
S110C426EC00FD8000C601F79FA320037FFA
S111C4339FA38FC300088F353839BDDDDE04AA
S111C441FC8008ED022022EC02C3000A188FD2
S111C44F18EC00260AEC028FC300048F353867
S111C45D39EC02C3000C188F18EC00ED02EC51
S111C46B0226DABDC911CC00008FC300048F75
S111C4793538398FC300048F353839BDDDDE08
S111C48746EC00C300021AEE0C3C8FCC0004FD
S111C495BDDE8738EC00C300023736CC000051
S111C4A33736E6094F5D2A0143BDC4C8183878
S111C4B118384F8FC300068F35381838398F6E
S111C4BFC300068F3538183839BDDDDE640F32
S111C4CDFC800D260E0ECC00018FC300248FC0
S111C4DB3538183839E6274F5D2A01434FBD26
S111C4E9C8881A830000260E0ECC00028FC3F2
S111C4F700248F3538183839FC800DED22FCF6
S111C505800DC3000E188F18EC00FD800DECA5
S111C51322C30002188F183C18FE800618E69A
S111C52100183818E700E6274F5D2A01434F43
S111C52FBDC888ED02EC22C30004188FEC0294
S111C53D18ED00EC2A3736EC00C3001E18CEB1
S111C54B9ED93C8FCC0004BDDE8738EC00C3C3
S111C559001E3736EC00C3001ABDC9FF1838A7
S111C5671838EC00C3001A188FEC22C300062B
S111C5753C8FCC0004BDDE8738EC22C3000AE4
S110C5831AEE2C3C8FCC0004BDDE8738FC82
S111C590800F2615EC22FD800FEC22C3000E56
S111C59E188FCC000018ED007EC69DEC00C383
S111C5AC00163736EC22C30006188F32333CDB
S111C5BA8FCC0004BDDE8738EC00C3001637BA
S111C5C836EC00C300123736FC800FC30006A9
S111C5D6188F32333C8FCC0004BDDE8738EC66
S111C5E400C30012BDCA4E1838ED046D052FB9
S111C5F215EC22C3000E188FFC800F18ED000C
S111C600EC22FD800F7EC69DFC800FED102005
S111C60E5BEC00C3000C3736EC22C3000618A8
S111C61C8F32333C8FCC0004BDDE8738EC0037
S111C62AC3000C3736EC10C3000E188F18EC4A
S111C63800C30006188FEC00C300083C8FCC32
S111C6460004BDDE8738EC00C30008BDCA4EF8
S110C6541838ED066D072F02201BEC10C3F3
S111C661000E188F18EC00ED10EC10C3000E44
S110C66F188F18EC0027037EC60FEC10C3D3
S111C67C000E188F18EC003736EC22C3000EA7
S111C68A188F323318ED00EC10C3000E188F19
S111C698EC2218ED000ECC00008FC300248F9E
S111C6A635381838398FC300248F35381838CA
S111C6B439BDDDDE126F0D7EC74DFC800FC355
S111C6C20004188F18EC00ED10EC102603BDD8
S111C6D0C911EC10C3000A188FCC000018ED3D
S111C6DE00FC800FED0EFC800FC3000E188FC1
S111C6EC18EC00FD800FEC10C3000E188F1820
S111C6FAEC00261AEC10C3000E188FEC0E187C
S111C708ED00EC10C30010188FEC0E18ED00BD
S110C7162020EC10C30010188F18EC00C395
S111C723000E188FEC0E18ED00EC10C3001081
S111C731188FEC0E18ED00EC0EC3000E188FDE
S111C73FCC000018ED00E60D4FC30001E70D1D
S111C74DFC800F2746EC00C3000818CE9ED9CE
S111C75B3C8FCC0004BDDE8738EC00C3000820
S110C7693736EC00C300043736FC800FC3E4
S111C7760006188F32333C8FCC0004BDDE87E2
S111C78438EC00C30004BDCA4E1838ED026D37
S111C792032E037EC6BEE60D4F8FC300128F2A
S111C7A03538398FC300128F353839BDDDDED0
S111C7AE04FC8006C3000E188F18EC00270749
S111C7BCCC0001ED022005CC0000ED02EC02E1
S111C7CA4F8FC300048F3538398FC300048F9E
S111C7D8353839BDDDDE440FFC8006C3000E8B
S110C7E6188F18EC00ED02EC02260E0ECCAC
S110C7F300008FC300048F3538183839FC5E
S111C8008006C30010188FEC02CDA300261E84
S111C80EFC8006C3000E188FCC000018ED004D
S111C81CFC8006C30010188FCC000018ED003D
S111C82A2019EC02C3000E188F18EC003736EC
S111C838FC8006C3000E188F323318ED00EC9E
S111C846062712EC02C3000A188FEC063C8F82
S111C854CC0004BDDE8738EC02C3000E188F42
S110C862FC800D18ED00EC02FD800D0ECCE5
S111C86F00018FC300048F35381838398FC389
S111C87D00048F353818383920FE3937363C20
S111C88B303C30EC04E705E605C10B2503BD87
S111C899C911E6054F188FCC0012BDDD7FC318
S111C8A79EE7188F18EC001A830002260DCCB1
S111C8B500008FC300028F3538183839E605AD
S111C8C34F188FCC0012BDDD7FC39EDD8FC3E6
S111C8D100028F35381838398FC300028F35B6
S111C8DF38183839FC100EC32710FD10181835
S111C8EDCE1022181C0040C640F7102318CEAF
S111C8FB1020181D00C039FC1018C32710FDB2
S110C9091018C640F7102339BDDDDE04CC44
S111C9160000ED020FCCFFFF3736CC0000BD51
S110C924D2C91838CCFFFF3736CC0001BD56
S110C931D2C91838CCFFFF3736CC0002BD48
S110C93ED2C91838CCFFFF3736CC0003BD3A
S111C94BD2C9183818CE1009181C001020206C
S110C959F610004F8800C808F7100018CE33
S111C9661008181D00102007EC02C30001ED9C
S111C97402EC0226F520DE8FC300048F353856
S104C9823977
S105E3EF000028
S111C9830FBDC39C7D9FA32708FE8002AF005A
S111C991BE80003284EF363B183C3C3637073C
S111C99F84EF36FE8002AF00BE8000328A10A4
S111C9AD0633323818380E39BF8011BE8000B0
S111C9BBCCC3983736FC80043736183C3C3623
S10FC9C9370784EF36BF8000BE801139B0
S111C9D5BDDDDE46CC0000ED04CC0000ED021A
S111C9E3EC00C30002188FEC083C8FCC00045B
S111C9F1BDDE87388FC300068F3538183839FD
S111C9FFBDDDDE44EC0AC30002ED021AEE02B6
S111CA0D18EC00E30C1AEE0218ED00EC0AC35C
S111CA1B0002188F18EC001AA30C240F1AEE58
S111CA290A18EC00C300011AEE0A18ED00EC26
S111CA37061AEE0A3C8FCC0004BDDE87388F51
S111CA45C300048F3538183839BDDDDEC21A3F
S111CA53EE04BDDEE41AEE08BDDF0ABDE37298
S111CA61260DCC00008FC300028F3538183824
S111CA6F391AEE0418EC001AEE08CDA30024C8
S111CA7D0DCCFFFF8FC300028F3538183839F7
S111CA8B1AEE0418EC001AEE08CDA300230DD9
S111CA99CC00018FC300028F3538183839ECF9
S111CAA704C30002188F18EC003736EC08C3E5
S111CAB50002188F3233CDA300240DCCFFFFF6
S110CAC38FC300028F3538183839EC04C3D6
S111CAD00002188F18EC003736EC08C3000281
S111CADE188F3233CDA300230DCC00018FC37B
S110CAEC00028F3538183839CC00008FC394
S111CAF900028F35381838398FC300028F358C
S107CB073818383965
S111CB0B0F7F10227F1024C60CF7103F0E3946
S104CB193BDC
S109BFD6D546CB19CB197E
S109BFDCCB19CB19CB19AF
S109BFE2CB19CB19C98341
S109BFE8CB19CB19CB19A3
S109BFEECB19CB19CB199D
S109BFF4CB19C911CB19A1
S109BFFACB19CB19C000B5
S111CB1A37363C303C30EC04E705E605C11428
S111CB2822008FC300028F35381838390FCC25
S110CB36CB193736CC0000BDCB1A1838CC13
S110CB43CB193736CC0001BDCB1A1838CC05
S110CB50CB193736CC0002BDCB1A1838CCF7
S110CB5DCB193736CC0003BDCB1A1838CCE9
S110CB6ACB193736CC0004BDCB1A1838CCDB
S110CB77CB193736CC0005BDCB1A1838CCCD
S110CB84CB193736CC0006BDCB1A1838CCBF
S110CB91CB193736CC0007BDCB1A1838CCB1
S110CB9ECB193736CC0008BDCB1A1838CCA3
S110CBABCB193736CC0009BDCB1A1838CC95
S110CBB8CB193736CC000ABDCB1A1838CC87
S110CBC5CB193736CC000BBDCB1A1838CC79
S110CBD2CB193736CC000CBDCB1A1838CC6B
S110CBDFCB193736CC000DBDCB1A1838CC5D
S110CBECCB193736CC000EBDCB1A1838CC4F
S110CBF9CB193736CC000FBDCB1A1838CC41
S110CC06CB193736CC0010BDCB1A1838CC32
S110CC13CB193736CC0011BDCB1A1838CC24
S110CC20CB193736CC0012BDCB1A1838CC16
S110CC2DCB193736CC0013BDCB1A1838CC08
S111CC3AC0003736CC0014BDCB1A1838C62CF7
S108CC48F7103C0E3959
S111CC4DCC00013736CC01003736CC9FCE37F1
S10FCC5B36CCCD17BDC15CBDDE2706F74A
S10ECC679FCD39CCCE2BBDD46239CC5C
S110CC72CE28BDD46239BDDDDE4AEC0CBD18
S111CC7FD462BDCC711AEE0C18E6004F5D2A8B
S111CC8D0143ED081A8300642712EC081A8391
S111CC9B00642D6EEC081A830068274B206499
S110CCA9CC0000ED06CC00023736EC00C3D1
S111CCB600023736EC06BDD98218381838EC67
S111CCC400C30002BDD462CC0020BDD431EC0C
S111CCD20618CE0010BDDD5A1A83000F26038B
S111CCE0BDCC71EC06C30001ED061A83008082
S111CCEE2DBE201BCCCE23BDD462BDCC71CC98
S10CCCFCCE1ABDD462BDCC71CC8A
S111CD05CE11BDD462BDCC718FC3000A8F3530
S107CD133818383957
S111CD17BDDDDE126F10BDCC6A7ECE06EC00D0
S110CD25C3000C188FEC00C300083C8FCC39
S111CD320004BDDE8738EC00C300083736CCA1
S110CD4000643736F69FCD4F5D2A0143BDD8
S111CD4DC4C818381838BDC321EC00C3000C4C
S110CD5BBDC7DB7ECDF5E6114FED061A8352
S111CD68000D2708EC061A83000A261CE610AC
S111CD764FC39FA4188F186F006F10BDCC71AF
S10DCD84CC9FA4BDCC78BDCC6A7E20
S111CD8ECDF5E611C1082622E610C100235996
S111CD9CE6104F830001E710CC0008BDD4312F
S111CDAACC0020BDD431CC0008BDD431203DD6
S111CDB8E6114FED041A8300202D32EC041A0C
S111CDC683007F2E2AE610C128241EE6104F9B
S111CDD4ED02C30001E710EC02C39FA4188F08
S111CDE2E61118E700E6114FBDD4312006CC4F
S111CDF00021BDD431EC00C30011BDD4A91A3A
S110CDFE83000027037ECD617ECD238FC30B
S109CE0B00128F353839D6
S111CE1168203D2068656C700064203D20643C
S111CE1F756D700068656C70000D0A003E2091
S104CE2D0000
S104E3F10027
S104E3F20026
S109CE2E74003E0C06A096
S111CE34BDDDDE08EC00C3000218CECE2E3C9D
S111CE428FCC0006BDDE8738BDD199CC00062A
S110CE503736EC00C30002BDD1C21838BD56
S111CE5DCE6ABDD09A8FC300088F353839BD18
S111CE6BDDDE066F0420366F052024E6044F3A
S111CE79188FCC000CBDDD7FC3A0CEED02E609
S111CE87054FE302188FC6A018E700E6054F1A
S111CE95C30001E705E605C10C25D6E6044FEF
S111CEA3C30001E704E604C10325C47F801325
S111CEB17F80148FC300068F35383937363C26
S111CEBF303C30EC04E705EC08E709E6094FC7
S111CECD3736E6054FBDCEF41838EC0A37367A
S111CEDBE6094F3736E6054FBDCEBC183818B1
S111CEE9388FC300028F353818383937363C7D
S111CEF7303C30EC04E705EC08E709E609C11D
S111CF050C25022012E605C1032502200AE6CF
S111CF1305F78013E609F780148FC300028F20
S111CF213538183839BDDDDE486F072062E66A
S111CF2F074FE30A188F18E6004F5D2A0143EE
S111CF3DBDCFACED04F680134F188FCC000C62
S111CF4BBDDD7FC3A0CEED02F680144FE302DD
S111CF59188FEC0418E700F680144FC3000193
S111CF67F78014F68014C10C25177F8014F691
S111CF7580134FC30001F78013F68013C1032D
S111CF8325037F8013E6074FC30001E707E68E
S111CF91074FE30A188F186D0027037ECF2E7A
S111CF9FBDD09A8FC300088F3538183839BDBD
S111CFADDDDE48E60B4F5D2A0143E707E60789
S111CFBBC124260DCC00828FC300088F3538A8
S111CFC9183839E607C140260DCC00C08FC3CE
S111CFD700088F3538183839E6074FED041A74
S111CFE58300212D1CEC041A83005A2E14E63E
S111CFF3074F830021C300A14F8FC300088F96
S111D0013538183839E6074FED021A830061FE
S111D00F2D1CEC021A83007A2E14E6074F83C0
S111D01D0061C300E14F8FC300088F3538183F
S111D02B3839CC00A08FC300088F3538183870
S111D039398FC300088F3538183839BDDDDE55
S111D04744EC06E707EC0AE70BEC0CE70DE6F9
S111D0550BC10C25022034E607C1032502207E
S110D0632CE6074F188FCC000CBDDD7FC3F9
S111D070A0CEED02E60B4FE302188FE60D187A
S111D07EE700BDD09AE60B4F3736E6074FBDEC
S111D08CD12318388FC300048F353818383973
S110D09ABDDDDE066F047ED112BDD1FBCCDE
S111D0A70074BDD20CCC0000BDD20CE6044FC8
S111D0B5C3000105050505058A00CA804FBDAC
S10FD0C3D20CBDD278BDD1FBCC0074BDF2
S111D0CFD20CCC0040BDD20C6F052026E60426
S111D0DD4F188FCC000CBDDD7FC3A0CEED023A
S111D0EBE6054FE302188F18E6004FBDD20C85
S111D0F9E6054FC30001E705E605C10C25D48A
S111D107BDD278E6044FC30001E704E604C17C
S111D1150324037ED0A38FC300068F35383960
S110D123BDDDDE44EC06E707EC0AE70BBDBA
S111D130D1FBCC0074BDD20CCC0000BDD20CDF
S111D13EE6074FC3000105050505053736E673
S111D14C0B4FED023233E3028A00CA804FBD5E
S10FD15AD20CBDD278BDD1FBCC0074BD5A
S111D166D20CCC0040BDD20CE6074F188FCC83
S111D174000CBDDD7FC3A0CEED02E60B4FE341
S111D18202188F18E6004FBDD20CBDD2788F74
S10CD190C300048F353818383946
S111D19918CE1009181C000418CE1009181C1A
S111D1A7002018CE1008181D002018CE100805
S111D1B5181C000418CE1008181C002039BDE8
S111D1C3DDDE46EC0CE70D6F05BDD1FB201739
S111D1D1E6054FED02C30001E705EC02E3089A
S111D1DF188F18E6004FBDD20CE605E10D25B1
S111D1EDE3BDD2788FC300068F353818383969
S111D1FB18CE1008181D002018CE1008181D9C
S111D209000439BDDDDE44EC06E707C680E70D
S111D217032030E607E4035D270A18CE100852
S111D225181C0020200818CE1008181D002028
S111D23318CE1008181C000418CE1008181D80
S111D2410004E6034F4756E7036D0326CC189E
S111D24FCE1009181D002018CE1008181C005F
S111D25D0418CE1008181D000418CE1009186D
S111D26B1C00208FC300048F35381838391882
S111D279CE1008181D002018CE1008181C0036
S10DD2870418CE1008181C0020390A
S105E3F3000024
S105E3F5808022
S105E3F7888810
S105E3F9AAAACA
S105E3FBEEEE40
S105E3FDFEFE1E
S105E3FFFFFF1A
S105E401000015
S105E403000013
S105E405000011
S105E40700000F
S111D2917F7FFFCC00003736CC0000BDD2C931
S111D29F1838CC00003736CC0001BDD2C918B7
S111D2AD38CC00003736CC0002BDD2C9183888
S111D2BBCC00003736CC0003BDD2C918383978
S111D2C937363C303C30EC04E705E605C10482
S111D2D7244BE6054FC38023188F186F006D9B
S111D2E5092D0DE6054FC38027188F186F0022
S111D2F32013C600E009E709E6054FC38027B3
S111D301188FC60F18E700E609C1062F04C6F0
S111D30F06E709E6054FC38023188FE6094F91
S111D31D5D2A014318E700BDD3668FC30002EA
S110D32B8F3538183839FC100EC34E21FD23
S110D338101A18CE1022181C0020C620F771
S111D345102318CE1020181D003039FC101AC9
S110D353C34E21FD101AC620F7102339BD6A
S109D360D366BDD3503971
S105E40900010C
S111D366BDDDDE086F05C611E7066F07205710
S111D374E6074FC38023188F18E6004F05C349
S111D3828015188F18EC00B4802BF4802C1A40
S111D3908300002728E6074FC38027188F1854
S111D39EE6004F8A00CAF03736E6064FED026D
S111D3AC3233A402E403ED02E6054FAA02EABE
S110D3BA03E705E6064F05E706E6074FC347
S111D3C70001E707E607C10424037ED374FCCB
S111D3D5802B05FD802BFC802B2606CC00014E
S111D3E3FD802BE605F77FFF8FC300088F3512
S105D3F13839C5
S111D3F30FC610F7102CC6ACF7102DC630F77D
S110D401102BBDD4080E39CC00143736CCE6
S111D40EA2E63736CCA302BDD59318381838E1
S111D41CCC00F43736CCA0F23736CCA2FABDE1
S111D42AD593183818383937363C303C30EC7E
S111D43804E70518CE102D181D0080E6054FE0
S111D4463736CCA2FABDD684183818CE102D75
S111D454181C00808FC300028F353818383939
S111D46237363C303C3018CE102D181D00809B
S111D470201D1AEE0418E6004F5D2A01434FFA
S110D47E3736CCA2FABDD6841838EC04C3AE
S111D48B0001ED041AEE04186D0026DB18CE25
S111D499102D181C00808FC300028F35381828
S111D4A73839BDDDDE4418CE102D181D0020CE
S111D4B5EC063736CCA302BDD5DD18384FED9A
S110D4C30218CE102D181C0020EC028FC39F
S111D4D000048F35381838398FC300048F35A7
S110D4DE38183839BDDDDE4AEC10E711CCFA
S111D4EB0000ED08EC0CED0618CE102D181DF7
S111D4F900202007EC08C30001ED08EC06ED4E
S111D50704C30001ED06EC043736CCA302BDCC
S111D515D5DD18385D270CE6114FED02EC0849
S111D5231AA3022DD518CE102D181C0020ECD2
S110D531088FC3000A8F35381838398FC3AE
S111D53E000A8F3538183839BDDDDE040FF6CB
S111D54C102EC4805D2721EC00C30003373687
S111D55ACCA2FABDD5DD18385D2707E603F72D
S110D568102F200818CE102D181D0080F67D
S111D575102EC4205D270EF6102F4F3736CC33
S111D583A302BDD68418380E8FC300048F3562
S111D591383B37363C303C30EC0AE70B1AEEE0
S111D59F04EC0818ED00EC04C30002188FEC35
S111D5AD0818ED00EC04C30004188FEC0818F5
S111D5BBED00EC04C30006188FE60B18E70021
S111D5C9EC04C30007188F186F008FC3000214
S110D5D78F3538183839BDDDDE46EC08C349
S111D5E40004188F18EC003736EC08C3000260
S111D5F2188F3233CDA30026037ED66DEC08CD
S111D600C30004188F18EE0018E6001AEE0C92
S111D60E18E700EC08C30004ED041AEE04183B
S111D61CEC00C300011AEE0418ED00EC08C384
S111D62A0006188F18E6004F1AEE0818E300E9
S111D638C3FFFFED02EC08C30004188F18ECCA
S111D646001AA3022314EC08C30004188F1862
S110D6543C1AEE0818EC00183818ED00CC54
S110D66100018FC300068F3538183839CC0E
S111D66E00008FC300068F35381838398FC37B
S111D67C00068F3538183839BDDDDE4AEC1053
S111D68AE7116F09EC0CC30002188F18EE00B4
S111D698E61118E700EC0CC30002ED061AEED2
S111D6A60618EC00C300011AEE0618ED00ECA5
S111D6B40CC30006188F18E6004F1AEE0C186F
S111D6C2E300C3FFFFED02EC0CC30002188F5F
S111D6D018EC001AA3022314EC0CC300021879
S111D6DE8F183C1AEE0C18EC00183818ED00EA
S111D6ECEC0CC30002188F18EC003736EC0C5F
S111D6FAC30004188F3233CDA3002657EC0C66
S111D708C30004ED041AEE0418EC00C3000183
S111D7161AEE0418ED00E6094FC30001E709FE
S111D724EC0CC30006188F18E6004F1AEE0C2A
S111D73218E300C3FFFFED02EC0CC300041863
S111D7408F18EC001AA3022314EC0CC300048F
S111D74E188F183C1AEE0C18EC00183818ED61
S111D75C00E6094F8FC3000A8F35381838399C
S10DD76A8FC3000A8F3538183839D0
S111D774F610004F8800C808F7100039373649
S111D7823C303C30EC041AB3A30A272BEC0411
S111D790FDA30AFC100EF3A30AFD101EC6082A
S110D79EF7102318CE1020181C000118CE1F
S111D7AB1020181D000218CE1022181C0008B1
S111D7B98FC300028F353818383918CE10226D
S110D7C7181D008018CE1020181D0003CC82
S110D7D40000FDA30A39FC100EF3A30AFDAA
S10BD7E1101EC608F710233BDB
S111D7E9BDDDDE4E6F0D2008E60D4FC30001BE
S111D7F7E70DE60D4FE310188F18E600C12071
S111D80527EAE60D4FE310188F18E600C12D38
S111D8132606C6FFE7092004C601E709E60D54
S111D8214FE310188F18E6004F5D2A0143ED07
S111D82F061A83002D2708EC061A83002B2608
S111D83D08E60D4FC30001E70DCC0000ED0A14
S111D84B202DCC000A1AEE0ABDDD7F3736E62A
S111D8590D4FE310188F18E6004F5D2A0143AF
S111D867830030ED023233E302ED0AE60D4F8A
S111D875C30001E70DE60D4FE310188F18E60F
S111D883004F5D2A0143ED041A8300302D0886
S111D891EC041A8300392FB4E6094F5D2A0116
S111D89F431AEE0ABDDD7F8FC3000E8F3538AD
S111D8AD1838398FC3000E8F3538183839BD3E
S111D8BBDDDE4CEC14E7156F086F07EC0E2C45
S110D8C926E608E1152415E6084FED04C31A
S111D8D60001E708EC04E312188FC62D18E7D2
S110D8E400CC0000A30EED0EC601E707CC3A
S110D8F10001ED0A200BCC000A1AEE0ABD5E
S111D8FEDD7FED0ACC000A1AEE0ABDDD7F1AAA
S111D90CA30E2FE72048EC0E1AEE0ABDDD2014
S111D91A4F5D2A0143E709E6094F1AEE0ABDE4
S111D928DD7FED02EC0EA302ED0EE608E11524
S111D9362417E6084FED04C30001E708EC04D3
S111D944E312188FE609CB3018E700EC0A183E
S111D952CE000ABDDD20ED0AEC0A22B4E60880
S111D960E115240AE6084FE312188F186F0031
S111D96EE6154FE312188F186F008FC3000CDC
S111D97C8F3538183839BDDDDE46EC0EE70F66
S111D98AE60FE7042043EC084F8400C40FE7C7
S111D99805E605C10A240AE6054FC30030ED7A
S111D9A602200BE6054F83000AC30041ED0288
S111D9B4E6044F830001E30C188FE60318E726
S110D9C200EC0804040404ED08E6044F839F
S111D9CF0001E704E604C10022B7E60F4FE3AF
S111D9DD0C188F186F008FC300068F35381892
S111D9EB3839BDDDDE48EC10E7116F0720214E
S111D9F9E6074FED04E30E188F18E6003736EC
S111DA07EC04E30A188F323318E700E6074FE9
S111DA15C30001E707E6074FED04E6114FEDED
S111DA2302EC041AA3022C0BEC04E30E188F81
S111DA31186D0026C3E6074FE30A188F186F1E
S10EDA3F008FC300088F3538183839F9
S110DA4ABDDDDE0CC620E7076F062057BDCA
S111DA57C321EC00C30008BDC7DB5D2749E610
S111DA65084FED021A830001270AEC021A830F
S111DA730002272A2034E6074FC30001E7070C
S111DA81E607C1262304C621E707E6074F3750
S111DA8F36CC000B3736CC0000BDD04418381E
S111DA9D1838200CE609E705EC00C30005BDAF
S110DAABCF2620A78FC3000C8F353839BD5E
S110DAB8DDDE90CC0006ED0A18CEDD1CBDAD
S110DAC5DEE4EC00C3000C188FBDDF217EF1
S111DAD2DB54E60B4F5D2A01433736CC0000CF
S111DAE0BDD2C91838EC00C3000C188FEC003E
S111DAEEC300063C8FCC0004BDDE8738EC007C
S111DAFCC300063736CC00003736F6A30C4FB5
S111DB0A5D2A0143BDC4C818381838BDC321B4
S111DB18EC00C3000CBDC7DBCC0000A30AED7B
S111DB260AC601E70CEC00C3000C188FEC00DB
S111DB34C300023C8FCC0004BDDE8738EC0039
S111DB42C300023736F6A3104F5D2A0143BD1F
S111DB50C48418387EDAD48FC300108F3538A1
S111DB5E39BDDDDE8CCC0006ED0A18CEDD1CD0
S111DB6CBDDEE4EC00C30006188FBDDF2120EF
S111DB7A53E60B4F5D2A01433736CC0001BD44
S111DB88D2C91838EC00C30006188FEC00C395
S111DB9600023C8FCC0004BDDE8738EC00C3D7
S111DBA400023736CC00003736F6A30F4F5D73
S111DBB22A0143BDC4C818381838BDC321EC7D
S111DBC000C30006BDC7DBCC0000A30AED0ABB
S111DBCE20AB8FC3000C8F353839BDDDDE8EE1
S111DBDCCC0006ED0CC641E70718CEDD1CBDDB
S111DBEADEE4EC00C30008188FBDDF212053D9
S110DBF8E60D4F5D2A01433736CC0002BD17
S111DC05D2C91838EC00C30008188FEC00C315
S111DC1300023C8FCC0004BDDE8738EC00C359
S111DC2100023736CC00003736F6A30E4F5DF6
S111DC2F2A0143BDC4C818381838BDC321ECFF
S111DC3D00C30008BDC7DBCC0000A30CED0C37
S111DC4B20AB8FC3000E8F353839BDDDDE905F
S111DC59CC0006ED0E18CEDD1CBDDEE4EC00A2
S111DC67C3000A188FBDDF212053E60F4F5D66
S111DC752A01433736CC0003BDD2C91838EC5F
S111DC8300C3000A188FEC00C300023C8FCCD3
S111DC910004BDDE8738EC00C300023736CC39
S110DC9F03E83736F6A30D4F5D2A0143BD9F
S111DCACC4C818381838BDC321EC00C30006E4
S111DCBABDC7DBCC0000A30EED0E20AB8FC364
S111DCC800108F353839BDC040CC00323736DD
S111DCD6CC01003736CCA7113736CCDA4ABD64
S111DCE4C15CBDDE2706F7A310CC002D373639
S111DCF2CC01003736CCA4113736CCDC55BD3E
S110DD00C15CBDDE2706F7A30DCC2580BD58
S10CDD0DD3F3BDCC4DBDD291BD90
S109DD16CE34BDC2ED395C
S107DD1C00000000FF
S111DD203C183C38028F38393C364D2A0543F6
S111DD2E53C30001183C3818308C00002A083A
S111DD3C8F43538F08186300028F186D002A5E
S10CDD4A054353C30001313839CB
S111DD533C183C380238393C364D2A054353FF
S111DD61C30001183C388C00002A058F435380
S111DD6F8F0802306D002A054353C3000131B2
S105DD7D38392F
S111DD7F3C183C37363C3C30CC0000ED00A68E
S111DD8D05E6073DED02A605E6063DE301EDC1
S111DD9B01A604E6073DE301ED016900A604BC
S111DDA9E6063DE300ED001838323338383812
S104DDB7392E
S111DDB81838181F00400237363C3018EC00B3
S111DDC6843F37368F30A3008F35EF00181FCF
S111DDD40080043C3C3C3C186E021838181FBA
S111DDE200400237363C3018E6004FC43F378D
S111DDF0368F30A3008F35EF00181F0080041B
S111DDFE3C3C3C3C186E0118303736188FC37D
S111DE0C0001183018EE0218E300188F3233AC
S111DE1A183C183018AE0018EE02186E0218EC
S111DE28303736188FC30001183018EE021878
S111DE36EB008900188F3233183C183018AEF8
S111DE440018EE02186E01183C183C37361810
S111DE523018EC0618ED04EC0218ED0632331D
S111DE60183839183C3736183018EC06ED0225
S111DE6E18EC0418ED0618EC0218ED0418EC7C
S10EDE7C0018ED021838323318383952
S111DE871A83000027113718E600E7003383E2
S10DDE950001270508180820EF39E2
S111DE9FBDDDDE46EC08ED041AEE04FCA8110D
S111DEAD18ED00EC04FDA811EC08C30006ED0E
S111DEBB02EC0CA3023736EC04C30004188FEB
S111DEC9323318ED00EC04C30002188FEC0C89
S110DED718ED008FC300068F353818383958
S111DEE437368F8300088F18EC00ED0418EC1D
S111DEF202ED06C6083A323339373618EC0012
S111DF00ED0418EC02ED0632333937368F8308
S111DF0E00088F18EC00ED0018EC02ED02C6BE
S111DF1C083A32333937368F8300088FEC040D
S111DF2A18ED00EC0618ED02C6083A32333941
S111DF383736EC0418ED00EC0618ED02323317
S111DF463937368F8300088FEC0018ED00EC9D
S111DF540218ED02C6083A32333937368F838D
S111DF6200088FEC04ED00EC06ED02C6083A50
S111DF7032333937368F8300088F6F046F0504
S111DF7E3233ED062C0463046305C6083A39F9
S111DF8C37368F8300088F6F006F013233ED3C
S111DF9A022C0463006301C6083A3937368F3F
S111DFA88300088F3233ED066F046F05C60840
S111DFB63A3937368F8300088F3233ED026F0D
S111DFC4006F01C6083A398F8300088FEC06FF
S111DFD237C6083A33393736183018EE02ECE9
S111DFE00018E300188F18EC00830004188F5B
S111DFEEBDDF2132331838186E02183C18308B
S111DFFC18EE02183C183018EE02183C37C616
S111E00A051830183ABDDF2132183839183C99
S111E018183018EE02183C183018EE02183CAE
S111E02637C6051830183ABDDF4733183839AD
S111E034183C3736C6061830183ABDDEE4181C
S111E0423018EC0418ED08323318383131313F
S110E0503139183C3736C6061830183ABD71
S111E05DDF0A183018EC0418ED0832331838B6
S108E06B3131313139AF
S111E07037368F8300088FEC06E302ED06ECD2
S111E07E04E901A900ED04C6083A323339372B
S111E08C368F8300088FEC06A302ED06EC0429
S111E09AE201A200ED04C6083A3233393736EB
S111E0A8EC06A302ED06EC04E201A200ED0476
S111E0B63233393736183C8F8300088F3C3CD8
S111E0C4EC061AEE02BDDD7F183C1830180879
S111E0D2180818ED02EC061AEE00BDDD7F37CB
S111E0E036EC041AEE02BDDD7F183018E300A2
S111E0EE1838183018E30018381830ED0418EC
S111E0FCEC02ED0618381838C6083A18383207
S111E10A3339CC000018ED0018ED02C62037A2
S111E118680769066905690418690318690235
S111E12618690118690018EC001AA3002707F5
S111E134251E18EC02200818EC021AA302257E
S111E14211A30218ED0218EC00E201A200186D
S111E150ED006C07335A26BF39EC04E801A831
S111E15E002A04C6012002C60037EC042A037E
S111E16CBDE337EC002A03BDE34CBDE10C33E8
S110E17A5D2703BDE337393736183C8F832A
S111E18700088F183C183C18308DC718381843
S111E19538C6083A18383233393736183C8FFA
S111E1A38300088F183C183C1830BDE10C189E
S111E1B1381838C6083A183832333937361859
S110E1BF3C8F8300088F183C183C1830BDBD
S111E1CCE159BDDEFB18381838C6083A183879
S111E1DA3233393736183C8F8300088F183CD7
S111E1E8183C1830BDE10CBDDEFB18381838A9
S111E1F6C6083A183832333937368F8300089A
S111E2048FE603C41F5D270B680769066905D2
S110E21269045A20F2C6083A3233398F836A
S111E21F00088FC41F5D270B68076906690598
S110E22D69045A20F2C6083A3937368F8347
S111E23A00088FE603C41F5D270B670466050A
S111E248660666075A20F2C6083A3233398F4A
S111E2568300088FC41F5D270B6704660566EE
S111E2640666075A20F2C6083A3937368F8309
S111E27200088FE603C41F5D270B64046605D5
S111E280660666075A20F2C6083A3233398F12
S111E28E8300088FC41F5D270B6404660566B9
S111E29C0666075A20F2C6083A3937368F83D1
S111E2AA00088FEC04E401A400ED04EC06E48B
S111E2B803A402ED06C6083A32333937368F16
S111E2C68300088FEC04EA01AA00ED04EC06C4
S111E2D4EA03AA02ED06C6083A323339373699
S111E2E28F8300088FEC04E801A800ED04EC23
S111E2F006E803A802ED06C6083A32333937B1
S111E2FE368F8300088FCC0000A306ED06CCFB
S111E30C0000E205A204ED04C6083A323339DB
S111E31A37368F8300088FCC0000A302ED027B
S111E328CC0000E201A200ED00C6083A323338
S111E336393736CC0000A306ED06CC0000E219
S111E34405A204ED043233393736CC0000A3B1
S111E35202ED02CC0000E201A200ED00323325
S111E360398F8300088F630563046307630627
S111E36EC6083A393736183C8F8300088F18DA
S111E37C3C183C1830BDDF38BDE0A60784F025
S111E38A36EC042608EC062604328A0436EC2F
S111E3980427062A04328A083618EC001AA359
S111E3A6042D0E260818EC021AA3062F0432CA
S111E3B48A013618EC002D09EC002C104D2EB9
S111E3C20D2007EC002F074D2B04328A023683
S111E3D0C6083A32061838183818383233396D
S903C0003C
