S10EC0008EB5FFBDC3BD4FCE98008C71
S111C00B9B792705A7000820F6CED0DF18CEBB
S111C01980008CD0F9270AE60018E70008180A
S111C0270820F1CC0000270CC39B793736CCDF
S10EC0359B79BDCF0E38BDC22120FE58
S104D0DF004C
S104D0E0004B
S104D0E1004A
S104D0E20049
S104D0E30048
S104D0E40047
S104D0E50046
S104D0E60045
S111C040BDCE4D06F680044F8A00CAF0373696
S111C04EF680054FED023233AA02EA033736BC
S111C05CF680064FED023233AA02EA033736AD
S111C06AF680074FED023233AA02EA03E7051F
S111C078E605F77FFF8FC300068F353839BD0C
S110C086CE4D8A18CEC29FBDCF53EC00C32F
S111C0930006188FBDCF902046F680044F881B
S111C0A100C801F78004BDC040EC00C30006D7
S110C0AF188FEC00C300023C8FCC0004BDD0
S111C0BCCEF638EC00C300023736CC138837BA
S111C0CA36F680004F5D2A0143BDC9A7183821
S111C0D81838EC00C30006BDCB7120B88FC32E
S111C0E6000A8F353839BDCE4D8A18CEC29F60
S111C0F4BDCF53EC00C30006188FBDCF9020C3
S110C10246F680054F8800C802F78005BD91
S111C10FC040EC00C30006188FEC00C3000211
S111C11D3C8FCC0004BDCEF638EC00C300020B
S111C12B3736CC02583736F680014F5D2A01B4
S111C13943BDC9A718381838EC00C30006BD72
S110C147CB7120B88FC3000A8F353839BD85
S110C154CE4D8A18CEC29FBDCF53EC00C360
S111C1610006188FBDCF902046F680064F884A
S111C16F00C804F78006BDC040EC00C3000603
S110C17D188FEC00C300023C8FCC0004BD01
S111C18ACEF638EC00C300023736CC03E8379B
S111C19836F680024F5D2A0143BDC9A7183850
S111C1A61838EC00C30006BDCB7120B88FC35F
S111C1B4000A8F353839BDCE4D8A18CEC29F91
S111C1C2BDCF53EC00C30006188FBDCF9020F4
S110C1D046F680074F8800C808F78007BDB9
S111C1DDC040EC00C30006188FEC00C3000243
S111C1EB3C8FCC0004BDCEF638EC00C300023D
S111C1F93736CC04B03736F680034F5D2A018A
S111C20743BDC9A718381838EC00C30006BDA3
S110C215CB7120B88FC3000A8F353839BDB6
S110C222C4CDCC00233736CC00643736CCB5
S10EC22F992C3736CCC085BDC621BD5C
S111C23ACE9606F78000CC00283736CC006480
S111C2483736CC98C83736CCC0ECBDC621BD05
S111C256CE9606F78001CC002D3736CC00645E
S111C2643736CC98643736CCC153BDC621BDE5
S111C272CE9606F78002CC00323736CC00643C
S111C2803736CC98003736CCC1BABDC621BDC6
S10DC28ECE9606F78003BDC5C9BDB6
S10AC298C487CC0000393912
S107C29F0000000097
S111C2A3BDCE4D46CC0000ED04CC0000ED02F3
S111C2B1EC00C30002188FEC083C8FCC000494
S111C2BFBDCEF6388FC300068F3538183839D7
S111C2CDBDCE4D44EC0AC30002ED021AEE028F
S111C2DB18EC00E30C1AEE0218ED00EC0AC396
S111C2E90002188F18EC001AA30C240F1AEE92
S111C2F70A18EC00C300011AEE0A18ED00EC60
S111C305061AEE0A3C8FCC0004BDCEF6388F2B
S111C313C300048F353818383937363C303CB7
S111C321301AEE0418EC001AEE08CDA3002426
S111C32F0DCCFFFF8FC300028F35381838394C
S111C33D1AEE0418EC001AEE08CDA300230D2E
S111C34BCC00018FC300028F3538183839EC4E
S111C35904C30002188F18EC003736EC08C33A
S111C3670002188F3233CDA300240DCCFFFF4B
S110C3758FC300028F3538183839EC04C32B
S111C3820002188F18EC003736EC08C30002D6
S111C390188F3233CDA300230DCC00018FC3D0
S110C39E00028F3538183839CC00008FC3E9
S111C3AB00028F35381838398FC300028F35E1
S107C3B938183839BB
S109FFD6C45EC45EC45EBB
S109FFDCC45EC45EC45EB5
S109FFE2C45EC45EC45EAF
S109FFE8C45EC45EC45EA9
S109FFEEC45EC45EC45EA3
S109FFF4C45EC45EC45E9D
S109FFFAC45EC45EC000F9
S110C3BD0F7F10227F1024C604F710287F84
S110C3CA102D7F1002C60CF7103FC6A0F71F
S10FC3D71039CCC45EFDFFD6CCC45EFD62
S10CC3E3FFD8CCC45EFDFFDACCE6
S10CC3ECC45EFDFFDCCCC45EFD5F
S10CC3F5FFDECCC45EFDFFE0CCC8
S10CC3FEC45EFDFFE2CCC45EFD47
S10CC407FFE4CCC45EFDFFE6CCA9
S10CC410C45EFDFFE8CCC45EFD2E
S10CC419FFEACCC45EFDFFECCC8B
S10CC422C45EFDFFEECCC45EFD16
S10CC42BFFF0CCC45EFDFFF2CC6D
S10CC434C45EFDFFF4CCC45EFDFE
S10CC43DFFF6CCC487FDFFF8CC26
S10CC446C45EFDFFFACCC45EFDE6
S111C44FFFFCCCC000FDFFFEC625F7103C0E1E
S111C45D393937363C303C30EC04E705E6054F
S111C46BC114220EE6054F05C3FFD6188FEC50
S111C4790818ED008FC300028F3538183839CB
S111C487BDCE4D040F8EB5FF18CE1009181C43
S110C4950010202AF610004F8800C808F798
S111C4A2100018CE1008181D00102005E60327
S111C4B0F77FFFE6034F830001E702E703E690
S111C4BE02C10022EB20D48FC300048F353856
S104C4CC3932
S109BFD6C45EC45EC45EFB
S109BFDCC45EC45EC45EF5
S109BFE2C45EC45EC45EEF
S109BFE8C45EC45EC45EE9
S109BFEEC45EC45EC45EE3
S109BFF4C45EC45EC45EDD
S109BFFAC45EC45EC00039
S105D0E7000043
S105D0E9000041
S105D0EB00003F
S105D0ED00003D
S104D0EF003C
S105D0F000003A
S105D0F2000038
S104D0F40037
S105D0F5000035
S105D0F7000033
S110C4CDBDCE4D087D801527037EC5C1F648
S110C4DA80154FC30001F78015CC9B05BDF4
S111C4E7C2A36F072050E6074F188FCC001237
S110C4F5BDCDEEED04C39B15188FEC04C300
S111C5029B1B18ED00E6074FED02CC00121A49
S111C510EE02BDCDEEC39B09188FE60318E7BB
S110C51E00E6074F188FCC0012BDCDEEC310
S111C52B9B13188FCC000218ED00E6074FC3D7
S111C5390001E707E607C10625AACC0000FDB5
S111C5479B6FCC9B09FD80136F072031E60724
S111C5554F05050505ED04C3999E188FEC04EF
S111C563C399A018ED00E6074FED020505058B
S111C57105C39990188FEC0218ED00E6074FF1
S111C57FC30001E707E607C11425C9CC00007C
S111C58DFD9ACECC9990FD8016CC0000373676
S111C59BCC00323736CC9AD33736CCCD36BDF1
S111C5A9C621BDCE96064F5D2A0143F79AD0F7
S111C5B7F69AD04FBDCD39FD9AD18FC300083E
S111C5C58F3538397D80152603BDC4870FCC11
S110C5D3C7D93736CC0008BDC45F1838CC7A
S110C5E0C87A3736CC0010BDC45F1838BDD2
S10CC5EDCD94FC8011FD800EFCCC
S111C5F6800E2603BDC48718FE800E18E600D2
S111C604F78010FC800EC30002188F18EC00A3
S111C612FD8008BE80083284EF363BBDC4872D
S111C62039BDCE4D46EC10E7117D8015260382
S111C62EBDC487FC80132610BDC487CCFFFF5B
S111C63C8FC300068F35381838390FFC801371
S111C64AED04FC8013C3000C188F18EC00FDE7
S111C6588013EC04C30004188FEC0EE30CC333
S111C666FFFF18ED00EC04C30006188FEC0C67
S111C67418ED00EC04C30004188F18EC003716
S111C68236EC04C30002188F323318ED00ECBE
S111C69004C30008188FE61118E700EC04C379
S110C69E000A188FCC000018ED00EC04C356
S110C6AB000E188FCC000018ED00EC04C345
S110C6B80010188FCC000018ED00EC04C336
S110C6C50002188F18EC00FD8008EC08FD41
S10CC6D2800CBF9B75BE8008CCEE
S111C6DBC4873736FC800C3736860036363678
S110C6E936363636BF8008BE9B75EC04C3A0
S111C6F60002188FFC800818ED00FC8011264D
S111C70415EC04FD8011EC04C3000C188FCC5E
S111C712000018ED007EC7B1EC04C300081847
S111C7208F18E6003736FC8011C30008188F0E
S111C72E323318E1002315EC04C3000C188FFD
S111C73CFC801118ED00EC04FD80117EC7B1E5
S111C74AFC8011ED022030EC02C3000C188FAD
S111C75818EC00C30008188FEC04C300081886
S111C7663C188F18E600183818E10023022052
S111C77418EC02C3000C188F18EC00ED02EC58
S111C78202C3000C188F18EC0026C4EC02C38E
S111C790000C188F18EC003736EC04C3000CB4
S111C79E188F323318ED00EC02C3000C188F14
S111C7ACEC0418ED000E1AEE0418E6004F5DC2
S111C7BA2A01438FC300068F35381838398F93
S111C7C8C300068F3538183839BDC48739BD13
S111C7D6CE4D08CC00643736EC00C3000418C6
S111C7E4CE9B053C8FCC0004BDCEF638EC0095
S111C7F2C300043736CC9B05BDC2CD183818E1
S111C80038BDCDC9BDCC40C100235FFC800E05
S111C80EC30002188F18EC00ED02FC800EC36C
S111C81C0004188FEC02CDA300220FFC800E46
S110C82AC30006188FEC02CDA3002403BD4B
S10FC837C487FC800EC30002FD800ABD13
S110C843C91CFD800E18FE800E18E600F7DB
S111C8508010FC800EC30002188F18EC00FD4F
S111C85E800818FE800A18AF00BE80083BBD9B
S111C86CC4878FC300088F353839BDCE4D0602
S111C87AFC800EC30002188F18EC00ED04FCC5
S111C888800EC30004188FEC04CDA300220F11
S111C896FC800EC30006188FEC04CDA3002412
S111C8A403BDC487FC800EC30002FD800ABDE4
S110C8B2C91CFD800E18FE800E18E600F76C
S111C8BF8010FC800EC30002188F18EC00EDF0
S111C8CD02FC800EC30004188FEC02CDA30001
S111C8DB220FFC800EC30006188FEC02CDA3C2
S111C8E9002403BDC487FC800EC30002188F18
S111C8F718EC00FD8008183C3C36370784EF2F
S110C9053618FE800A18AF00BE80083BBD46
S111C912C4878FC300068F353839BDCE4D045F
S111C920FC8011ED022022EC02C3000A188FE5
S111C92E18EC00260AEC028FC300048F353883
S111C93C39EC02C3000C188F18EC00ED02EC6D
S111C94A0226DABDC487CC00008FC300048F20
S111C9583538398FC300048F353839BDCE4DC4
S111C96646EC00C300021AEE0C3C8FCC000419
S111C974BDCEF638EC00C300023736CC00000E
S111C9823736E6094F5D2A0143BDC9A71838B0
S111C99018384F8FC300068F35381838398F8A
S111C99EC300068F3538183839BDCE4D640FEE
S111C9ACFC80162603BDC487E6274F5D2A01D2
S111C9BA434FBDCD39ED20EC202603BDC487CC
S111C9C8FC8016ED22FC8016C3000E188F189A
S111C9D6EC00FD8016EC22C30002188F183C02
S111C9E418FE800E18E600183818E700EC2242
S111C9F2C30004188FEC2018ED00EC2A373631
S111CA00EC00C3001C18CE9B053C8FCC000438
S111CA0EBDCEF638EC00C3001C3736EC00C376
S111CA1C0018BDC2CD18381838EC00C300183D
S110CA2A188FEC22C300063C8FCC0004BD25
S111CA37CEF638EC22C3000A1AEE2C3C8FCC4B
S111CA450004BDCEF638FC80182615EC22FD48
S111CA538018EC22C3000E188FCC000018EDE2
S111CA61007ECB59EC00C300143736EC22C320
S111CA6F0006188F32333C8FCC0004BDCEF687
S111CA7D38EC00C300143736EC00C300103749
S111CA8B36FC8018C30006188F32333C8FCC63
S111CA990004BDCEF638EC00C30010BDC31C73
S111CAA71838ED026D032F15EC22C3000E1893
S110CAB58FFC801818ED00EC22FD80187E27
S111CAC2CB59FC8018ED0E205BEC00C3000A7B
S111CAD03736EC22C30006188F32333C8FCC6D
S111CADE0004BDCEF638EC00C3000A3736EC77
S111CAEC0EC3000E188F18EC00C30006188F3E
S111CAFAEC00C300063C8FCC0004BDCEF63821
S111CB08EC00C30006BDC31C1838ED046D0517
S111CB162F02201BEC0EC3000E188F18EC002B
S111CB24ED0EEC0EC3000E188F18EC00270364
S111CB327ECACBEC0EC3000E188F18EC003731
S111CB4036EC22C3000E188F323318ED00ECD1
S110CB4E0EC3000E188FEC2218ED000ECC63
S111CB5B00008FC300248F35381838398FC37B
S111CB6900248F3538183839BDCE4D440FFCEA
S110CB77800EC3000E188F18EC00260FFC72
S111CB84800EC3000A188FCC000118ED003F8C
S111CB920FFC800EC3000E188F18EC00ED028D
S111CBA0EC022603BDC487EC02C30004188F08
S110CBAE18EC001AB3800E2703BDC487FCE9
S111CBBB800EC30010188FEC02CDA300261EBE
S111CBC9FC800EC3000E188FCC000018ED0087
S111CBD7FC800EC30010188FCC000018ED0077
S111CBE52019EC02C3000E188F18EC0037362E
S111CBF3FC800EC3000E188F323318ED00ECD8
S111CC01062712EC02C3000A188FEC063C8FC3
S111CC0FCC0004BDCEF638EC02C3000E188F24
S110CC1DFC801618ED00EC02FD80160ECC14
S111CC2A00018FC300048F35381838398FC3CA
S111CC3800048F3538183839BDCE4D126F0DFB
S111CC467ECCD8FC8018C30004188F18EC00B4
S111CC54ED10EC102603BDC487EC10C3000ADB
S111CC62188FCC000018ED00FC8018ED0EFCBD
S111CC708018C3000E188F18EC00FD8018EC1D
S111CC7E10C3000E188F18EC00261AEC10C319
S111CC8C000E188FEC0E18ED00EC10C3001013
S111CC9A188FEC0E18ED002020EC10C30010D3
S111CCA8188F18EC00C3000E188FEC0E18ED58
S111CCB600EC10C30010188FEC0E18ED00EC0B
S111CCC40EC3000E188FCC000018ED00E60D14
S111CCD24FC30001E70DFC80182746EC00C399
S111CCE0000818CE9B053C8FCC0004BDCEF698
S111CCEE38EC00C300083736EC00C3000437EE
S111CCFC36FC8018C30006188F32333C8FCCF0
S111CD0A0004BDCEF638EC00C30004BDC31C0B
S111CD181838ED026D032E037ECC49E60D4F54
S111CD268FC300128F3538398FC300128F353A
S111CD34383920FE3937363C303C30EC04E709
S111CD4205E605C1062503BDC487E6054F18A6
S111CD508FCC0012BDCDEEC39B13188F18ECD0
S111CD5E001A830002260DCC00008FC30002D1
S111CD6C8F3538183839E6054F188FCC001271
S111CD7ABDCDEEC39B098FC300028F35381860
S110CD8838398FC300028F3538183839BD93
S111CD95CE4D04CC07D018CE0064BDCDEEED1B
S111CDA302FC100EE302FD101818CE10221828
S111CDB11C0040C640F7102318CE1020181D99
S111CDBF00C08FC300048F353839BDCE4D043B
S110CDCDCC07D018CE0064BDCDEEED02FC05
S111CDDA1018E302FD1018C640F710238FC393
S109CDE800048F35383908
S111CDEE3C183C37363C3C30CC0000ED00A62F
S111CDFC05E6073DED02A605E6063DE301ED62
S111CE0A01A604E6073DE301ED016900A6045C
S111CE18E6063DE300ED0018383233383838B2
S104CE2639CE
S111CE271838181F00400237363C3018EC0053
S111CE35843F37368F30A3008F35EF00181F6F
S111CE430080043C3C3C3C186E021838181F5A
S111CE5100400237363C3018E6004FC43F372D
S111CE5F368F30A3008F35EF00181F008004BB
S111CE6D3C3C3C3C186E0118303736188FC31D
S111CE7B0001183018EE0218E300188F32334D
S111CE89183C183018AE0018EE02186E02188D
S111CE97303736188FC30001183018EE021819
S111CEA5EB008900188F3233183C183018AE99
S111CEB30018EE02186E01183C183C373618B1
S111CEC13018EC0618ED04EC0218ED063233BE
S111CECF183839183C3736183018EC06ED02C6
S111CEDD18EC0418ED0618EC0218ED0418EC1D
S10ECEEB0018ED0218383233183839F3
S111CEF61A83000027113718E600E700338383
S10DCF040001270508180820EF3982
S111CF0EBDCE4D46EC08ED041AEE04FC9B77F4
S111CF1C18ED00EC04FD9B77EC08C30006ED55
S111CF2A02EC0CA3023736EC04C30004188F8B
S111CF38323318ED00EC04C30002188FEC0C29
S110CF4618ED008FC300068F3538183839F8
S111CF5337368F8300088F18EC00ED0418ECBD
S111CF6102ED06C6083A323339373618EC00B2
S111CF6FED0418EC02ED0632333937368F83A9
S111CF7D00088F18EC00ED0018EC02ED02C65F
S111CF8B083A32333937368F8300088FEC04AE
S111CF9918ED00EC0618ED02C6083A323339E2
S111CFA73736EC0418ED00EC0618ED023233B8
S111CFB53937368F8300088FEC0018ED00EC3E
S111CFC30218ED02C6083A32333937368F832E
S111CFD100088FEC04ED00EC06ED02C6083AF1
S111CFDF32333937368F8300088F6F046F05A5
S111CFED3233ED062C0463046305C6083A399A
S111CFFB37368F8300088F6F006F013233EDDD
S111D009022C0463006301C6083A3937368FDF
S111D0178300088F3233ED066F046F05C608E0
S111D0253A3937368F8300088F3233ED026FAD
S111D033006F01C6083A398F8300088FEC069F
S111D04137C6083A33393736183018EE02EC89
S111D04F0018E300188F18EC00830004188FFB
S111D05DBDCF9032331838186E02183C1830CC
S111D06B18EE02183C183018EE02183C37C6B6
S111D079051830183ABDCF9032183839183CDB
S111D087183018EE02183C183018EE02183C4F
S111D09537C6051830183ABDCFB633183839EF
S111D0A3183C3736C6061830183ABDCF53185D
S111D0B13018EC0418ED0832331838313131E0
S110D0BF3139183C3736C6061830183ABD12
S111D0CCCF79183018EC0418ED0832331838F8
S108D0DA313131313950
S903C0003C
