S10EC0008EB5FFBDC3BD4FCE98008C71
S111C00B9B792705A7000820F6CED10E18CE8B
S111C01980008CD128270AE60018E7000818DA
S111C0270820F1CC0000270CC39B793736CCDF
S10EC0359B79BDCF3D38BDC22120FE29
S104D10E001C
S104D10F001B
S104D110001A
S104D1110019
S104D1120018
S104D1130017
S104D1140016
S104D1150015
S111C040BDCE7C06F680044F8A00CAF0373667
S111C04EF680054FED023233AA02EA033736BC
S111C05CF680064FED023233AA02EA033736AD
S111C06AF680074FED023233AA02EA03E7051F
S111C078E605F77FFF8FC300068F353839BD0C
S110C086CE7C8A18CEC29FBDCF82EC00C3D1
S111C0930006188FBDCFBF2046F680044F88EC
S111C0A100C801F78004BDC040EC00C30006D7
S110C0AF188FEC00C300023C8FCC0004BDD0
S111C0BCCF2538EC00C300023736CC1388378A
S111C0CA36F680004F5D2A0143BDC9D61838F2
S111C0D81838EC00C30006BDCBA020B88FC3FF
S111C0E6000A8F353839BDCE7C8A18CEC29F31
S111C0F4BDCF82EC00C30006188FBDCFBF2065
S110C10246F680054F8800C802F78005BD91
S111C10FC040EC00C30006188FEC00C3000211
S111C11D3C8FCC0004BDCF2538EC00C30002DB
S111C12B3736CC02583736F680014F5D2A01B4
S111C13943BDC9D618381838EC00C30006BD43
S110C147CBA020B88FC3000A8F353839BD56
S110C154CE7C8A18CEC29FBDCF82EC00C302
S111C1610006188FBDCFBF2046F680064F881B
S111C16F00C804F78006BDC040EC00C3000603
S110C17D188FEC00C300023C8FCC0004BD01
S111C18ACF2538EC00C300023736CC03E8376B
S111C19836F680024F5D2A0143BDC9D6183821
S111C1A61838EC00C30006BDCBA020B88FC330
S111C1B4000A8F353839BDCE7C8A18CEC29F62
S111C1C2BDCF82EC00C30006188FBDCFBF2096
S110C1D046F680074F8800C808F78007BDB9
S111C1DDC040EC00C30006188FEC00C3000243
S111C1EB3C8FCC0004BDCF2538EC00C300020D
S111C1F93736CC04B03736F680034F5D2A018A
S111C20743BDC9D618381838EC00C30006BD74
S110C215CBA020B88FC3000A8F353839BD87
S110C222C4FCCC00233736CC00643736CC86
S10EC22F992C3736CCC085BDC650BD2D
S111C23ACEC506F78000CC00283736CC006451
S111C2483736CC98C83736CCC0ECBDC650BDD6
S111C256CEC506F78001CC002D3736CC00642F
S111C2643736CC98643736CCC153BDC650BDB6
S111C272CEC506F78002CC00323736CC00640D
S111C2803736CC98003736CCC1BABDC650BD97
S10DC28ECEC506F78003BDC5F8BD58
S10AC298C4B6CC00003939E3
S107C29F0000000097
S111C2A3BDCE7C46CC0000ED04CC0000ED02C4
S111C2B1EC00C30002188FEC083C8FCC000494
S111C2BFBDCF25388FC300068F3538183839A7
S111C2CDBDCE7C44EC0AC30002ED021AEE0260
S111C2DB18EC00E30C1AEE0218ED00EC0AC396
S111C2E90002188F18EC001AA30C240F1AEE92
S111C2F70A18EC00C300011AEE0A18ED00EC60
S111C305061AEE0A3C8FCC0004BDCF25388FFB
S111C313C300048F353818383937363C303CB7
S111C321301AEE0418EC001AEE08CDA3002426
S111C32F0DCCFFFF8FC300028F35381838394C
S111C33D1AEE0418EC001AEE08CDA300230D2E
S111C34BCC00018FC300028F3538183839EC4E
S111C35904C30002188F18EC003736EC08C33A
S111C3670002188F3233CDA300240DCCFFFF4B
S110C3758FC300028F3538183839EC04C32B
S111C3820002188F18EC003736EC08C30002D6
S111C390188F3233CDA300230DCC00018FC3D0
S110C39E00028F3538183839CC00008FC3E9
S111C3AB00028F35381838398FC300028F35E1
S107C3B938183839BB
S109FFD6C48CC48CC48C31
S109FFDCC48CC48CC48C2B
S109FFE2C48CC48CC48C25
S109FFE8C48CC48CC48C1F
S109FFEEC48CC48CC48C19
S109FFF4C48CC48CC48C13
S109FFFAC48CC48CC0009D
S111C3BD0FC601F7103D7F10227F1024C60426
S111C3CBF710287F102D7F1002C60CF7103FCC
S111C3D9C6A0F71039CCC462FDFFD6CCC464F4
S10DC3E7FDFFD8CCC466FDFFDACCDC
S10CC3F1C468FDFFDCCCC46AFD44
S10CC3FAFFDECCC46CFDFFE0CCB5
S10CC403C46EFDFFE2CCC470FD1F
S10CC40CFFE4CCC472FDFFE6CC90
S10CC415C474FDFFE8CCC476FDFB
S10CC41EFFEACCC478FDFFECCC6C
S10CC427C47AFDFFEECCC47CFDD7
S10CC430FFF0CCC47EFDFFF2CC48
S10CC439C480FDFFF4CCC482FDB3
S10CC442FFF6CCC4B6FDFFF8CCF2
S10CC44BC486FDFFFACCC488FD8F
S111C454FFFCCCC000FDFFFEC625F7103C39EE
S111C4623B393B393B393B393B393B393B399C
S111C4703B393B393B393B393B393B393B398E
S111C47E3B393B393B393B393B393B393B3980
S111C48C3B3937363C303C30EC04E705E6051E
S111C49AC114220EE6054F05C3FFD6188FEC21
S111C4A80818ED008FC300028F35381838399C
S111C4B6BDCE7C040F8EB5FF18CE1009181CE5
S110C4C40010202AF610004F8800C808F769
S111C4D1100018CE1008181D00102005E603F8
S111C4DFF77FFFE6034F830001E702E703E661
S111C4ED02C10022EB20D48FC300048F353827
S104C4FB3903
S109BFD6C48CC48CC48C71
S109BFDCC48CC48CC48C6B
S109BFE2C48CC48CC48C65
S109BFE8C48CC48CC48C5F
S109BFEEC48CC48CC48C59
S109BFF4C48CC48CC48C53
S109BFFAC48CC48CC000DD
S105D116000013
S105D118000011
S105D11A00000F
S105D11C00000D
S104D11E000C
S105D11F00000A
S105D121000008
S104D1230007
S105D124000005
S105D126000003
S110C4FCBDCE7C087D801527037EC5F0F6BB
S110C50980154FC30001F78015CC9B05BDC4
S111C516C2A36F072050E6074F188FCC001207
S110C524BDCE1DED04C39B15188FEC04C3A0
S111C5319B1B18ED00E6074FED02CC00121A1A
S111C53FEE02BDCE1DC39B09188FE60318E75C
S110C54D00E6074F188FCC0012BDCE1DC3B1
S111C55A9B13188FCC000218ED00E6074FC3A8
S111C5680001E707E607C10625AACC0000FD86
S111C5769B6FCC9B09FD80136F072031E607F5
S111C5844F05050505ED04C3999E188FEC04C0
S111C592C399A018ED00E6074FED020505055C
S111C5A005C39990188FEC0218ED00E6074FC2
S111C5AEC30001E707E607C11425C9CC00004D
S111C5BCFD9ACECC9990FD8016CC0000373647
S111C5CACC00323736CC9AD33736CCCD65BD93
S111C5D8C650BDCEC5064F5D2A0143F79AD06A
S111C5E6F69AD04FBDCD68FD9AD18FC30008E0
S111C5F48F3538397D80152603BDC4B60FCCB3
S110C602C8083736CC0008BDC48E1838CCEB
S110C60FC8A93736CC0010BDC48E1838BD44
S10CC61CCDC3FC8011FD800EFC6D
S111C625800E2603BDC4B618FE800E18E60073
S111C633F78010FC800EC30002188F18EC0074
S111C641FD8008BE80083284EF363BBDC4B6CF
S111C64F39BDCE7C46EC10E7117D8015260324
S111C65DBDC4B6FC80132610BDC4B6CCFFFFCE
S111C66B8FC300068F35381838390FFC801342
S111C679ED04FC8013C3000C188F18EC00FDB8
S111C6878013EC04C30004188FEC0EE30CC304
S111C695FFFF18ED00EC04C30006188FEC0C38
S111C6A318ED00EC04C30004188F18EC0037E7
S111C6B136EC04C30002188F323318ED00EC8F
S111C6BF04C30008188FE61118E700EC04C34A
S110C6CD000A188FCC000018ED00EC04C327
S110C6DA000E188FCC000018ED00EC04C316
S110C6E70010188FCC000018ED00EC04C307
S110C6F40002188F18EC00FD8008EC08FD12
S10CC701800CBF9B75BE8008CCBE
S111C70AC4B63736FC800C3736860036363619
S110C71836363636BF8008BE9B75EC04C370
S111C7250002188FFC800818ED00FC8011261D
S111C73315EC04FD8011EC04C3000C188FCC2F
S111C741000018ED007EC7E0EC04C3000818E9
S111C74F8F18E6003736FC8011C30008188FDF
S111C75D323318E1002315EC04C3000C188FCE
S111C76BFC801118ED00EC04FD80117EC7E087
S111C779FC8011ED022030EC02C3000C188F7E
S111C78718EC00C30008188FEC04C300081857
S111C7953C188F18E600183818E10023022023
S111C7A318EC02C3000C188F18EC00ED02EC29
S111C7B102C3000C188F18EC0026C4EC02C35F
S111C7BF000C188F18EC003736EC04C3000C85
S111C7CD188F323318ED00EC02C3000C188FE5
S111C7DBEC0418ED000E1AEE0418E6004F5D93
S111C7E92A01438FC300068F35381838398F64
S111C7F7C300068F3538183839BDC4B639BDB5
S111C805CE7C08CC00643736EC00C300041867
S111C813CE9B053C8FCC0004BDCF2538EC0035
S111C821C300043736CC9B05BDC2CD183818B1
S111C82F38BDCDF8BDCC6FC100235FFC800E78
S111C83DC30002188F18EC00ED02FC800EC33D
S111C84B0004188FEC02CDA300220FFC800E17
S110C859C30006188FEC02CDA3002403BD1C
S10FC866C4B6FC800EC30002FD800ABDB5
S110C872C94BFD800E18FE800E18E600F77D
S111C87F8010FC800EC30002188F18EC00FD20
S111C88D800818FE800A18AF00BE80083BBD6C
S111C89BC4B68FC300088F353839BDCE7C0675
S111C8A9FC800EC30002188F18EC00ED04FC96
S111C8B7800EC30004188FEC04CDA300220FE2
S111C8C5FC800EC30006188FEC04CDA30024E3
S111C8D303BDC4B6FC800EC30002FD800ABD86
S110C8E1C94BFD800E18FE800E18E600F70E
S111C8EE8010FC800EC30002188F18EC00EDC1
S111C8FC02FC800EC30004188FEC02CDA300D2
S111C90A220FFC800EC30006188FEC02CDA392
S111C918002403BDC4B6FC800EC30002188FB9
S111C92618EC00FD8008183C3C36370784EFFF
S110C9343618FE800A18AF00BE80083BBD17
S111C941C4B68FC300068F353839BDCE7C04D2
S111C94FFC8011ED022022EC02C3000A188FB6
S111C95D18EC00260AEC028FC300048F353854
S111C96B39EC02C3000C188F18EC00ED02EC3E
S111C9790226DABDC4B6CC00008FC300048FC2
S111C9873538398FC300048F353839BDCE7C66
S111C99546EC00C300021AEE0C3C8FCC0004EA
S111C9A3BDCF2538EC00C300023736CC0000AF
S111C9B13736E6094F5D2A0143BDC9D6183852
S111C9BF18384F8FC300068F35381838398F5B
S111C9CDC300068F3538183839BDCE7C640F90
S111C9DBFC80162603BDC4B6E6274F5D2A0174
S111C9E9434FBDCD68ED20EC202603BDC4B63F
S111C9F7FC8016ED22FC8016C3000E188F186B
S111CA05EC00FD8016EC22C30002188F183CD2
S111CA1318FE800E18E600183818E700EC2212
S111CA21C30004188FEC2018ED00EC2A373601
S111CA2FEC00C3001C18CE9B053C8FCC000409
S111CA3DBDCF2538EC00C3001C3736EC00C317
S111CA4B0018BDC2CD18381838EC00C300180E
S110CA59188FEC22C300063C8FCC0004BDF6
S111CA66CF2538EC22C3000A1AEE2C3C8FCCEC
S111CA740004BDCF2538FC80182615EC22FDE9
S111CA828018EC22C3000E188FCC000018EDB3
S111CA90007ECB88EC00C300143736EC22C3C2
S111CA9E0006188F32333C8FCC0004BDCF2528
S111CAAC38EC00C300143736EC00C30010371A
S111CABA36FC8018C30006188F32333C8FCC34
S111CAC80004BDCF2538EC00C30010BDC31C14
S111CAD61838ED026D032F15EC22C3000E1864
S110CAE48FFC801818ED00EC22FD80187EF8
S111CAF1CB88FC8018ED0E205BEC00C3000A1D
S111CAFF3736EC22C30006188F32333C8FCC3E
S111CB0D0004BDCF2538EC00C3000A3736EC17
S111CB1B0EC3000E188F18EC00C30006188F0E
S111CB29EC00C300063C8FCC0004BDCF2538C1
S111CB37EC00C30006BDC31C1838ED046D05E8
S111CB452F02201BEC0EC3000E188F18EC00FC
S111CB53ED0EEC0EC3000E188F18EC00270335
S111CB617ECAFAEC0EC3000E188F18EC0037D3
S111CB6F36EC22C3000E188F323318ED00ECA2
S110CB7D0EC3000E188FEC2218ED000ECC34
S111CB8A00008FC300248F35381838398FC34C
S111CB9800248F3538183839BDCE7C440FFC8C
S110CBA6800EC3000E188F18EC00260FFC43
S111CBB3800EC3000A188FCC000118ED003F5D
S111CBC10FFC800EC3000E188F18EC00ED025E
S111CBCFEC022603BDC4B6EC02C30004188FAA
S110CBDD18EC001AB3800E2703BDC4B6FC8B
S111CBEA800EC30010188FEC02CDA300261E8F
S111CBF8FC800EC3000E188FCC000018ED0058
S111CC06FC800EC30010188FCC000018ED0047
S111CC142019EC02C3000E188F18EC003736FE
S111CC22FC800EC3000E188F323318ED00ECA8
S111CC30062712EC02C3000A188FEC063C8F94
S111CC3ECC0004BDCF2538EC02C3000E188FC5
S110CC4CFC801618ED00EC02FD80160ECCE5
S111CC5900018FC300048F35381838398FC39B
S111CC6700048F3538183839BDCE7C126F0D9D
S111CC757ECD07FC8018C30004188F18EC0055
S111CC83ED10EC102603BDC4B6EC10C3000A7D
S111CC91188FCC000018ED00FC8018ED0EFC8E
S111CC9F8018C3000E188F18EC00FD8018ECEE
S111CCAD10C3000E188F18EC00261AEC10C3EA
S111CCBB000E188FEC0E18ED00EC10C30010E4
S111CCC9188FEC0E18ED002020EC10C30010A4
S111CCD7188F18EC00C3000E188FEC0E18ED29
S111CCE500EC10C30010188FEC0E18ED00ECDC
S111CCF30EC3000E188FCC000018ED00E60DE5
S111CD014FC30001E70DFC80182746EC00C369
S111CD0F000818CE9B053C8FCC0004BDCF2538
S111CD1D38EC00C300083736EC00C3000437BE
S111CD2B36FC8018C30006188F32333C8FCCC0
S111CD390004BDCF2538EC00C30004BDC31CAC
S111CD471838ED026D032E037ECC78E60D4FF6
S111CD558FC300128F3538398FC300128F350B
S111CD63383920FE3937363C303C30EC04E7DA
S111CD7105E605C1062503BDC4B6E6054F1848
S111CD7F8FCC0012BDCE1DC39B13188F18EC71
S111CD8D001A830002260DCC00008FC30002A2
S111CD9B8F3538183839E6054F188FCC001242
S111CDA9BDCE1DC39B098FC300028F35381801
S110CDB738398FC300028F3538183839BD64
S111CDC4CE7C04CC07D018CE0064BDCE1DED8D
S111CDD202FC100EE302FD101818CE102218F9
S111CDE01C0040C640F7102318CE1020181D6A
S111CDEE00C08FC300048F353839BDCE7C04DD
S110CDFCCC07D018CE0064BDCE1DED02FCA6
S111CE091018E302FD1018C640F710238FC363
S109CE1700048F353839D8
S111CE1D3C183C37363C3C30CC0000ED00A6FF
S111CE2B05E6073DED02A605E6063DE301ED32
S111CE3901A604E6073DE301ED016900A6042D
S111CE47E6063DE300ED001838323338383883
S104CE55399F
S111CE561838181F00400237363C3018EC0024
S111CE64843F37368F30A3008F35EF00181F40
S111CE720080043C3C3C3C186E021838181F2B
S111CE8000400237363C3018E6004FC43F37FE
S111CE8E368F30A3008F35EF00181F0080048C
S111CE9C3C3C3C3C186E0118303736188FC3EE
S111CEAA0001183018EE0218E300188F32331E
S111CEB8183C183018AE0018EE02186E02185E
S111CEC6303736188FC30001183018EE0218EA
S111CED4EB008900188F3233183C183018AE6A
S111CEE20018EE02186E01183C183C37361882
S111CEF03018EC0618ED04EC0218ED0632338F
S111CEFE183839183C3736183018EC06ED0297
S111CF0C18EC0418ED0618EC0218ED0418ECED
S10ECF1A0018ED0218383233183839C3
S111CF251A83000027113718E600E700338353
S10DCF330001270508180820EF3953
S111CF3DBDCE7C46EC08ED041AEE04FC9B7796
S111CF4B18ED00EC04FD9B77EC08C30006ED26
S111CF5902EC0CA3023736EC04C30004188F5C
S111CF67323318ED00EC04C30002188FEC0CFA
S110CF7518ED008FC300068F3538183839C9
S111CF8237368F8300088F18EC00ED0418EC8E
S111CF9002ED06C6083A323339373618EC0083
S111CF9EED0418EC02ED0632333937368F837A
S111CFAC00088F18EC00ED0018EC02ED02C630
S111CFBA083A32333937368F8300088FEC047F
S111CFC818ED00EC0618ED02C6083A323339B3
S111CFD63736EC0418ED00EC0618ED02323389
S111CFE43937368F8300088FEC0018ED00EC0F
S111CFF20218ED02C6083A32333937368F83FF
S111D00000088FEC04ED00EC06ED02C6083AC1
S111D00E32333937368F8300088F6F046F0575
S111D01C3233ED062C0463046305C6083A396A
S111D02A37368F8300088F6F006F013233EDAD
S111D038022C0463006301C6083A3937368FB0
S111D0468300088F3233ED066F046F05C608B1
S111D0543A3937368F8300088F3233ED026F7E
S111D062006F01C6083A398F8300088FEC0670
S111D07037C6083A33393736183018EE02EC5A
S111D07E0018E300188F18EC00830004188FCC
S111D08CBDCFBF32331838186E02183C18306E
S111D09A18EE02183C183018EE02183C37C687
S111D0A8051830183ABDCFBF32183839183C7D
S111D0B6183018EE02183C183018EE02183C20
S111D0C437C6051830183ABDCFE53318383991
S111D0D2183C3736C6061830183ABDCF8218FF
S111D0E03018EC0418ED0832331838313131B1
S110D0EE3139183C3736C6061830183ABDE3
S111D0FBCFA8183018EC0418ED08323318389A
S108D109313131313920
S903C0003C
