S10EC0008EB5FFBDC3BD4FCE98008C71
S111C00B9B792705A7000820F6CED10F18CE8A
S111C01980008CD129270AE60018E7000818D9
S111C0270820F1CC0000270CC39B793736CCDF
S10EC0359B79BDCF3E38BDC22120FE28
S104D10F001B
S104D110001A
S104D1110019
S104D1120018
S104D1130017
S104D1140016
S104D1150015
S104D1160014
S111C040BDCE7D06F680044F8A00CAF0373666
S111C04EF680054FED023233AA02EA033736BC
S111C05CF680064FED023233AA02EA033736AD
S111C06AF680074FED023233AA02EA03E7051F
S111C078E605F77FFF8FC300068F353839BD0C
S110C086CE7D8A18CEC29FBDCF83EC00C3CF
S111C0930006188FBDCFC02046F680044F88EB
S111C0A100C801F78004BDC040EC00C30006D7
S110C0AF188FEC00C300023C8FCC0004BDD0
S111C0BCCF2638EC00C300023736CC13883789
S111C0CA36F680004F5D2A0143BDC9D71838F1
S111C0D81838EC00C30006BDCBA120B88FC3FE
S111C0E6000A8F353839BDCE7D8A18CEC29F30
S111C0F4BDCF83EC00C30006188FBDCFC02063
S110C10246F680054F8800C802F78005BD91
S111C10FC040EC00C30006188FEC00C3000211
S111C11D3C8FCC0004BDCF2638EC00C30002DA
S111C12B3736CC02583736F680014F5D2A01B4
S111C13943BDC9D718381838EC00C30006BD42
S110C147CBA120B88FC3000A8F353839BD55
S110C154CE7D8A18CEC29FBDCF83EC00C300
S111C1610006188FBDCFC02046F680064F881A
S111C16F00C804F78006BDC040EC00C3000603
S110C17D188FEC00C300023C8FCC0004BD01
S111C18ACF2638EC00C300023736CC03E8376A
S111C19836F680024F5D2A0143BDC9D7183820
S111C1A61838EC00C30006BDCBA120B88FC32F
S111C1B4000A8F353839BDCE7D8A18CEC29F61
S111C1C2BDCF83EC00C30006188FBDCFC02094
S110C1D046F680074F8800C808F78007BDB9
S111C1DDC040EC00C30006188FEC00C3000243
S111C1EB3C8FCC0004BDCF2638EC00C300020C
S111C1F93736CC04B03736F680034F5D2A018A
S111C20743BDC9D718381838EC00C30006BD73
S110C215CBA120B88FC3000A8F353839BD86
S110C222C4FACC00233736CC00643736CC88
S10EC22F992C3736CCC085BDC64EBD2F
S111C23ACEC606F78000CC00283736CC006450
S111C2483736CC98C83736CCC0ECBDC64EBDD8
S111C256CEC606F78001CC002D3736CC00642E
S111C2643736CC98643736CCC153BDC64EBDB8
S111C272CEC606F78002CC00323736CC00640C
S111C2803736CC98003736CCC1BABDC64EBD99
S10DC28ECEC606F78003BDC5F6BD59
S10AC298C4B4CC00003939E5
S107C29F0000000097
S111C2A3BDCE7D46CC0000ED04CC0000ED02C3
S111C2B1EC00C30002188FEC083C8FCC000494
S111C2BFBDCF26388FC300068F3538183839A6
S111C2CDBDCE7D44EC0AC30002ED021AEE025F
S111C2DB18EC00E30C1AEE0218ED00EC0AC396
S111C2E90002188F18EC001AA30C240F1AEE92
S111C2F70A18EC00C300011AEE0A18ED00EC60
S111C305061AEE0A3C8FCC0004BDCF26388FFA
S111C313C300048F353818383937363C303CB7
S111C321301AEE0418EC001AEE08CDA3002426
S111C32F0DCCFFFF8FC300028F35381838394C
S111C33D1AEE0418EC001AEE08CDA300230D2E
S111C34BCC00018FC300028F3538183839EC4E
S111C35904C30002188F18EC003736EC08C33A
S111C3670002188F3233CDA300240DCCFFFF4B
S110C3758FC300028F3538183839EC04C32B
S111C3820002188F18EC003736EC08C30002D6
S111C390188F3233CDA300230DCC00018FC3D0
S110C39E00028F3538183839CC00008FC3E9
S111C3AB00028F35381838398FC300028F35E1
S107C3B938183839BB
S109FFD6C462C464C466A9
S109FFDCC468C46AC46C91
S109FFE2C46EC470C47279
S109FFE8C474C476C47861
S109FFEEC47AC47CC47E49
S109FFF4C480C482C48431
S109FFFAC486C488C48A19
S111C3BD0FC601F7103D7F10227F1024C60426
S111C3CBF710287F102D7F1002C60CF7103FCC
S111C3D9C6A0F71039CCC462FDFFD6CCC464F4
S10DC3E7FDFFD8CCC466FDFFDACCDC
S10CC3F1C468FDFFDCCCC46AFD44
S10CC3FAFFDECCC46CFDFFE0CCB5
S10CC403C46EFDFFE2CCC470FD1F
S10CC40CFFE4CCC472FDFFE6CC90
S10CC415C474FDFFE8CCC476FDFB
S10CC41EFFEACCC478FDFFECCC6C
S10CC427C47AFDFFEECCC47CFDD7
S10CC430FFF0CCC47EFDFFF2CC48
S10CC439C480FDFFF4CCC482FDB3
S10CC442FFF6CCC4B4FDFFF8CCF4
S10CC44BC486FDFFFACCC488FD8F
S111C454FFFCCCC000FDFFFEC625F7103C39EE
S111C4623B393B393B393B393B393B393B399C
S111C4703B393B393B393B393B393B393B398E
S111C47E3B393B393B393B393B393B393B3980
S111C48C37363C303C30EC04E705E605C114BD
S111C49A220EE6054F05C3FFD6188FEC0818D6
S110C4A8ED008FC300028F3538183839BD00
S111C4B5CE7D040F8EB5FF18CE1009181C00A2
S111C4C310202AF610004F8800C808F7100059
S110C4D118CE1008181D00102005E603F712
S111C4DE7FFFE6034F830001E702E703E60257
S111C4ECC10022EB20D48FC300048F353839F1
S109BFD6C462C464C466E9
S109BFDCC468C46AC46CD1
S109BFE2C46EC470C472B9
S109BFE8C474C476C478A1
S109BFEEC47AC47CC47E89
S109BFF4C480C482C48471
S109BFFAC486C488C000E7
S105D117000012
S105D119000010
S105D11B00000E
S105D11D00000C
S104D11F000B
S105D120000009
S105D122000007
S104D1240006
S105D125000004
S105D127000002
S110C4FABDCE7D087D801527037EC5EEF6BE
S110C50780154FC30001F78015CC9B05BDC6
S111C514C2A36F072050E6074F188FCC001209
S110C522BDCE1EED04C39B15188FEC04C3A1
S111C52F9B1B18ED00E6074FED02CC00121A1C
S111C53DEE02BDCE1EC39B09188FE60318E75D
S110C54B00E6074F188FCC0012BDCE1EC3B2
S111C5589B13188FCC000218ED00E6074FC3AA
S111C5660001E707E607C10625AACC0000FD88
S111C5749B6FCC9B09FD80136F072031E607F7
S111C5824F05050505ED04C3999E188FEC04C2
S111C590C399A018ED00E6074FED020505055E
S111C59E05C39990188FEC0218ED00E6074FC4
S111C5ACC30001E707E607C11425C9CC00004F
S111C5BAFD9ACECC9990FD8016CC0000373649
S111C5C8CC00323736CC9AD33736CCCD66BD94
S111C5D6C64EBDCEC6064F5D2A0143F79AD06D
S111C5E4F69AD04FBDCD69FD9AD18FC30008E1
S111C5F28F3538397D80152603BDC4B40FCCB7
S110C600C8093736CC0008BDC48C1838CCEE
S110C60DC8AA3736CC0010BDC48C1838BD47
S10CC61ACDC4FC8011FD800EFC6E
S111C623800E2603BDC4B418FE800E18E60077
S111C631F78010FC800EC30002188F18EC0076
S111C63FFD8008BE80083284EF363BBDC4B4D3
S111C64D39BDCE7D46EC10E7117D8015260325
S111C65BBDC4B4FC80132610BDC4B4CCFFFFD4
S111C6698FC300068F35381838390FFC801344
S111C677ED04FC8013C3000C188F18EC00FDBA
S111C6858013EC04C30004188FEC0EE30CC306
S111C693FFFF18ED00EC04C30006188FEC0C3A
S111C6A118ED00EC04C30004188F18EC0037E9
S111C6AF36EC04C30002188F323318ED00EC91
S111C6BD04C30008188FE61118E700EC04C34C
S110C6CB000A188FCC000018ED00EC04C329
S110C6D8000E188FCC000018ED00EC04C318
S110C6E50010188FCC000018ED00EC04C309
S110C6F20002188F18EC00FD8008EC08FD14
S10CC6FF800CBF9B75BE8008CCC1
S111C708C4B43736FC800C373686003636361D
S110C71636363636BF8008BE9B75EC04C372
S111C7230002188FFC800818ED00FC8011261F
S111C73115EC04FD8011EC04C3000C188FCC31
S111C73F000018ED007EC7DEEC04C3000818ED
S111C74D8F18E6003736FC8011C30008188FE1
S111C75B323318E1002315EC04C3000C188FD0
S111C769FC801118ED00EC04FD80117EC7DE8B
S111C777FC8011ED022030EC02C3000C188F80
S111C78518EC00C30008188FEC04C300081859
S111C7933C188F18E600183818E10023022025
S111C7A118EC02C3000C188F18EC00ED02EC2B
S111C7AF02C3000C188F18EC0026C4EC02C361
S111C7BD000C188F18EC003736EC04C3000C87
S111C7CB188F323318ED00EC02C3000C188FE7
S111C7D9EC0418ED000E1AEE0418E6004F5D95
S111C7E72A01438FC300068F35381838398F66
S111C7F5C300068F3538183839BDC4B439BDB9
S111C803CE7D08BDC4B4CC00643736EC00C34F
S111C811000418CE9B053C8FCC0004BDCF263E
S111C81F38EC00C300043736CC9B05BDC2CDF7
S111C82D18381838BDCDF9BDCC70C100235F9A
S111C83BFC800EC30002188F18EC00ED02FC06
S111C849800EC30004188FEC02CDA300220F52
S111C857FC800EC30006188FEC02CDA3002453
S111C86503BDC4B4FC800EC30002FD800ABDF6
S110C873C94CFD800E18FE800E18E600F77B
S111C8808010FC800EC30002188F18EC00FD1F
S111C88E800818FE800A18AF00BE80083BBD6B
S111C89CC4B48FC300088F353839BDCE7D0675
S111C8AAFC800EC30002188F18EC00ED04FC95
S111C8B8800EC30004188FEC04CDA300220FE1
S111C8C6FC800EC30006188FEC04CDA30024E2
S111C8D403BDC4B4FC800EC30002FD800ABD87
S110C8E2C94CFD800E18FE800E18E600F70C
S111C8EF8010FC800EC30002188F18EC00EDC0
S111C8FD02FC800EC30004188FEC02CDA300D1
S111C90B220FFC800EC30006188FEC02CDA391
S111C919002403BDC4B4FC800EC30002188FBA
S111C92718EC00FD8008183C3C36370784EFFE
S110C9353618FE800A18AF00BE80083BBD16
S111C942C4B48FC300068F353839BDCE7D04D2
S111C950FC8011ED022022EC02C3000A188FB5
S111C95E18EC00260AEC028FC300048F353853
S111C96C39EC02C3000C188F18EC00ED02EC3D
S111C97A0226DABDC4B4CC00008FC300048FC3
S111C9883538398FC300048F353839BDCE7D64
S111C99646EC00C300021AEE0C3C8FCC0004E9
S111C9A4BDCF2638EC00C300023736CC0000AD
S111C9B23736E6094F5D2A0143BDC9D7183850
S111C9C018384F8FC300068F35381838398F5A
S111C9CEC300068F3538183839BDCE7D640F8E
S111C9DCFC80162603BDC4B4E6274F5D2A0175
S111C9EA434FBDCD69ED20EC202603BDC4B43F
S111C9F8FC8016ED22FC8016C3000E188F186A
S111CA06EC00FD8016EC22C30002188F183CD1
S111CA1418FE800E18E600183818E700EC2211
S111CA22C30004188FEC2018ED00EC2A373600
S111CA30EC00C3001C18CE9B053C8FCC000408
S111CA3EBDCF2638EC00C3001C3736EC00C315
S111CA4C0018BDC2CD18381838EC00C300180D
S110CA5A188FEC22C300063C8FCC0004BDF5
S111CA67CF2638EC22C3000A1AEE2C3C8FCCEA
S111CA750004BDCF2638FC80182615EC22FDE7
S111CA838018EC22C3000E188FCC000018EDB2
S111CA91007ECB89EC00C300143736EC22C3C0
S111CA9F0006188F32333C8FCC0004BDCF2626
S111CAAD38EC00C300143736EC00C300103719
S111CABB36FC8018C30006188F32333C8FCC33
S111CAC90004BDCF2638EC00C30010BDC31C12
S111CAD71838ED026D032F15EC22C3000E1863
S110CAE58FFC801818ED00EC22FD80187EF7
S111CAF2CB89FC8018ED0E205BEC00C3000A1B
S111CB003736EC22C30006188F32333C8FCC3C
S111CB0E0004BDCF2638EC00C3000A3736EC15
S111CB1C0EC3000E188F18EC00C30006188F0D
S111CB2AEC00C300063C8FCC0004BDCF2638BF
S111CB38EC00C30006BDC31C1838ED046D05E7
S111CB462F02201BEC0EC3000E188F18EC00FB
S111CB54ED0EEC0EC3000E188F18EC00270334
S111CB627ECAFBEC0EC3000E188F18EC0037D1
S111CB7036EC22C3000E188F323318ED00ECA1
S110CB7E0EC3000E188FEC2218ED000ECC33
S111CB8B00008FC300248F35381838398FC34B
S111CB9900248F3538183839BDCE7D440FFC8A
S110CBA7800EC3000E188F18EC00260FFC42
S111CBB4800EC3000A188FCC000118ED003F5C
S111CBC20FFC800EC3000E188F18EC00ED025D
S111CBD0EC022603BDC4B4EC02C30004188FAB
S110CBDE18EC001AB3800E2703BDC4B4FC8C
S111CBEB800EC30010188FEC02CDA300261E8E
S111CBF9FC800EC3000E188FCC000018ED0057
S111CC07FC800EC30010188FCC000018ED0046
S111CC152019EC02C3000E188F18EC003736FD
S111CC23FC800EC3000E188F323318ED00ECA7
S111CC31062712EC02C3000A188FEC063C8F93
S111CC3FCC0004BDCF2638EC02C3000E188FC3
S110CC4DFC801618ED00EC02FD80160ECCE4
S111CC5A00018FC300048F35381838398FC39A
S111CC6800048F3538183839BDCE7D126F0D9B
S111CC767ECD08FC8018C30004188F18EC0053
S111CC84ED10EC102603BDC4B4EC10C3000A7E
S111CC92188FCC000018ED00FC8018ED0EFC8D
S111CCA08018C3000E188F18EC00FD8018ECED
S111CCAE10C3000E188F18EC00261AEC10C3E9
S111CCBC000E188FEC0E18ED00EC10C30010E3
S111CCCA188FEC0E18ED002020EC10C30010A3
S111CCD8188F18EC00C3000E188FEC0E18ED28
S111CCE600EC10C30010188FEC0E18ED00ECDB
S111CCF40EC3000E188FCC000018ED00E60DE4
S111CD024FC30001E70DFC80182746EC00C368
S111CD10000818CE9B053C8FCC0004BDCF2636
S111CD1E38EC00C300083736EC00C3000437BD
S111CD2C36FC8018C30006188F32333C8FCCBF
S111CD3A0004BDCF2638EC00C30004BDC31CAA
S111CD481838ED026D032E037ECC79E60D4FF4
S111CD568FC300128F3538398FC300128F350A
S111CD64383920FE3937363C303C30EC04E7D9
S111CD7205E605C1062503BDC4B4E6054F1849
S111CD808FCC0012BDCE1EC39B13188F18EC6F
S111CD8E001A830002260DCC00008FC30002A1
S111CD9C8F3538183839E6054F188FCC001241
S111CDAABDCE1EC39B098FC300028F353818FF
S110CDB838398FC300028F3538183839BD63
S111CDC5CE7D04CC07D018CE0064BDCE1EED8A
S111CDD302FC100EE302FD101818CE102218F8
S111CDE11C0040C640F7102318CE1020181D69
S111CDEF00C08FC300048F353839BDCE7D04DB
S110CDFDCC07D018CE0064BDCE1EED02FCA4
S111CE0A1018E302FD1018C640F710238FC362
S109CE1800048F353839D7
S111CE1E3C183C37363C3C30CC0000ED00A6FE
S111CE2C05E6073DED02A605E6063DE301ED31
S111CE3A01A604E6073DE301ED016900A6042C
S111CE48E6063DE300ED001838323338383882
S104CE56399E
S111CE571838181F00400237363C3018EC0023
S111CE65843F37368F30A3008F35EF00181F3F
S111CE730080043C3C3C3C186E021838181F2A
S111CE8100400237363C3018E6004FC43F37FD
S111CE8F368F30A3008F35EF00181F0080048B
S111CE9D3C3C3C3C186E0118303736188FC3ED
S111CEAB0001183018EE0218E300188F32331D
S111CEB9183C183018AE0018EE02186E02185D
S111CEC7303736188FC30001183018EE0218E9
S111CED5EB008900188F3233183C183018AE69
S111CEE30018EE02186E01183C183C37361881
S111CEF13018EC0618ED04EC0218ED0632338E
S111CEFF183839183C3736183018EC06ED0296
S111CF0D18EC0418ED0618EC0218ED0418ECEC
S10ECF1B0018ED0218383233183839C2
S111CF261A83000027113718E600E700338352
S10DCF340001270508180820EF3952
S111CF3EBDCE7D46EC08ED041AEE04FC9B7794
S111CF4C18ED00EC04FD9B77EC08C30006ED25
S111CF5A02EC0CA3023736EC04C30004188F5B
S111CF68323318ED00EC04C30002188FEC0CF9
S110CF7618ED008FC300068F3538183839C8
S111CF8337368F8300088F18EC00ED0418EC8D
S111CF9102ED06C6083A323339373618EC0082
S111CF9FED0418EC02ED0632333937368F8379
S111CFAD00088F18EC00ED0018EC02ED02C62F
S111CFBB083A32333937368F8300088FEC047E
S111CFC918ED00EC0618ED02C6083A323339B2
S111CFD73736EC0418ED00EC0618ED02323388
S111CFE53937368F8300088FEC0018ED00EC0E
S111CFF30218ED02C6083A32333937368F83FE
S111D00100088FEC04ED00EC06ED02C6083AC0
S111D00F32333937368F8300088F6F046F0574
S111D01D3233ED062C0463046305C6083A3969
S111D02B37368F8300088F6F006F013233EDAC
S111D039022C0463006301C6083A3937368FAF
S111D0478300088F3233ED066F046F05C608B0
S111D0553A3937368F8300088F3233ED026F7D
S111D063006F01C6083A398F8300088FEC066F
S111D07137C6083A33393736183018EE02EC59
S111D07F0018E300188F18EC00830004188FCB
S111D08DBDCFC032331838186E02183C18306C
S111D09B18EE02183C183018EE02183C37C686
S111D0A9051830183ABDCFC032183839183C7B
S111D0B7183018EE02183C183018EE02183C1F
S111D0C537C6051830183ABDCFE6331838398F
S111D0D3183C3736C6061830183ABDCF8318FD
S111D0E13018EC0418ED0832331838313131B0
S110D0EF3139183C3736C6061830183ABDE2
S111D0FCCFA9183018EC0418ED083233183898
S108D10A31313131391F
S903C0003C
