:100000000C948A020C947A000C947F000C94840067
:100010000C9489000C948E000C9493000C9498001E
:100020000C949D000C94A2000C94A7000C94AC00BE
:100030000C94B1000C94B6000C94BB000C94C0005E
:100040000C94C5000C9454050C94CF000C94D4006F
:0C0050000C94D9000C94DE000C94E3002A
:10005C00510A802A0000000A510A00005955180163
:10006C00111E111B500B411B411F1101511F511B24
:10007C000000000000000000000000000000510F14
:10008C00913941149131411E410E411D500F802078
:10009C00101548864014780570855115510E5195F0
:1000AC00518E219081205015484450C528C02820DD
:1000BC0009500000000000000000000012E0A1EA5E
:1000CC00B2E0E4E9F0E103C0C89531960D92A23A92
:1000DC00B107D1F714E0A2EAB2E001C01D92AB3433
:1000EC00B107E1F70C94EC0080E290E00E94B901BA
:1000FC00089581E290E00E94B901089582E290E0B7
:10010C000E94B901089583E290E00E94B90108951C
:10011C0084E290E00E94B901089585E290E00E948B
:10012C00B901089586E290E00E94B901089587E232
:10013C0090E00E94B901089588E290E00E94B90114
:10014C00089589E290E00E94B90108958AE290E056
:10015C000E94B90108958BE290E00E94B9010895C4
:10016C008CE290E00E94B90108958DE290E00E942B
:10017C00B90108958EE290E00E94B90108958FE2D2
:10018C0090E00E94B901089580E390E00E94B901CB
:10019C00089581E390E00E94B901089582E390E014
:1001AC000E94B901089583E390E00E94B90108957B
:1001BC0084E390E00E94B901089585E390E00E94E9
:1001CC00B901089586E390E00E94B901CFEFD4E025
:1001DC00DEBFCDBF0E9408020E9413032EE040E850
:1001EC0050E062E473E085E891E00E946D03809337
:1001FC00C00223E640E850E062EC72E084E191E05A
:10020C000E946D038093C1020E94C70380E490E0BA
:10021C000E94B90180E090E00C944A081F93CF93A0
:10022C00DF9310E861E082EA92E00E944B060E94A4
:10023C00CC056DE280E00E9452026DE281E00E94EA
:10024C00520261E482E00E9452026CE483E00E945C
:10025C00520261E484E00E9452026EE485E00E9446
:10026C00520289E090E00E942D07BC0120E030E0B2
:10027C00A9018091C0020E94760683E00E9462046C
:10028C00C82F81FF1CC01F5F812F992792958295E3
:10029C008F7089279F708927682F8A3010F4605DD2
:1002AC0001C0695C80E00E945202612F6F706A305D
:1002BC0010F4605D01C0695C81E00E945202C0FFD5
:1002CC00DCCF82EA92E00E94E506EC010E946A060D
:1002DC00019761F489E090E00E942D07BC0120E0B9
:1002EC0030E0A9018091C0020E947606CE010E94E6
:1002FC00760762E08091C1020E94AB04BECF0F93DF
:10030C001F93CF93DF93CDB7DEB721970FB6F89439
:10031C00DEBF0FBECDBF62E08AEA92E00E944B06C0
:10032C000E94CC058AEA92E00E94D8068C010E94B9
:10033C006A06892BA1F4198289818F5F898389814F
:10034C008823D1F789E090E00E942D0720E030E06F
:10035C0041E050E0BC018091C1020E947606C801C8
:10036C000E947607DFCF0F931F93CF93DF93CDB708
:10037C00DEB721970FB6F894DEBF0FBECDBF8C0150
:10038C00F89465E480E00E94520262E581E00E94EC
:10039C00520262E582E00E945202812F9927682F57
:1003AC006F706A3010F4605D01C0695C83E00E947C
:1003BC005202C801807F9070929582958F70892728
:1003CC009F708927682F8A3010F4605D01C0695CCA
:1003DC0084E00E945202602F6F706A3010F4605DEE
:1003EC0001C0695C85E00E945202198289818F5F8D
:1003FC0089838981FBCF0895F894FFCF8F70809308
:10040C00E70008958FE00E94040287EB8093E500DB
:10041C0087E08093E60080EC8093E4008091E40018
:10042C0088608093E4000E941C020895ECEEF0E0DA
:10043C0080E090E01192019684319105DCF30895EF
:10044C0008950895982F80FF02C03FE001C030EF5F
:10045C00892F8695E82FFF27E451FF4F40E050E0AD
:10046C00892F9927DC01A170B070262F2F707295FF
:10047C0062956F7067277F706727109711F0229530
:10048C00207F80818323822B808335964F5F5F4F43
:10049C004430510554F30895282F862F8A52813504
:1004AC0088F4613608F06F7D6A52862F9927880F81
:1004BC00991FFC01E45AFF4F85919491BC01822F46
:1004CC000E94280208951F93CF93DF93EC0110E054
:1004DC008881882311F460E202C08991682F812FF2
:1004EC000E9452021F5F163098F3DF91CF911F913B
:1004FC00089578941F920F920FB60F9211240F90BB
:10050C000FBE0F901F901895F89411241FBE80EA0F
:10051C0092E09EBF8DBF80E88093610010926100D5
:10052C0080BF87E080937F008FE085B980EF8EB924
:10053C00259A0C9464009C011092800089E08093B1
:10054C00810088EE93E0289FA001299F500D389FD1
:10055C00500D1124509389004093880080916F00B6
:10056C00826080936F000895FC01108211821282C8
:10057C001382148215820895FC01808191819B0164
:10058C00280F391F208331832817390718F02617B5
:10059C00370760F482819381019682839383892B40
:1005AC0029F4848195810196848395830895089517
:1005BC00CF93DF93EC0143E050E041505040CA012F
:1005CC00840F951FFC01EC0FFD1FDC01A60FB71F5C
:1005DC00208131818D919C912817390718F48FEF68
:1005EC009FEF18C0CA01840F951FFC01EC0FFD1F73
:1005FC00DC01A60FB71F208131818D919C91821750
:10060C00930718F481E090E005C014161506ACF2BF
:10061C0080E090E0DF91CF9108958091B8029091A5
:10062C00B902892B21F081E090E00E94B90120E011
:10063C0064E274E04DE050E0822F9927849FF00132
:10064C00859FF00D949FF00D1124E60FF71F20836A
:10065C00249FC00111248F5C9B4F838794872F5F4D
:10066C00233050F38EE394E09093B7028093B6025C
:10067C004A9790934A048093490410923D04109237
:10068C003C040E9418070E94BE0720E0822F992785
:10069C00FC01E55EFB4F10822F5FC1F381E090E01F
:1006AC009093B9028093B80220E048E550E063ECE7
:1006BC0073E08CE196E00E946D038093C20368E0C6
:1006CC000E94210690931D0480931C040895AF9200
:1006DC00BF92CF92DF92FF920F931F93CF93DF9332
:1006EC005C018B016A01F22E8091B8029091B902E3
:1006FC00892B21F484E090E00E94B9018091B6022C
:10070C009091B702892B21F485E090E00E94B90109
:10071C008FB7282F332720783070F894C091B60209
:10072C00D091B7028B859C859093B7028093B602CB
:10073C00232B09F07894C8018C0D9D1DFC01319779
:10074C00EB83FC830D831E83F886FF8219861A8641
:10075C00A0823197B0821292129212927F97E98303
:10076C00FA836F2DCE010E94DD0488819927DF91D9
:10077C00CF911F910F91FF90DF90CF90BF90AF90D2
:10078C0008958091B8029091B902019721F082E00E
:10079C0090E00E94B90182E090E09093B9028093BE
:1007AC00B8028091B4029091B5029093B3028093F9
:1007BC00B202892B21F486E090E00E94B901F894F2
:1007CC00E091B202F091B302818192819EBF8DBF04
:1007DC00FF91EF91DF91CF91BF91AF919F918F914D
:1007EC007F916F915F914F913F912F911F910F913D
:1007FC00FF90EF90DF90CF90BF90AF909F908F9035
:10080C007F906F905F904F903F902F900F900FBE06
:10081C000F901F90189588E090E00E94B901089500
:10082C0061E00E942106FC018085992708951F93A1
:10083C00CF93DF93162F62E00E942106EC0188858E
:10084C00811749F0CE010E9401051F831887612F83
:10085C00CE010E94DD04DF91CF911F9108951F936B
:10086C00CF93DF93162F63E00E942106EC0188855D
:10087C00811741F0CE010E9401051887612FCE012E
:10088C000E94DD04DF91CF911F910895CF93DF93E8
:10089C0064E00E942106EC0198858F81981749F03D
:1008AC00CE010E9401058F818887682FCE010E949E
:1008BC00DD04DF91CF910895CF93C82FE091B20260
:1008CC00F091B3028187E091B202F091B30282857C
:1008DC008C2311F40E94D404E091B202F091B30283
:1008EC0011868FB7282F332720783070F894E09139
:1008FC00B202F091B30292854C2F4923842F80953C
:10090C0089238287232B09F07894842F9927CF9100
:10091C000895982FE091B202F091B3028285892B51
:10092C0082870895E091B202F091B302982F9095CE
:10093C008285892382870895982FE091B202F091E5
:10094C00B30282858923992708951F93162F65E09A
:10095C000E942106FC018285812B8287818581235F
:10096C0011F00E94D4041F9108951F93162F66E076
:10097C000E942106FC018285812B82871F9108959C
:10098C00E091B202F091B30280819927089567E05B
:10099C000E942106FC01878199270895F8948FE025
:1009AC008093B90082E48093B80078940895CF9333
:1009BC00DF93EC018FB7282F332720783070F89411
:1009CC00A4EBB2E0E091B402F091B502309749F09B
:1009DC008085861730F0DF011B960384F485E02DAB
:1009EC00F5CFEB87FC87CD93DC93232B09F0789420
:1009FC00DF91CF910895CF93DF93DC018FB7282F30
:100A0C00332720783070F8948091B4029091B5021D
:100A1C00FC018A179B0751F4838594859093B5024A
:100A2C008093B402FC018A179B07B1F3E091B402E6
:100A3C00F091B502309789F0838594858A179B07CE
:100A4C0039F41B968D919C911C978387948703C0D6
:100A5C000384F485E02D309779F7232B09F07894F3
:100A6C00DF91CF910895E091B402F091B5023097E7
:100A7C0071F08185882321F081859285892311F07D
:100A8C00CF0108950384F485E02D309791F787E02A
:100A9C0090E00E94B90180E090E008951F920F92BF
:100AAC000FB60F9211242F923F924F925F926F923A
:100ABC007F928F929F92AF92BF92CF92DF92EF92E2
:100ACC00FF920F931F932F933F934F935F936F93CB
:100ADC007F938F939F93AF93BF93CF93DF93EF93BA
:100AEC00FF938091B2029091B3029C012F5F3F4F14
:100AFC00309323042093220490931F0480931E04AC
:100B0C000E943905FC019093B3028093B20280914C
:100B1C001E0490911F04E817F907A9F01D9A818112
:100B2C0092819093210480932004E0912204F0910F
:100B3C0023048DB79EB7808391838091200490917C
:100B4C0021049EBF8DBFFF91EF91DF91CF91BF919B
:100B5C00AF919F918F917F916F915F914F913F9149
:100B6C002F911F910F91FF90EF90DF90CF90BF903E
:100B7C00AF909F908F907F906F905F904F903F9031
:100B8C002F900F900FBE0F901F9018950E94C604C7
:100B9C00482F46954695469599279C0127703070AD
:100BAC0081E090E002C0880F991F2A95E2F7282F68
:100BBC008091B8029091B902039758F4842F992729
:100BCC00FC01E55EFB4F8081822B808380E80E94D4
:100BDC00620408950F931F93CF93C0E011E00C2F84
:100BEC008C2F9927FC01E55EFB4F8081812321F03E
:100BFC0060E8802F0E94BB04C03819F08C2F880F3E
:100C0C0001C081E0C82F812F9927C13009F40196CA
:100C1C00182F0F5F023020F383E090E09093B9021D
:100C2C008093B802CF911F910F9108950E94F00507
:100C3C000E94D404FFCFCF93C82F833030F0862F7F
:100C4C00992780569F4F0E94B9018DE0C89FC00123
:100C5C0011248C5D9B4FCF910895282FFB01992770
:100C6C00880F991FDC01A654BD4F8D919C91119753
:100C7C00892B11F46D937C93108211821282138252
:100C8C0014821582268347830895FF920F931F9336
:100C9C008C01F62E0E94C6044F2DB8010E9433061B
:100CAC001F910F91FF9008950F931F938C010E9439
:100CBC00C6049927880F991FFC01E654FD4F008349
:100CCC0011831F910F910895FC01838194810895E4
:100CDC00FC01858196810895FC01808199270895F6
:100CEC009927880F991FFC01E654FD4F8081918153
:100CFC000E9481060895CF92DF92EF92FF920F939C
:100D0C001F93CF93DF938C01EB017A016901892B3F
:100D1C0021F48BE090E00E94B901209721F48AE045
:100D2C0090E00E94B901EB82FC82CD82DE820E94AF
:100D3C00C604888309831A838FB7282F332720781A
:100D4C003070F894F80182819381892B39F4C28335
:100D5C00D383C483D58381E090E00DC0F801A481D6
:100D6C00B5811796CD93DC931897F801C483D5837E
:100D7C00808191810196808391831F821886232B19
:100D8C0009F07894F801678186810E94BB040E9467
:100D9C00D404DF91CF911F910F91FF90EF90DF90D2
:100DAC00CF9008950F931F938C01FC0187810E94B3
:100DBC006204C8010E94E5061F910F9108950F93DC
:100DCC001F93CF93DF93FC01C281D381209721F134
:100DDC008FB7082F112700781070F89484819581B3
:100DEC00C817D90739F41282138214821582108223
:100DFC0011820DC08F81988582839383808191812C
:100E0C00019780839183678186810E94BB041F8236
:100E1C001886012B09F07894CE01DF91CF911F91A8
:100E2C000F91089520E030E043E0C901820F931F39
:100E3C00FC01E654FD4F10821182F901E254FD4F82
:100E4C0040832F5F3F4F223031057CF30895CF93C1
:100E5C00DF93DC01009709F440C040E050E0CA0188
:100E6C00880F991F880F991F880F991FFC01E0505C
:100E7C00FF4F828193818A179B0740F166817781AE
:100E8C006115710519F18FB799279C012078307085
:100E9C00F894EB018A819B81868397838481958169
:100EAC00019684839583232B09F07894CA01880FCB
:100EBC00991F880F991F880F991F80509F4F8A8305
:100ECC009B83A883B983CE01049607C04F5F5F4F05
:100EDC004230510520F280E090E0DF91CF910895EF
:100EEC00CF93DF930097F1F0DC0114971296ED91FC
:100EFC00FC9113978FB7282F332720783070F894F4
:100F0C008681978112968D939C931397A683B783B2
:100F1C0084819581019784839583232B09F07894A0
:100F2C001D921C92DF91CF910895CF93DF93DB013B
:100F3C0082309105D0F4880F991F880F991F880F64
:100F4C00991FFC01E050FF4F808191818D939C9300
:100F5C0011978281938112968D939C931397848120
:100F6C00958114968D939C931597DF91CF9108954D
:100F7C00AF92BF92CF92DF92EF92FF920F931F939B
:100F8C00CF93DF93CDB7DEB728970FB6F894DEBFBB
:100F9C000FBECDBF84E190E089839A8388E190E015
:100FAC008B839C8388E090E08D839E8385E090E02A
:100FBC008F839887A0E1B1E000E010E05C01AC0EFB
:100FCC00BD1E6E010894C11CD11C0F2EF0E0EF2E3B
:100FDC00F1E0FF2EF02DA801440F551F440F551FB3
:100FEC00440F551FBA0160507F4FC801800F911FED
:100FFC00FC01EA0DFB1D20813181FB012083318333
:10100C00FC01EC0DFD1D80819181FB01828393839A
:10101C0014821582FA01EE0DFF1DA683B7831216FA
:10102C001306CCF4AD011D921C9211971496FB0182
:10103C0082819381A80FB91F2130310521F4FA0167
:10104C001282138203C0FA01A283B3832150304071
:10105C00121613063CF30F5F1F4F023011050CF4F0
:10106C00BACF28960FB6F894DEBF0FBECDBFDF9176
:10107C00CF911F910F91FF90EF90DF90CF90BF9089
:08108C00AF9008950C94E800F8
:040000030000005C9D
:00000001FF
