S00D000070726573746F2E7331394A
S1138000CE7FFFF6C000E70039308FC3FFEF8F3516
S113801030E70D6F0F6F0EE60FE71018CE008018D3
S11380203CCE00193C183018EE12183CC606303A03
S11380308FBD952B383838202ECC0080BD9B68DD51
S1138040002724CC0080BD9B5C306C10E610C1047A
S1138050260A6F101AEE0E18081AEF0EF6C000303A
S1138060E80DF7C0008D99183018EC0ECDA3132538
S1138070C88F308FBD95CCCC0080BD9B5C30E60DA5
S113808053F4C000F7C000BD800030C6113A353942
S11380903430E70018CE0040183CCCC72EBD939076
S11380A030EE053C183018E604BD8009CCC72EBD5F
S11380B093A2383831393C306F016F0018CE00027A
S11380C0183CCCC13CBD970ECE00FF3CF6C75BBD4F
S11380D09B70CC00FFBD9AE818CE00FF183CF6C791
S11380E04CBD9B70CC00FFBD9AE8CE00FF3CF6C7A8
S11380F05DBD9B70CC00FFBD9AE818CE00FF183C14
S1138100F6C75ABD9B70CC00FFBD9AE8308FC30000
S11381100A8F3530EE003C18CE0001183CCCC72E37
S1138120BD9221CC0009BD8F008F18CE0000183CF1
S113813018CE0001183C3CF6C75ABD976ACC00091A
S1138140BD8F008F18CE0000183C18CE0004183CD8
S11381503CF6C75DBD976ACC0009BD8F008F18CE71
S11381600000183C18CE0007183C3CF6C74CBD97DD
S11381706ACC0009BD8F008F18CE0000183C18CEC1
S1138180000A183C3CF6C75BBD976ACE00013CCCA4
S11381903A98BD959ECE00001830C61E183A183580
S11381A0183018EC002603CE00011830CDEF007E05
S11381B081133C3C3C306F016F00CC00FFBD9AE85A
S11381C018CE0002183CCCC145BD970ECE00FF3C32
S11381D0F6C74DBD9B703838CC0003BD9AE830ED2E
S11381E002C5022753CCC145BD983F183018ED0491
S11381F0BD975D1A83000127081A830002272620F1
S11382002FCC000DBD8F0030ED0018CE0001183CBE
S1138210CE00003C18CE0BB8183C30EC06BD952BB4
S1138220383838200BCE00053CC60FBD80093131EB
S1138230183018EC04BD8FFF183018EC02C5012764
S11382409718EC00BD8FFFCE000A3CC601BD80909C
S1138250313120843CCC00FFBD9AE8CE00023CCCF6
S1138260C14EBD970E18CE00FF183CF6C74DBD9BFE
S1138270703838CCC14EBD982E30ED00BD975D1AD4
S113828083000427081A830005271B203618CE0014
S113829001183CCC0FA0BD959ECE00323CC602BD59
S11382A080093838201DCC0009BD8F008F18CE00FE
S11382B000183C18CE0002183C3CF6C75ABD976A19
S11382C038383830EC00BD8FFF20A83CCC00FFBD0F
S11382D09AE8CE00023CCCC157BD970E18CE00FFE1
S11382E0183CF6C74DBD9B703838CCC157BD982E8D
S11382F030ED00BD975D1A83000727081A83000834
S1138300271B203618CE0001183CCC03E8BD959EEF
S1138310CE00323CC604BD80903838201DCC000904
S1138320BD8F008F18CE0000183C18CE0005183CF5
S11383303CF6C75DBD976A38383830EC00BD8FFF16
S113834020A8308FC3FFEF8F35CC00FFBD9AE8CE55
S113835000023CCCC160BD970E18CE0010183CCE74
S1138360007D3C18CE0001183CC608303A8FBD95FC
S11383702B18CE00FF183CF6C74DBD9B70306F180C
S11383806F17308FC3000A8F35CC0010BD9AE820D8
S11383900630EC0FBD8FFFCCC160BD983F1830187C
S11383A0ED0F8F8C000026E9F6C000C808F7C00066
S11383B0BD80001830CDEE0D08CDEF0D8C001926D0
S11383C0C818EC0F18ED0DCC0009BD8F008F1830C4
S11383D018EE0D183C18CE0008183C3CF6C74CBDEE
S11383E0976A38383820A23C3C3C30ED004F5FEDB2
S11383F004ED021AA3082C5A1830CDEE008F18E3AE
S1138400028F188F4FE600188FC6023734CEC71A72
S11384103C188FBD8C9DCCC71ABD889E1830CDEEFC
S11384200808CDEF08183818388C000F2E08CCC077
S113843001BD889E200ECCC003BD889E1830186FE5
S113844005186F04301AEE0218081AEF021AAC0865
S11384502DA630EE042706CCC006BD889ECCC009EC
S1138460BD889E383838393C306F016F0018CEC74C
S11384704E183C30EC02BD9079CCC00CBD889EC631
S113848014373418CEC71A183C30EC06BD8BDECC3A
S1138490C71ABD889ECCC012BD889ECCC015BD88AD
S11384A09ECCC01BBD889ECCC020BD889EC6143700
S11384B03418CEC71A183CFCC758BD8BDECCC71A7B
S11384C0BD889ECCC027BD889EC614373418CEC73D
S11384D01A183CFCC750BD8BDECCC71ABD889ECC95
S11384E0C029BD889ECCC02CBD889ECCC039BD8817
S11384F09ECCC03EBD889EC614373418CEC71A1809
S11385003CFCC752BD8BDECCC71ABD889ECCC0458F
S1138510BD889EC614373418CEC71A183CFCC756FB
S1138520BD8BDECCC71ABD889ECCC047BD889EC615
S113853014373418CEC71A183CFCC74EBD8BDECC9A
S1138540C71ABD889ECCC049BD889ECCC04CBD888E
S11385509EC614373418CEC71A183CFCC754BD8BBA
S1138560DECCC71ABD889ECCC061BD889ECCC064D9
S1138570BD889E308FC3001E8F35301AEE00180858
S11385801AEF00188C00012E037E846DCCC067BDE9
S1138590889E38393CCE00013C18CE0002183CF6C7
S11385A0C75CBD880ECCC06ABD889ECCC078BD882F
S11385B09E188F4FF6C74D188FC6143734CEC71A7E
S11385C03C188FBD8BDECCC71ABD889ECCC082BD43
S11385D0889ECCC085BD889E188F4FF6C75A188FC9
S11385E0C6143734CEC71A3C188FBD8BDECCC71ADD
S11385F0BD889ECCC08FBD889ECCC092BD889E187D
S11386008F4FF6C75D188FC6143734CEC71A3C187F
S11386108FBD8BDECCC71ABD889ECCC09CBD889E06
S1138620CCC09FBD889E188F4FF6C74C188FC614B8
S11386303734CEC71A3C188FBD8BDECCC71ABD8821
S11386409ECCC0A9BD889ECCC0ACBD889E188F4F5F
S1138650F6C75B188FC6143734CEC71A3C188FBDC3
S11386608BDECCC71ABD889ECCC0B6BD889ECCC05C
S1138670B9BD889E188F4FF6C75C188FC61437345F
S1138680CEC71A3C188FBD8BDECCC71ABD889ECCD2
S1138690C0C3BD889E18CE0004183CCC01F4BD951F
S11386A09ECCC0C6BD889ECE00403CCCC75EBD8378
S11386B0E71830186F21186F20308FC300208F35D2
S11386C0BD8467CE00043CCC01F4BD959E313118C5
S11386D03018EC0037363808CDEF001A8300052235
S11386E07005C39FA7188FCDEE006E00CCC0D7BD18
S11386F0889ECE00A03CCCC349204FCCC0E5BD88A9
S11387009E18CE00A0183CCCC2A9203ECCC0F3BD1C
S1138710889ECE00A03CCCC209202FCCC101BD88CC
S11387209E18CE00A0183CCCC169201ECCC10FBD40
S1138730889ECE00A03CCCC3E9200FCCC11DBD88CF
S11387409E18CE00A0183CCCC489BD83E7313120EB
S11387500BCCC12BBD889E306F016F0018CE000476
S1138760183CCC01F4BD959E31317E86C0BD80009D
S1138770BD98DCC60E373418CE00A0183CCEC349D1
S11387803CCC81B2BD9959F7C75AC60D373418CEBF
S113879000A0183CCEC2A93CCC8254BD9959F7C75D
S11387A05DC60C373418CE00A0183CCEC2093CCCB0
S11387B082CBBD9959F7C74CC60B373418CE00A0ED
S11387C0183CCEC1693CCC8342BD9959F7C75BC6FE
S11387D063373418CE00A0183CCEC3E93CCC80B635
S11387E0BD9959F7C74DC632373418CE00A0183C8E
S11387F0CEC4893CCC8594BD9959F7C75C30C62456
S11388003A35BD9A2CCC0021BD9D7D4F5F39343063
S1138810E700CE102C5FE700CE102BC630E7008DAA
S11388202430E600F7C64BEC03FDC64CEE05FFC64C
S11388304ECE89203CC600BD9F1ECE102DC6ACE78F
S11388400031313139CE00103C18CEC541183CCC32
S1138850C529BD89CECE00FA3C18CEC551183CCCF2
S1138860C535BD89CE38383838393430E70030E67C
S1138870003734CCC535BD8A503131DD002614CEE5
S1138880102D1C0080FCC64CBD9B5CFCC64CBD9AE4
S1138890E820DB31398DD3CE102D1C0080393C30DB
S11388A0ED00188F18E600271430EE00E6008DBAAC
S11388B01830CDEE0008CDEF006D0026ECCE102D63
S11388C01C008038398F3CCCC529BD8A0ACE102DB6
S11388D01C00203131393C3C188F306F016F001A75
S11388E0EF0220091830CDEE0008CDEF0018301843
S11388F0EE02183C301AEE0418081AEF04CCC5290D
S1138900BD8A0A3131DD002709304FE6071AA3007A
S11389102ED2CE102D1C0020183018EC0038383917
S1138920DE463CDE003CDE023CDE043C3C3C349F44
S113893046DE464F5FED04ED02202ADE46083CCCBD
S1138940C535BD8A0A3131DD002712DE46E601CE87
S1138950102FE700CC0001DE46ED022008CE102DDA
S11389601D00802021CE102EE600C48026CD2016C6
S1138970CE102FE6003734CCC529BD8A50CC000177
S1138980DE46ED043131CE102EE600C42026E1DEB1
S113899046EE022717CCC5358D6C1A83000F220CC6
S11389A0FEC64C3CF6C64BBD9B703131DE46EC0432
S11389B0270CFEC64E3CF6C64BBD9B703131383891
S11389C03138DF0438DF0238DF0038DF463B188FE8
S11389D018DF041830CDEE0218DF0218DE04CDEFE4
S11389E0003C3233DF04DE02E304C3FFFF18ED0270
S11389F0DE04CDEF04CDEF06DE02EE04CDEF081861
S1138A006F0B186F0A398FEC0A393C188F3018DF56
S1138A10041AEE0418DF0218DE0418EC0A272F07E4
S1138A200FED00CDEE06E600DE02E70018EC06C30B
S1138A30000118ED06CDA3022306CDEE00CDEF060E
S1138A40CDEE0A09CDEF0A30EC0006CC000138392E
S1138A503C188F18EC0ACDA30825044F5F20360775
S1138A600F30ED00DF02CDEE04DF04DE02E605DEAA
S1138A7004E70018EC04C3000118ED04CDA302239D
S1138A800618EC0018ED04CDEE0A08CDEF0A30EC20
S1138A900006CC00013839C1202604CC0001394F2E
S1138AA05F393430E700CBD0C109230AE600C12D79
S1138AB02704C12B2605CC000120024F5F3139CB9E
S1138AC0D0C1092204CC0001394F5F393430E700AA
S1138AD0CBD0C1092310E600CBBFC1052308E600B3
S1138AE0CB9FC1052205CC000120024F5F3139CB59
S1138AF0D0C10922024F394F5F393C3C3C3C3C1801
S1138B008F306F0018E600C1202617306C00DF029A
S1138B10183C38DF04DE02E600DE043AE600C12039
S1138B2027E930E6006F05E706DF02183C3818DF56
S1138B300418DE028F18E3058FE60018DE04C12D49
S1138B402604C6FF200BC601DD048F308FDD02DC56
S1138B5004DE02E7093018DF00DC00E305ED07DD81
S1138B6002DE02E600C12D2704C12B2603306C006F
S1138B70DF04306F026F01DF02DE04202830EC01D5
S1138B800505E30105DF02183C3818DF0418DE028E
S1138B908F18E3038FEB008900C3FFD018ED011891
S1138BA06C0018DE04DE02E6006F03E704183C38AC
S1138BB018DF0418DE028F18E3038F18DE04E600C2
S1138BC0CBD0C10923B718304F18E6092A014A1837
S1138BD0ED05CDEE01BD9F6A3838383838393C3C54
S1138BE0DD02306F00DD002A1A5FE109240CC62D76
S1138BF01AEE0618E700C601E700DC024353C3007F
S1138C0001DD0218CE0001DE028C0009236B18DF9F
S1138C1000DC00050518DF00D30005DD0018DE00C8
S1138C20050518DF00D300051A930223E1204ADC6E
S1138C300218DF00DE00028F30E7014F183C38BD18
S1138C409F6A18DF0418DE02DD00188F9300188F66
S1138C5030E60018DF0218DE04E1092413EC06EB09
S1138C60008900ED02E601CB30EE02E700306C0033
S1138C70188FCE000A028F188F188C000026B018A7
S1138C803018E60018E1092406CDEE063A6F001804
S1138C9030CDEE0618E6093A6F003838393C3C18F6
S1138CA08F30E609E700DF023CDE02E6093827528E
S1138CB018DF00D601C40F18DF04183018E70118B4
S1138CC0EC0618EB0089008F09CDEF0218E60118B5
S1138CD0DE04C1092206CB30E700200DDF0430E6B4
S1138CE001CB37EE02E700DE04188F0404040418F5
S1138CF08FDF04306A00DF02DE043CDE02E6003867
S1138D0026AE1830CDEE0618E6093A6F0038383929
S1138D103430E700CBD0C10922034F202230E600D3
S1138D20CBBFC1052207E600CBC94F201230E600B5
S1138D30CB9FC1052207E600CBA94F20024F5F312C
S1138D40393C3C3430ED006F046F03201A30EE00E0
S1138D50E6008DBC30E702C1102718EC03050505B9
S1138D6005EB028900ED0330EE00E600BD8ACCDDA0
S1138D700026DA30EC03383831393C3430ED001851
S1138D80DF041AEE056F025F18DF0218DE04E10843
S1138D90243B3CDE02E60038273318304F18E60245
S1138DA0301AEE00DD00188FD300188FDE02DD00CC
S1138DB08FD3008FE60018E7001830186C0218E60D
S1138DC00218E1082407DE023AE60026CD1830CD69
S1138DD0EE0018E6023A6F003831393C3C3C3C3036
S1138DE0ED00CC0001ED026F056F041830CDEE00EC
S1138DF08F18E3048FCDEF06E6002728CDEE022777
S1138E0011BD8A97DD0027111830186F03186F02FF
S1138E102007BD8A97DD00270B301AEE0418081AC4
S1138E20EF0420C730EC0638383838393C3C3C3045
S1138E30ED006F036F021830CDEE008F18E3028F40
S1138E40CDEF04E600BD8A97DD00270B1830CDEE88
S1138E500208CDEF0220DF183018EC043838383916
S1138E608F4F5FED00ED02ED0439188F3018DF04E9
S1138E701AEE0218DF0218DE0418EC003736381830
S1138E80DE0218DF008FD3008F18DE04CDEF00DD83
S1138E90009C0025049C02241218EC02C300011853
S1138EA0ED022607CDEE0408CDEF0439393C3C3CF5
S1138EB030ED00CC0003DD02DE02093C323305183C
S1138EC030DF02CDEE00DD008FD3008FCDEF02182E
S1138ED0E30818ED043C1838CDEE00188F18EC00A8
S1138EE0DD009C002405CCFFFF2011DD009C002345
S1138EF005CC00012006DE022EBE4F5F383838391B
S1138F00308FC3FFF48F3530ED0A26037E8FF718B8
S1138F1030186F07186F06DD04CCC79E18ED04DC0B
S1138F200418CEC7A018EC00DD048F308FDD02DCFE
S1138F30043CDE021AA30A3824037E8FCECDEE044D
S1138F4018DF0418DE02CDEF083C323318DE04DDEE
S1138F5000277B070F18DE0218ED00CDEF0618DEA0
S1138F6004DF02EE02CDEF04CDEE0208CDEF0218CD
S1138F703018EC000618EC04CDEE06ED0218EC0AED
S1138F80ED0018EC06C3000418ED0218DE0418EC1A
S1138F9002CDA308230318ED08DF0430EC0ADE0435
S1138FA0CDA30A230318ED0A18EC0630E30A18EDE2
S1138FB006EC0ACDA300240F1830CDEE02DD008F9D
S1138FC0D3008FC655E700183018EC022029188FFB
S1138FD0C3000E188F18DF04183018EC04C3000EF9
S1138FE018ED04CDEE0608CDEF0618DE048C000162
S1138FF022037E8F254F5F308FC3000C8F35393CA1
S11390003C3CDD02276FC3FFFC183018ED043736F3
S113901038EE02CDEF02188FCDEE00183018EE02B4
S1139020CDAC02241618DE0218DF008FD3008FE6C1
S113903000C1552706CC0009BD9D7D070F183018C7
S1139040ED00CDEE02EC06CDEE04ED02CDEE0418FB
S1139050EE02CDEF061830CDEE02EC04C3FFFFEDB7
S11390600418EC0006EC0818EE0418A300ED081828
S11390706F01186F0038383839373638183018EE21
S1139080028C0001225B050505DF009300053736DD
S113909038C3C79E8FDD04EC0018ED00DD02DE044A
S11390A08FC3C7A08FEC0018ED02DD02DE048FC36E
S11390B0C7A28FEC0018ED04DD02DE048FC3C7A63F
S11390C08FEC0018ED06DD02DE048FC3C7A88FEC19
S11390D00018ED08DD02DC04C3C7AA8FEE00CDEF53
S11390E00A39308FC3FFE48F35CC001030ED00CC4B
S11390F00018ED02183018ED0A18EC0018ED08CE2F
S11391000008CDEF00CC000C18ED0218ED0618ECA9
S11391100018ED0418DF0218CEC7BA18DF0418DEF1
S113912002186F0D186F0CCEC7A4CDEF124F5F1845
S1139130ED1418DE0418DF04183018EC14C3C79EAD
S113914018ED1A18EC0C0530DD008FD3008FEE04F7
S113915018EE1ACDEF0018DE0430DD008FD3008F37
S11391601830EE0818EE1ACDEF02CE0000CDEF0451
S1139170CDEF0ACDEF0CCDEF0830EE1218DF021858
S1139180DE041AEF00DE02EE001830CDEF1618DE12
S1139190048FDD002B5C275A301AEF18DF02CE0053
S11391A000CDEF001808180818081808DE02EE1A97
S11391B0188FE302188F30EE168C00012613CE00B0
S11391C00018DF04183018EE18CDEF0218DE042062
S11391D00ADF0430EE181AEF02DE043018DF041A36
S11391E0EE1618091AEF16183C3818DE048C000025
S11391F02EA618DF04183018EC12C3000E18ED1256
S113920018EC14C3000E18ED14CDEE0C08CDEF0CC1
S113921018DE048C00012E037E913530C61C3A35CD
S1139220393C3C3C8F183018EC08ED00ED024F5FE0
S1139230ED06ED083C3233C3000C18ED00ED0AC313
S1139240000618ED0218EC0018ED04CC000218ED2D
S113925000C607183018EE0418E7004F5F18ED0138
S1139260DF0430EE02CDEF04DE04183018EC02C344
S1139270000618ED0218EC04C3000618ED04CDEE48
S11392800009CDEF008FDE04DD002AC518CE0000F2
S11392901AEF1C183018EE0A1AEF0438383839302F
S11392A08FC3FFF48F3530ED00070FED061AEE0083
S11392B018EE0A1AEF04188F8F8C00002606CC00D3
S11392C00ABD9D7D183018EE00CDEE0AEC0418EDB1
S11392D00A183018EC0606BD9BA030EE04E700180F
S11392E03018EC0EED01070F18ED06186F03186F18
S11392F00218EE0018EC022B0A270818CE000130E1
S11393001AEF0230EE022758C3FFFF183018EE00A0
S113931018ED02BD9BA030EE0E3CBD9B8F1830189B
S1139320EE02CDEE061830CDEF0A18EC02C30006AB
S113933018ED0C18EE06183C30EC0EBD944F38387E
S113934030EE00EE042738183018EC082722CDEE52
S11393500A1AA300271A188F18E600BD9ABE201017
S113936030EC00C300081AEE04183CBD944F3131B0
S113937030EE00EE042708183018EC00BD94D21823
S11393803018EC060618EC02308FC3000C8F353908
S113939030EE023CBD929F183018EC04BD9AE831BF
S11393A031393C3C3C3C30ED00070FED02EC00C38E
S11393B00006ED06183018EE0018EE06183C30ECE6
S11393C008BD94983131DD002608183018EC0206E7
S11393D0207730EE00EE042706BD9BA0BD9ABE1890
S11393E03018EE00CDEE081830CDEF048FDD0026E6
S11393F00CCDEE00EC02C30001ED02203E18301843
S1139400EE0418EE01183C30EE06E600BD9B8F1802
S11394103018EC02C30008CDEE063C8D7B183018E2
S1139420EE08183C30EC0C8D2638383830EE00EE5F
S1139430042708183018EC00BD94D2183018EC0238
S113944006CDEE042703BD9BA73838383839393C9C
S113945030ED0018DF041AEE0418E60018DE04BD2F
S11394609A59301AEE00CDEE002711E103220D3C8B
S11394701838180818081808180820EA18DF0418FB
S11394803018EE04CDEF0418DF0218DE04DD04DC2E
S11394900218ED00DC04383918CE00008F202CDDD2
S11394A0048F308FDD02DC043CDE021AA30238266E
S11394B015DD0218DF0418DE0218EE041AEF001896
S11394C0DE04180820058F08080808EC0026D018C8
S11394D08F393C3C3430ED00188FCDEE082748E638
S11394E000BD9A5930E7041AEE0018EE061AEF028E
S11394F0188F8F8C0000272F183018EE0218E60002
S1139500BD9A5930E1042411E6043734183018EEBA
S11395100418E600BD9A92313130EE02EC0430EDCD
S1139520028F8C000026D1383831393C30ED0018D8
S1139530CE0006183CCEC6503C183018EC04BD9F33
S11395408230EE083C183018EC06BD8E6A30EC0C04
S1139550EE06ED06BD9BA0183018EE0618E708309D
S1139560EC0E18ED0938383830EE042621BD9BA0E6
S1139570183018EE08183CBD9B8F313130EE0627A9
S11395801B8F188F183C30EC02BD8E6A31311830B5
S113959018EC00BD96CD30EC00BD967F3839308F85
S11395A0C3FFF38F358F183018EE0F183C18CE0018
S11395B000183C3CC606303A8FBD952B183018EC89
S11395C015BD9AE8308FC300138F3539BD96CD3958
S11395D039CCC650BD8E60CE95E43CCC0001BD9D17
S11395E0ED313139DE003CDE023CDE043C3C3C30F3
S11395F06F0018CE0001183CCCC650BD8E6ABD9ECB
S113960032BD9BA0BD9A5930E70531312048FEC1D7
S1139610331830CDEF018F188FCDEE0BFFC1331807
S1139620E608CDEE093CBD9B8F3131183018EE01B0
S1139630CDEE06270F3C188FBD8E6A183018EC0348
S11396408D3D313130EE01E608BD9A59183018E1EC
S1139650032303186C00FCC133270ECEC6503CBD57
S11396608EAD31315D2BA727A51830186D00270367
S1139670BD9BA7383838DF0438DF0238DF003B3CB5
S11396803C3C3C30ED00070FED02CCC133ED04FC53
S1139690C133ED0630EE06271D30EE003C30EC08F9
S11396A0BD8EAD31315D2E0E30EC06C3000BED04E2
S11396B08FEC003020DC30EC06EE00ED0B30EC00DB
S11396C0EE04ED0030EC020638383838393CDD025F
S11396D0070F30ED0018FEC133189C02260DCDEEA5
S11396E00B3C18389C0227F6FFC13318FEC133180F
S11396F08C00002713CDEE0B9C022607EC0B18ED13
S11397000B20EC3C183820E730EC000638393C34A8
S113971030ED00BD9BA0183018E7024F05C3C656B4
S11397208FEC00260618EE001AEF004F5F30EE00B3
S1139730ED00ED02ED04183018E602E70618EC051A
S1139740ED073831393C30ED00BD9BA04F05C3C651
S1139750561830CDEE00188FCDEF0038398FEC035A
S1139760398FEC05398F4FE600394F05C3C6568F44
S1139770EC00271A183018EE06183C30EE063C1898
S11397803018EE06183C8D07CC0001383838393CC7
S11397903C30ED002606CC0008BD9D7D30EE06264B
S11397A006CC0007BD9D7D1830CDEE0818EE06CD21
S11397B0EF031830CDEE0A18EE06CDEF05BD9BA0E1
S11397C0183018EE0618E70030EC0018ED01070F0A
S11397D0ED021AEE00CDEE02261130EC0618ED0271
S11397E018ED04CC000118ED00201D183018EE000F
S11397F0CDEE04183018EE061AEF0730EE001AEF1B
S113980004EC00C30001ED00183018EE06186F08D0
S1139810186F07183018EC0206CDEE00E6061AEEB3
S113982007183CBD9B8FBD9BA731313838393C307C
S1139830ED008FEC07BD9AE830EC008D0238393C1E
S11398403C3C3C30ED00188F18EE021AEF02183C35
S1139850388C0000276E30188F8FEC0130ED06BD78
S11398609BA0183018EE0618E10627044F5F205518
S1139870070F183018ED0418EC0218EE00CDA304FD
S1139880260D4F5F18ED0218ED0418ED002028187E
S11398903018EE02CDEE07183018EE00CDEF0218A6
S11398A030CDEE00EC00C3FFFFED00E6061AEE0734
S11398B0183CBD9B8F313130EE026F086F071830B2
S11398C018EC04068F3838383839CEC656CC000523
S11398D06F016F000808C3FFFF2AF5393C34F6C155
S11398E03B267330E700C60F183018A6003D18ED6C
S11398F001C3C6628F18E600E700CDEE018FC3C630
S11399006F8F18EC01C3C671ED00186C0018E600E7
S1139910C10623D218CEC6BC18FFC139CEC662FF19
S1139920C6C94F5FFDC6BABD95D0BD98CABD944E99
S1139930BD90E2C601F7C13B5F373418CE00401832
S11399403CCEC6CB3CCC9CE88D0FF7C70DBD9CEB41
S1139950FDC70B3838383831393C3C3C30ED00F623
S1139960C13B2606CC0001BD9D7DFCC1392606CC39
S11399700002BD9D7D070FFEC1391830CDEF02EE08
S11399800DFFC13906CDEE088F18E30A8F8F188FAB
S1139990180930EE021AEF03DF0430EC08EE02ED92
S11399A005DE0430E60DEE02E708DE0430EE02E7E1
S11399B0074F5FED09ED0BDE0430E60118E70018F0
S11399C0094FE60018E70018095F18E7001809189E
S11399D0E700180918E700180918E700180918E73C
S11399E000180918E700180918E700180918E70013
S11399F0180918E700180918E700180918E70018EB
S1139A000918E700180918E7001809EE021AEF010F
S1139A10183018E60D37348FDE04BD9BA9183018B2
S1139A20EE044F18E6003131383838390FCE9C79BE
S1139A303CC610BD9F1E3131BD95D1FCC137FDC15F
S1139A40352606CC0003BD9D7DFEC135AE013838F8
S1139A50383BCC0005BD9D7D39BD9CEB8F4FE6089E
S1139A60393C3430E702BD9CEB30ED008FE6083022
S1139A70E106271BEC00BD9C1630E606EE00E70766
S1139A8030EE00E708373430EC02BD9BA9313138A1
S1139A9031393C3430E702BD9CEB30ED008FE608F1
S1139AA030E1062716EC00BD9C1630E606EE00E712
S1139AB008373430EC02BD9BA931313831393CBD13
S1139AC09CEB30ED008FE60830EE00E107271730FD
S1139AD0EC00BD9C1630EE00E607E708373430ECA6
S1139AE002BD9BA9313138393C3C3C3C30ED00FE91
S1139AF0C135ED09DF0430EC00DE04A40BE40CDD19
S1139B00002603BD9BA718FEC135186F0A186F09FC
S1139B10070F30ED02DF02CDEE0B3C323318DF04C9
S1139B2018DE0218A40018E40118ED06534318EDDA
S1139B30048F18A40418E4058F18DE04CDEF0BDE9F
S1139B4002EC0206EC06383838383918FEC135CD37
S1139B50EE0BDF009A00DA0118ED0B39FEC1355324
S1139B6043A40BE40CED0B39FEC135A40BE40C3912
S1139B70BD9CEB8FEC0B183018AA0218EA03ED0B0E
S1139B80EC0918A40218E403DD0027028D1939BD7D
S1139B909CEB8FEC0B183018AA0218EA03ED0B3972
S1139BA0FEC1354FE600393F393C3C188F070F188A
S1139BB0DF04183018ED00CEC137FCC13718DF02BE
S1139BC018DE04DF04DE02ED02DE0430EC02DE0403
S1139BD0DD00272EDD02DE02E608DE04DD048F3020
S1139BE08FDD02DC043CDE02E10738251518DF04B2
S1139BF018DE02CDEE028FC3000D8FEC0018DE04D8
S1139C0020C1DF0430EE02CDEF0DDE041AEF003088
S1139C10EC00063838393CDD02070F30ED0018FE41
S1139C20C137189C02260DCDEE0D3C18389C022736
S1139C30F6FFC13718FEC137188C00002713CDEE8C
S1139C400D9C022607EC0D18ED0D20EC3C18382075
S1139C50E730EC00063839FEC1372714EC09260238
S1139C608F39A40BE40CDD0027028F39EE0D26ECAE
S1139C70CC0004BD9D7D4F5F39DE003CDE023CDE3E
S1139C80043CFEC135EC011AA30322051AA30524E2
S1139C90054F5FBD9D7DFEC1353C3233C30001FDE0
S1139CA0C712FFC70E8DB0188F18FFC13518BCC777
S1139CB00E272BCE1000E600C808E70018EC01CDF3
S1139CC0A3032205CDA30524054F5FBD9D7DFEC1E1
S1139CD035EC01FDC710FEC712AF00BEC71038DF58
S1139CE00438DF0238DF003B3E20FD3430E700C19A
S1139CF0062306CC0006BD9D7DC60F30A6003DC3DD
S1139D00C66231390FCE103DC601E700CE1024C61D
S1139D1003E700CE1039C6A3E700CE1002C603E75E
S1139D2000CE102D5FE700CE1028C604E700CE1049
S1139D30205FE700CE1021E700CE1022E700BD9F90
S1139D4030CE103CC62CE7003920FE3C3430E7000E
S1139D50C6FFE702183018EC01C501270C18E6000D
S1139D6058585858CE7FFF200ACE7FFF183018E687
S1139D7000CA0FE700306A0226DA3831393C30ED88
S1139D80000FCE1000E600C808E70030E6018DBBE6
S1139D9020F000393C3430ED000F306F025F8DABA2
S1139DA0306C02E602C19523F46F02CE1000E60087
S1139DB0C808E700304FE6008D91306C02E602C11E
S1139DC06323E86F025F8D83306C02E602C11823BF
S1139DD0F46F02CE1000E600C808E70030E601BDCB
S1139DE09D4B306C02E602C16323E820AD3C30EDAC
S1139DF000EE043CC608BD9F1ECE007DDF0430EC9F
S1139E0002DE04BD9F6A188F18FFC714CE10201DF0
S1139E1000C0CE100EEC0018DF00D300CE1018EDF9
S1139E2000CE1023C640E700CE10221C0040313182
S1139E303839CE1023C640E700CE1018EC00F3C723
S1139E4014ED00398EC79DBD9D044FCEC13C8CC717
S1139E501A2705A7000820F6CE9FB318CEC0008CA1
S1139E60A0EF270AE60018E70008180820F1BD87CC
S1139E706D20FE3B39CC0020BD9D7D39CC000BBD4F
S1139E809D7D39CC000CBD9D7D39CC000DBD9D7DE3
S1139E9039CC000EBD9D7D39CC000FBD9D7D39CCE4
S1139EA00010BD9D7D39CC0011BD9D7D39CC0012C3
S1139EB0BD9D7D39CC0013BD9D7D39CC0014BD9D65
S1139EC07D39CC0015BD9D7D39CC0016BD9D7D39F5
S1139ED0CC0017BD9D7D39CC0018BD9D7D39CC00CB
S1139EE019BD9D7D39CC001ABD9D7D39CC001BBDAB
S1139EF09D7D39CC001CBD9D7D39CC001DBD9D7D53
S1139F0039CC001EBD9D7D39CC001FBD9D7D39BF60
S1139F10C716FEC716EC08FDC718BD9D9439C114B9
S1139F20220D4F05C3FFD6301AEE028F1AEF003907
S1139F3018CE000018DF00DC0005373638C3FFD622
S1139F408FC3BFD6DD0218DF0418DE0218EE001A34
S1139F50EF0018DE041808188C00142FD7CC9F0FBC
S1139F60FDFFF8CC9E44FDFFFE39DF0037D6013DEE
S1139F709600D70033373DDB00D7009601333D9B75
S1139F800039188F30EC04EE021A830000271518EC
S1139F903C4C36A60018A7000818085A26F5324A81
S10A9FA026F01838188F3970
S10F9FA786EC86FB870C871B872C873B0D
S1139FB3FF20000D0A000D0A000D0A00706F6F6C7C
S1139FC33D000D0A0053495A4520006D61782F0066
S1139FD36C696D69743D002F000D0A0051545920BA
S1139FE363757272656E742F006D61782F006C69EE
S1139FF36D69743D002F002F000D0A0063757272A2
S113A003656E745F746F74616C5F62797465733DBC
S113A013000D0A000D0A000D0A0068656C6C6F20C0
S113A023776F726C640D0A006374726C5F74696495
S113A0333D000D0A00707265735F7469643D000D21
S113A0430A006D6E67725F7469643D000D0A0065F2
S113A0536D706C5F7469643D000D0A0073747564FC
S113A0635F7469643D000D0A00646275675F746917
S113A073643D000D0A00696E697469616C5F7374F1
S113A08361636B3A0D0A00707265732073746163C4
S113A0936B3A0D0A006D6E677220737461636B3AD9
S113A0A30D0A00656D706C20737461636B3A0D0A5D
S113A0B3007374756420737461636B3A0D0A0063EF
S113A0C374726C20737461636B3A0D0A0064627575
S113A0D36720737461636B3A0D0A002D2D2D0D0AED
S10FA0E30D0A0000000000000000000056
S113BFD69E7C9E839E8A9E919E989E9F9EA69EADC3
S113BFE69EB49EBB9EC29EC99ED09ED79EDE9EE5F3
S10DBFF69EEC9EFA9EF39F019E4408
S113C75E00000000000000000000000000000000C7
S113C76E00000000000000000000000000000000B7
S113C77E00000000000000000000000000000000A7
S113C78E0000000000000000000000000000000097
S90380007C
