S00D000070726573746F2E7331394A
S1138000CE7FFFF6C000E70039308FC3FFEF8F3516
S113801030E70D6F0F6F0EE60FE71018CE008018D3
S11380203CCE00193C183018EE12183CC606303A03
S11380308FBD9486383838202ECC0080BD9AD5DD8B
S1138040002724CC0080BD9AC9306C10E610C1040E
S1138050260A6F101AEE0E18081AEF0EF6C000303A
S1138060E80DF7C0008D99183018EC0ECDA3132538
S1138070C88F308FBD9527CC0080BD9AC930E60DDE
S113808053F4C000F7C000BD800030C6113A353942
S11380903430E70018CE0040183CCCC6D2BD92EB79
S11380A030EE053C183018E604BD8009CCC6D2BDBC
S11380B092FD383831393C306F016F0018CE000220
S11380C0183CCCC0E0BD9675CE00FF3CF6C6FFBDA3
S11380D09ADDCC00FFBD9A5518CE00FF183CF6C6B9
S11380E0F0BD9ADDCC00FFBD9A55CE00FF3CF6C72B
S11380F001BD9ADDCC00FFBD9A5518CE00FF183C97
S1138100F6C6FEBD9ADDCC00FFBD9A55308FC30084
S11381100A8F3530EE003C18CE0001183CCCC6D294
S1138120BD917CCC0009BD8E5B8F18CE0000183C3D
S113813018CE0001183C3CF6C6FEBD96D1CC000911
S1138140BD8E5B8F18CE0000183C18CE0004183C7E
S11381503CF6C701BD96D1CC0009BD8E5B8F18CE0D
S11381600000183C18CE0007183C3CF6C6F0BD963B
S1138170D1CC0009BD8E5B8F18CE0000183C18CE00
S1138180000A183C3CF6C6FFBD96D1CE00013CCC9B
S11381903A98BD94F9CE00001830C61E183A183526
S11381A0183018EC002603CE00011830CDEF007E05
S11381B081133C3C3C306F016F00CC00FFBD9A55ED
S11381C018CE0002183CCCC0E9BD9675CE00FF3C29
S11381D0F6C6F1BD9ADD3838CC0003BD9A5530EDB2
S11381E002C5022753CCC0E9BD97A6183018ED0488
S11381F0BD96C41A83000127081A8300022726208B
S11382002FCC000DBD8E5B30ED0018CE0001183C64
S1138210CE00003C18CE0BB8183C30EC06BD94865A
S1138220383838200BCE00053CC60FBD80093131EB
S1138230183018EC04BD8F5A183018EC02C5012709
S11382409718EC00BD8F5ACE000A3CC601BD809041
S1138250313120843CCC00FFBD9A55CE00023CCC89
S1138260C0F2BD967518CE00FF183CF6C6F1BD9A53
S1138270DD3838CCC0F2BD979530ED00BD96C41AF8
S113828083000427081A830005271B203618CE0014
S113829001183CCC0FA0BD94F9CE00323CC602BDFF
S11382A080093838201DCC0009BD8E5B8F18CE00A4
S11382B000183C18CE0002183C3CF6C6FEBD96D110
S11382C038383830EC00BD8F5A20A83CCC00FFBDB4
S11382D09A55CE00023CCCC0FBBD967518CE00FF6B
S11382E0183CF6C6F1BD9ADD3838CCC0FBBD979575
S11382F030ED00BD96C41A83000727081A830008CE
S1138300271B203618CE0001183CCC03E8BD94F995
S1138310CE00323CC604BD80903838201DCC000904
S1138320BD8E5B8F18CE0000183C18CE0005183C9B
S11383303CF6C701BD96D138383830EC00BD8F5AB1
S113834020A8308FC3FFEF8F35CC00FFBD9A55CEE8
S113835000023CCCC104BD967518CE0010183CCE6A
S1138360007D3C18CE0001183CC608303A8FBD94FD
S11383708618CE00FF183CF6C6F1BD9ADD306F18A2
S11383806F17308FC3000A8F35CC0010BD9A55206B
S11383900630EC0FBD8F5ACCC104BD97A618301817
S11383A0ED0F8F8C000026E9F6C000C808F7C00066
S11383B0BD80001830CDEE0D08CDEF0D8C001926D0
S11383C0C818EC0F18ED0DCC0009BD8E5B8F18306A
S11383D018EE0D183C18CE0008183C3CF6C6F0BD4B
S11383E096D138383820A23C3C3C30ED004F5FED4C
S11383F004ED021AA3082C5A1830CDEE008F18E3AE
S1138400028F188F4FE600188FC6023734CEC6BECF
S11384103C188FBD8BF8CCC6BEBD87F91830CDEEA5
S11384200808CDEF08183818388C000F2E08CCC077
S113843001BD87F9200ECCC003BD87F91830186F31
S113844005186F04301AEE0218081AEF021AAC0865
S11384502DA630EE042706CCC006BD87F9CCC00992
S1138460BD87F9383838393C306F016F0018CEC6F3
S1138470F2183C30EC02BD8FD4CCC00CBD87F9C6D9
S113848014373418CEC6BE183C30EC06BD8B39CC3C
S1138490C6BEBD87F9CCC012BD87F9CCC015BD8757
S11384A0F9CCC01BBD87F9CCC020BD87F9C61437F1
S11384B03418CEC6BE183CFCC6FCBD8B39CCC6BE37
S11384C0BD87F9CCC027BD87F9C614373418CEC68A
S11384D0BE183CFCC6F4BD8B39CCC6BEBD87F9CCF6
S11384E0C029BD87F9CCC02CBD87F9CCC039BD8764
S11384F0F9CCC03EBD87F9C614373418CEC6BE18B1
S11385003CFCC6F6BD8B39CCC6BEBD87F9CCC04594
S1138510BD87F9C614373418CEC6BE183CFCC6FA5B
S1138520BD8B39CCC6BEBD87F9CCC047BD87F9C663
S113853014373418CEC6BE183CFCC6F2BD8B39CCF9
S1138540C6BEBD87F9CCC049BD87F9CCC04CBD8738
S1138550F9C614373418CEC6BE183CFCC6F8BD8B19
S113856039CCC6BEBD87F9CCC061BD87F9CCC06427
S1138570BD87F9308FC3001E8F35301AEE001808FE
S11385801AEF00188C00012E037E846DCCC067BDE9
S113859087F93839CE00013C18CE0002183CF6C7E2
S11385A000BD8769CCC06ABD87F9CCC078BD87F9A6
S11385B0188F4FF6C6F1188FC6143734CEC6BE3C9A
S11385C0188FBD8B39CCC6BEBD87F9CCC082BD87A0
S11385D0F9CCC085BD87F9188F4FF6C6FE188FC633
S11385E0143734CEC6BE3C188FBD8B39CCC6BEBD45
S11385F087F9CCC08FBD87F9CCC092BD87F9188F9D
S11386004FF6C701188FC6143734CEC6BE3C188F38
S1138610BD8B39CCC6BEBD87F9CCC09CBD87F9CC17
S1138620C09FBD87F9188F4FF6C6F0188FC6143750
S113863034CEC6BE3C188FBD8B39CCC6BEBD87F9BF
S1138640CCC0A9BD87F9CCC0ACBD87F9188F4FF653
S1138650C6FF188FC6143734CEC6BE3C188FBD8BE8
S113866039CCC6BEBD87F9CCC0B6BD87F9CCC0B97C
S1138670BD87F9188F4FF6C700188FC6143734CE4C
S1138680C6BE3C188FBD8B39CCC6BEBD87F9CCC0E5
S1138690C3BD87F918CE0004183CCC01F4BD94F98D
S11386A0CCC0C6BD87F9CE00403CCCC702BD83E731
S11386B0308FC300208F35BD8467CE00043CCC01CD
S11386C0F4BD94F9313120EFBD8000BD9843C60E4E
S11386D0373418CE00A0183CCEC2ED3CCC81B2BDDC
S11386E098C0F7C6FEC60D373418CE00A0183CCE8D
S11386F0C24D3CCC8254BD98C0F7C701C60C373478
S113870018CE00A0183CCEC1AD3CCC82CBBD98C0E5
S1138710F7C6F0C60B373418CE00A0183CCEC10DF6
S11387203CCC8342BD98C0F7C6FFC663373418CE2D
S113873000A0183CCEC38D3CCC80B6BD98C0F7C613
S1138740F1C632373418CE00A0183CCEC42D3CCC30
S11387508594BD98C0F7C70030C6243A35BD9993B7
S1138760CC0080BD9CF84F5F393430E700CE102C2C
S11387705FE700CE102BC630E7008D2430E600F70B
S1138780C5EFEC03FDC5F0EE05FFC5F2CE887B3CDA
S1138790C600BD9E6ACE102DC6ACE700313131391A
S11387A0CE00103C18CEC4E5183CCCC4CDBD8929FC
S11387B0CE00FA3C18CEC4F5183CCCC4D9BD8929E6
S11387C038383838393430E70030E6003734CCC430
S11387D0D9BD89AB3131DD002614CE102D1C0080AB
S11387E0FCC5F0BD9AC9FCC5F0BD9A5520DB3139F2
S11387F08DD3CE102D1C0080393C30ED00188F181D
S1138800E600271430EE00E6008DBA1830CDEE00F5
S113881008CDEF006D0026ECCE102D1C00803839F9
S11388208F3CCCC4CDBD8965CE102D1C00203131C8
S1138830393C3C188F306F016F001AEF0220091881
S113884030CDEE0008CDEF00183018EE02183C30A1
S11388501AEE0418081AEF04CCC4CDBD8965313171
S1138860DD002709304FE6071AA3002ED2CE102DC3
S11388701C0020183018EC00383839DE463CDE0085
S11388803CDE023CDE043C3C3C349F46DE464F5F0B
S1138890ED04ED02202ADE46083CCCC4D9BD89652E
S11388A03131DD002712DE46E601CE102FE700CC81
S11388B00001DE46ED022008CE102D1D008020218F
S11388C0CE102EE600C48026CD2016CE102FE60052
S11388D03734CCC4CDBD89ABCC0001DE46ED0431C8
S11388E031CE102EE600C42026E1DE46EE02271724
S11388F0CCC4D98D6C1A83000F220CFEC5F03CF653
S1138900C5EFBD9ADD3131DE46EC04270CFEC5F21D
S11389103CF6C5EFBD9ADD313138383138DF0438E3
S1138920DF0238DF0038DF463B188F18DF041830C9
S1138930CDEE0218DF0218DE04CDEF003C3233DF47
S113894004DE02E304C3FFFF18ED02DE04CDEF04EE
S1138950CDEF06DE02EE04CDEF08186F0B186F0A98
S1138960398FEC0A393C188F3018DF041AEE0418DA
S1138970DF0218DE0418EC0A272F070FED00CDEEF6
S113898006E600DE02E70018EC06C3000118ED0657
S1138990CDA3022306CDEE00CDEF06CDEE0A09CD20
S11389A0EF0A30EC0006CC000138393C188F18EC83
S11389B00ACDA30825044F5F2036070F30ED00DFF2
S11389C002CDEE04DF04DE02E605DE04E70018EC67
S11389D004C3000118ED04CDA302230618EC00180B
S11389E0ED04CDEE0A08CDEF0A30EC0006CC000110
S11389F03839C1202604CC0001394F5F393430E7BF
S1138A0000CBD0C109230AE600C12D2704C12B26BF
S1138A1005CC000120024F5F3139CBD0C1092204BB
S1138A20CC0001394F5F393430E700CBD0C1092382
S1138A3010E600CBBFC1052308E600CB9FC1052289
S1138A4005CC000120024F5F3139CBD0C10922028D
S1138A504F394F5F393C3C3C3C3C188F306F001819
S1138A60E600C1202617306C00DF02183C38DF0412
S1138A70DE02E600DE043AE600C12027E930E60023
S1138A806F05E706DF02183C3818DF0418DE028F92
S1138A9018E3058FE60018DE04C12D2604C6FF2066
S1138AA00BC601DD048F308FDD02DC04DE02E70932
S1138AB03018DF00DC00E305ED07DD02DE02E6002E
S1138AC0C12D2704C12B2603306C00DF04306F0254
S1138AD06F01DF02DE04202830EC010505E3010507
S1138AE0DF02183C3818DF0418DE028F18E3038F06
S1138AF0EB008900C3FFD018ED01186C0018DE04E8
S1138B00DE02E6006F03E704183C3818DF0418DEC1
S1138B10028F18E3038F18DE04E600CBD0C10923CB
S1138B20B718304F18E6092A014A18ED05CDEE01B1
S1138B30BD9EE53838383838393C3CDD02306F00AA
S1138B40DD002A1A5FE109240CC62D1AEE0618E787
S1138B5000C601E700DC024353C30001DD0218CE66
S1138B600001DE028C0009236B18DF00DC00050520
S1138B7018DF00D30005DD0018DE00050518DF004E
S1138B80D300051A930223E1204ADC0218DF00DE39
S1138B9000028F30E7014F183C38BD9EE518DF0412
S1138BA018DE02DD00188F9300188F30E60018DFFE
S1138BB00218DE04E1092413EC06EB008900ED023F
S1138BC0E601CB30EE02E700306C00188FCE000ACD
S1138BD0028F188F188C000026B0183018E6001881
S1138BE0E1092406CDEE063A6F001830CDEE0618E2
S1138BF0E6093A6F003838393C3C188F30E609E70B
S1138C0000DF023CDE02E60938275218DF00D601F5
S1138C10C40F18DF04183018E70118EC0618EB002D
S1138C2089008F09CDEF0218E60118DE04C109227C
S1138C3006CB30E700200DDF0430E601CB37EE022F
S1138C40E700DE04188F04040404188FDF04306A7C
S1138C5000DF02DE043CDE02E6003826AE1830CD2A
S1138C60EE0618E6093A6F003838393430E700CB9D
S1138C70D0C10922034F202230E600CBBFC1052218
S1138C8007E600CBC94F201230E600CB9FC1052276
S1138C9007E600CBA94F20024F5F31393C3C34300A
S1138CA0ED006F046F03201A30EE00E6008DBC3037
S1138CB0E702C1102718EC0305050505EB0289003E
S1138CC0ED0330EE00E600BD8A27DD0026DA30EC45
S1138CD003383831393C3430ED0018DF041AEE051E
S1138CE06F025F18DF0218DE04E108243B3CDE0259
S1138CF0E60038273318304F18E602301AEE00DD4C
S1138D0000188FD300188FDE02DD008FD3008FE6AA
S1138D100018E7001830186C0218E60218E108245D
S1138D2007DE023AE60026CD1830CDEE0018E60242
S1138D303A6F003831393C3C3C3C30ED00CC00010A
S1138D40ED026F056F041830CDEE008F18E3048F29
S1138D50CDEF06E6002728CDEE022711BD89F2DD0E
S1138D600027111830186F03186F022007BD89F20D
S1138D70DD00270B301AEE0418081AEF0420C73060
S1138D80EC0638383838393C3C3C30ED006F036F22
S1138D90021830CDEE008F18E3028FCDEF04E60009
S1138DA0BD89F2DD00270B1830CDEE0208CDEF02AD
S1138DB020DF183018EC04383838398F4F5FED0055
S1138DC0ED02ED0439188F3018DF041AEE0218DFB3
S1138DD00218DE0418EC0037363818DE0218DF00FB
S1138DE08FD3008F18DE04CDEF00DD009C00250436
S1138DF09C02241218EC02C3000118ED022607CDD0
S1138E00EE0408CDEF0439393C3C3C30ED00CC0095
S1138E1003DD02DE02093C3233051830DF02CDEEF9
S1138E2000DD008FD3008FCDEF0218E30818ED04A6
S1138E303C1838CDEE00188F18EC00DD009C00249F
S1138E4005CCFFFF2011DD009C002305CC00012090
S1138E5006DE022EBE4F5F38383839308FC3FFF438
S1138E608F3530ED0A26037E8F521830186F07189D
S1138E706F06DD04CCC74218ED04DC0418CEC744E9
S1138E8018EC00DD048F308FDD02DC043CDE021AB6
S1138E90A30A3824037E8F29CDEE0418DF0418DEDC
S1138EA002CDEF083C323318DE04DD00277B070FC8
S1138EB018DE0218ED00CDEF0618DE04DF02EE0224
S1138EC0CDEF04CDEE0208CDEF02183018EC000609
S1138ED018EC04CDEE06ED0218EC0AED0018EC06D1
S1138EE0C3000418ED0218DE0418EC02CDA3082315
S1138EF00318ED08DF0430EC0ADE04CDA30A2303D3
S1138F0018ED0A18EC0630E30A18ED06EC0ACDA3B6
S1138F1000240F1830CDEE02DD008FD3008FC6552C
S1138F20E700183018EC022029188FC3000E188FA0
S1138F3018DF04183018EC04C3000E18ED04CDEE4D
S1138F400608CDEF0618DE048C000122037E8E8015
S1138F504F5F308FC3000C8F35393C3C3CDD02271A
S1138F606FC3FFFC183018ED04373638EE02CDEF2E
S1138F7002188FCDEE00183018EE02CDAC02241684
S1138F8018DE0218DF008FD3008FE600C1552706D4
S1138F90CC0007BD9CF8070F183018ED00CDEE0289
S1138FA0EC06CDEE04ED02CDEE0418EE02CDEF0694
S1138FB01830CDEE02EC04C3FFFFED0418EC0006FC
S1138FC0EC0818EE0418A300ED08186F01186F00E0
S1138FD038383839373638183018EE028C00012208
S1138FE05B050505DF00930005373638C3C7428F9C
S1138FF0DD04EC0018ED00DD02DE048FC3C7448FEE
S1139000EC0018ED02DD02DE048FC3C7468FEC00CE
S113901018ED04DD02DE048FC3C74A8FEC0018ED9F
S113902006DD02DE048FC3C74C8FEC0018ED08DDAB
S113903002DC04C3C74E8FEE00CDEF0A39308FC374
S1139040FFE48F35CC001030ED00CC0018ED021891
S11390503018ED0A18EC0018ED08CE0008CDEF002A
S1139060CC000C18ED0218ED0618EC0018ED0418ED
S1139070DF0218CEC75E18DF0418DE02186F0D1861
S11390806F0CCEC748CDEF124F5F18ED1418DE04F5
S113909018DF04183018EC14C3C74218ED1A18EC82
S11390A00C0530DD008FD3008FEE0418EE1ACDEFDF
S11390B00018DE0430DD008FD3008F1830EE08185E
S11390C0EE1ACDEF02CE0000CDEF04CDEF0ACDEFC6
S11390D00CCDEF0830EE1218DF0218DE041AEF0090
S11390E0DE02EE001830CDEF1618DE048FDD002B03
S11390F05C275A301AEF18DF02CE0000CDEF0018BB
S113910008180818081808DE02EE1A188FE3021867
S11391108F30EE168C00012613CE000018DF0418E1
S11391203018EE18CDEF0218DE04200ADF0430EE0A
S1139130181AEF02DE043018DF041AEE1618091AA2
S1139140EF16183C3818DE048C00002EA618DF0435
S1139150183018EC12C3000E18ED1218EC14C300EA
S11391600E18ED14CDEE0C08CDEF0C18DE048C00B7
S1139170012E037E909030C61C3A35393C3C3C8F1E
S1139180183018EC08ED00ED024F5FED06ED083CD9
S11391903233C3000C18ED00ED0AC3000618ED02CB
S11391A018EC0018ED04CC000218ED00C6071830C6
S11391B018EE0418E7004F5F18ED01DF0430EE02EB
S11391C0CDEF04DE04183018EC02C3000618ED02DB
S11391D018EC04C3000618ED04CDEE0009CDEF0031
S11391E08FDE04DD002AC518CE00001AEF1C1830EB
S11391F018EE0A1AEF0438383839308FC3FFF48F69
S11392003530ED00070FED061AEE0018EE0A1AEFDE
S113921004188F8F8C00002606CC0008BD9CF8181B
S11392203018EE00CDEE0AEC0418ED0A183018ECF4
S11392300606BD9B0D30EE04E700183018EC0EED69
S113924001070F18ED06186F03186F0218EE0018C7
S1139250EC022B0A270818CE0001301AEF0230EE78
S1139260022758C3FFFF183018EE0018ED02BD9B0B
S11392700D30EE0E3CBD9AFC183018EE02CDEE0611
S11392801830CDEF0A18EC02C3000618ED0C18EEE6
S113929006183C30EC0EBD93AA383830EE00EE04CC
S11392A02738183018EC082722CDEE0A1AA3002715
S11392B01A188F18E600BD9A2B201030EC00C3005A
S11392C0081AEE04183CBD93AA313130EE00EE04C6
S11392D02708183018EC00BD942D183018EC060639
S11392E018EC02308FC3000C8F353930EE023CBDD0
S11392F091FA183018EC04BD9A553131393C3C3C94
S11393003C30ED00070FED02EC00C30006ED06183B
S11393103018EE0018EE06183C30EC08BD93F3311B
S113932031DD002608183018EC0206207730EE00F4
S1139330EE042706BD9B0DBD9A2B183018EE00CD08
S1139340EE081830CDEF048FDD00260CCDEE00ECD6
S113935002C30001ED02203E183018EE0418EE019D
S1139360183C30EE06E600BD9AFC183018EC02C337
S11393700008CDEE063C8D7B183018EE08183C3002
S1139380EC0C8D2638383830EE00EE0427081830FF
S113939018EC00BD942D183018EC0206CDEE04270D
S11393A003BD9B143838383839393C30ED0018DFA8
S11393B0041AEE0418E60018DE04BD99C6301AEE4D
S11393C000CDEE002711E103220D3C1838180818CF
S11393D0081808180820EA18DF04183018EE04CD1D
S11393E0EF0418DF0218DE04DD04DC0218ED00DCF3
S11393F004383918CE00008F202CDD048F308FDD27
S113940002DC043CDE021AA302382615DD0218DF52
S11394100418DE0218EE041AEF0018DE04180820FF
S1139420058F08080808EC0026D0188F393C3C3416
S113943030ED00188FCDEE082748E600BD99C63000
S1139440E7041AEE0018EE061AEF02188F8F8C004C
S113945000272F183018EE0218E600BD99C630E137
S1139460042411E6043734183018EE0418E600BD5D
S113947099FF313130EE02EC0430ED028F8C0000A4
S113948026D1383831393C30ED0018CE0006183C6E
S1139490CEC5F43C183018EC04BD9EFD30EE083CFB
S11394A0183018EC06BD8DC530EC0CEE06ED06BD8B
S11394B09B0D183018EE0618E70830EC0E18ED096D
S11394C038383830EE042621BD9B0D183018EE08CC
S11394D0183CBD9AFC313130EE06271B8F188F18CB
S11394E03C30EC02BD8DC53131183018EC00BD960E
S11394F03430EC00BD95E63839308FC3FFF38F3537
S11395008F183018EE0F183C18CE0000183C3CC6DB
S113951006303A8FBD9486183018EC15BD9A553034
S11395208FC300138F3539BD96343939CCC5F4BD9A
S11395308DBBCE953F3CCC0002BD9D68313139DEF8
S1139540003CDE023CDE043C3C3CCE10081C001017
S1139550306F0018CE0002183CCCC5F4BD8DC5BDDB
S11395609DADBD9B0DBD99C630E70531312048FE48
S1139570C0D71830CDEF018F188FCDEE0BFFC0D7B9
S113958018E608CDEE093CBD9AFC3131183018EECE
S113959001CDEE06270F3C188FBD8DC5183018EC91
S11395A0038D43313130EE01E608BD99C6183018F9
S11395B0E1032303186C00FCC0D7270ECEC5F43C8E
S11395C0BD8E0831315D2BA727A5CE10081D0010D4
S11395D01830186D002703BD9B14383838DF043861
S11395E0DF0238DF003B3C3C3C3C30ED00070FED34
S11395F002CCC0D7ED04FCC0D7ED0630EE06271D23
S113960030EE003C30EC08BD8E0831315D2E0E305A
S1139610EC06C3000BED048FEC003020DC30EC06CC
S1139620EE00ED0B30EC00EE04ED0030EC020638F9
S1139630383838393CDD02070F30ED0018FEC0D74A
S1139640189C02260DCDEE0B3C18389C0227F6FF21
S1139650C0D718FEC0D7188C00002713CDEE0B9C82
S1139660022607EC0B18ED0B20EC3C183820E730F1
S1139670EC000638393C3430ED00BD9B0D18301831
S1139680E7024F05C3C5FA8FEC00260618EE001A50
S1139690EF004F5F30EE00ED00ED02ED04183018DE
S11396A0E602E70618EC05ED073831393C30ED00E9
S11396B0BD9B0D4F05C3C5FA1830CDEE00188FCDF4
S11396C0EF0038398FEC03398FEC05398F4FE60002
S11396D0394F05C3C5FA8FEC00271A183018EE0667
S11396E0183C30EE063C183018EE06183C8D07CCBA
S11396F00001383838393C3C30ED002606CC0006F1
S1139700BD9CF830EE062606CC0003BD9CF818304C
S1139710CDEE0818EE06CDEF031830CDEE0A18EEA4
S113972006CDEF05BD9B0D183018EE0618E7003086
S1139730EC0018ED01070FED021AEE00CDEE022643
S11397401130EC0618ED0218ED04CC000118ED0000
S1139750201D183018EE00CDEE04183018EE061A4D
S1139760EF0730EE001AEF04EC00C30001ED00181F
S11397703018EE06186F08186F07183018EC020638
S1139780CDEE00E6061AEE07183CBD9AFCBD9B140C
S113979031313838393C30ED008FEC07BD9A553003
S11397A0EC008D0238393C3C3C3C30ED00188F18FD
S11397B0EE021AEF02183C388C0000276E30188F26
S11397C08FEC0130ED06BD9B0D183018EE0618E144
S11397D00627044F5F2055070F183018ED0418ECC6
S11397E00218EE00CDA304260D4F5F18ED0218ED0C
S11397F00418ED002028183018EE02CDEE071830BA
S113980018EE00CDEF021830CDEE00EC00C3FFFFE0
S1139810ED00E6061AEE07183CBD9AFC313130EE35
S1139820026F086F07183018EC04068F3838383880
S113983039CEC5FACC00056F016F000808C3FFFFDD
S11398402AF5393C34F6C0DF267330E700C60F181A
S11398503018A6003D18ED01C3C6068F18E600E7D0
S113986000CDEE018FC3C6138F18EC01C3C615EDEE
S113987000186C0018E600C10623D218CEC6601882
S1139880FFC0DDCEC606FFC66D4F5FFDC65EBD954B
S11398902BBD9831BD93A9BD903DC601F7C0DF5FD4
S11398A0373418CE0040183CCEC66F3CCC9C638D38
S11398B00FF7C6B1BD9C66FDC6AF383838383139AC
S11398C03C3C3C30ED00F6C0DF2606CC0005BD9CD8
S11398D0F8FCC0DD2606CC0009BD9CF8070FFEC0CD
S11398E0DD1830CDEF02EE0DFFC0DD06CDEE088FA2
S11398F018E30A8F8F188F180930EE021AEF03DF6E
S11399000430EC08EE02ED05DE0430E60DEE02E76D
S113991008DE0430EE02E7074F5FED09ED0BDE04CD
S113992030E60118E70018094FE60018E7001809A7
S11399305F18E700180918E700180918E700180964
S113994018E700180918E700180918E7001809189B
S1139950E700180918E700180918E700180918E7BC
S113996000180918E700180918E700180918E70093
S11399701809EE021AEF01183018E60D37348FDE9D
S113998004BD9B16183018EE044F18E60031313828
S11399903838390FCE9BE63CC610BD9E6ACE1009FE
S11399A01C003C3131BD952CFCC0DBFDC0D9260622
S11399B0CC000ABD9CF8FEC0D9AE013838383BCC87
S11399C00001BD9CF839BD9C668F4FE608393C34D4
S11399D030E702BD9C6630ED008FE60830E10627D3
S11399E01BEC00BD9B8330E606EE00E70730EE007B
S11399F0E708373430EC02BD9B1631313831393C3D
S1139A003430E702BD9C6630ED008FE60830E10695
S1139A102716EC00BD9B8330E606EE00E7083734DA
S1139A2030EC02BD9B1631313831393CBD9C663077
S1139A30ED008FE60830EE00E107271730EC00BD9B
S1139A409B8330EE00E607E708373430EC02BD9B19
S1139A5016313138393C3C3C3C30ED00FEC0D9ED88
S1139A6009DF0430EC00DE04A40BE40CDD00260363
S1139A70BD9B1418FEC0D9186F0A186F09070F3060
S1139A80ED02DF02CDEE0B3C323318DF0418DE02A8
S1139A9018A40018E40118ED06534318ED048F18B8
S1139AA0A40418E4058F18DE04CDEF0BDE02EC02EB
S1139AB006EC06383838383918FEC0D9CDEE0BDF3D
S1139AC0009A00DA0118ED0B39FEC0D95343A40BF8
S1139AD0E40CED0B39FEC0D9A40BE40C39BD9C6633
S1139AE08FEC0B183018AA0218EA03ED0BEC0918D6
S1139AF0A40218E403DD0027028D1939BD9C668F8A
S1139B00EC0B183018AA0218EA03ED0B39FEC0D981
S1139B104FE600393F393C3C188F070F18DF041813
S1139B203018ED00CEC0DBFCC0DB18DF0218DE0409
S1139B30DF04DE02ED02DE0430EC02DE04DD002789
S1139B402EDD02DE02E608DE04DD048F308FDD0246
S1139B50DC043CDE02E10738251518DF0418DE02B8
S1139B60CDEE028FC3000D8FEC0018DE0420C1DFA0
S1139B700430EE02CDEF0DDE041AEF0030EC0006E7
S1139B803838393CDD02070F30ED0018FEC0DB1811
S1139B909C02260DCDEE0D3C18389C0227F6FFC022
S1139BA0DB18FEC0DB188C00002713CDEE0D9C02E1
S1139BB02607EC0D18ED0D20EC3C183820E730ECAE
S1139BC000063839FEC0DB2714EC0926028F39A4BD
S1139BD00BE40CDD0027028F39EE0D26ECCC000BD4
S1139BE0BD9CF84F5F39DE003CDE023CDE043CCE17
S1139BF010081C0020FEC0D9EC011AA30322051A88
S1139C00A3052406CC0004BD9CF8FEC0D93C323325
S1139C10C30001FDC6B6FFC6B28DA9188F18FFC0D8
S1139C20D918BCC6B2272CCE1000E600C808E7003D
S1139C3018EC01CDA3032205CDA3052406CC000412
S1139C40BD9CF8FEC0D9EC01FDC6B4FEC6B6AF009B
S1139C50BEC6B4CE10081D002038DF0438DF023839
S1139C60DF003B3E20FD3430E700C1062306CC0074
S1139C7002BD9CF8C60F30A6003DC3C60631390F9D
S1139C80CE103DC601E700CE1024C603E700CE1077
S1139C9039C6A3E700CE1002C603E700CE102D5F3D
S1139CA0E700CE1028C604E700CE10205FE700CE00
S1139CB01021E700CE1022E700BD9E7CCE103CC6EA
S1139CC02CE7003920FE3C3430E700C6FFE70218D9
S1139CD03018EC01C501270C18E60058585858CE26
S1139CE07FFF200ACE7FFF183018E600CA0FE70076
S1139CF0306A0226DA3831393C30ED000FCE1000DC
S1139D00E600C808E70030E6018DBB20F000393CCE
S1139D103430ED000F306F025F8DAB306C02E60221
S1139D20C19523F46F02CE1000E600C808E70030A6
S1139D304FE6008D91306C02E602C16323E86F02A6
S1139D405F8D83306C02E602C11823F46F02CE10DB
S1139D5000E600C808E70030E601BD9CC6306C028E
S1139D60E602C16323E820AD3C30ED00EE043CC6BE
S1139D7008BD9E6ACE007DDF0430EC02DE04BD9E89
S1139D80E5188F18FFC6B8CE10201D00C0CE100EE7
S1139D90EC0018DF00D300CE1018ED00CE1023C65F
S1139DA040E700CE10221C004031313839CE102358
S1139DB0C640E700CE1018EC00F3C6B8ED00393BFE
S1139DC039CC0025BD9CF839CC0010BD9CF839CCA9
S1139DD00011BD9CF839CC0012BD9CF839CC00139D
S1139DE0BD9CF839CC0014BD9CF839CC0015BD9C41
S1139DF0F839CC0016BD9CF839CC0017BD9CF83955
S1139E00CC0018BD9CF839CC0019BD9CF839CC00A5
S1139E101ABD9CF839CC001BBD9CF839CC001CBD84
S1139E209CF839CC001DBD9CF839CC001EBD9CF8B3
S1139E3039CC001FBD9CF839CC0020BD9CF839CC2E
S1139E400021BD9CF839CC0022BD9CF839CC0023FC
S1139E50BD9CF839CC0024BD9CF839BFC6BAFEC6F7
S1139E60BAEC08FDC6BCBD9D0F39C114220D4F05C7
S1139E70C3FFD6301AEE028F1AEF003918CE000055
S1139E8018DF00DC0005373638C3FFD68FC3BFD6D2
S1139E90DD0218DF0418DE0218EE001AEF0018DEE7
S1139EA0041808188C00142FD7CC9E5BFDFFF8CC47
S1139EB09EB6FDFFFE398EC741BD9C7F4FCEC0E0EC
S1139EC08CC6BE2705A7000820F6CE9F2218CEC058
S1139ED0008CA002270AE60018E70008180820F101
S1139EE0BD86C820FEDF0037D6013D9600D700337B
S1139EF0373DDB00D7009601333D9B0039188F3086
S1139F00EC04EE021A8300002715183C4C36A60018
S1139F1018A7000818085A26F5324A26F0183818E7
S1059F208F3973
S1139F22FF20000D0A000D0A000D0A00706F6F6C0D
S1139F323D000D0A0053495A4520006D61782F00F7
S1139F426C696D69743D002F000D0A00515459204B
S1139F5263757272656E742F006D61782F006C697F
S1139F626D69743D002F002F000D0A006375727233
S1139F72656E745F746F74616C5F62797465733D4E
S1139F82000D0A000D0A000D0A0068656C6C6F2052
S1139F92776F726C640D0A006374726C5F74696427
S1139FA23D000D0A00707265735F7469643D000DB3
S1139FB20A006D6E67725F7469643D000D0A006584
S1139FC26D706C5F7469643D000D0A00737475648E
S1139FD25F7469643D000D0A00646275675F7469A9
S1139FE2643D000D0A00696E697469616C5F737483
S1139FF261636B3A0D0A00000000000000000000DB
S113BFD69DC89DCF9DD69DDD9DE49DEB9DF29DF96B
S113BFE69E009E079E0E9E159E1C9E239E2A9E3193
S10DBFF69E389E469E3F9E4D9EB667
S113C7020000000000000000000000000000000023
S113C7120000000000000000000000000000000013
S113C7220000000000000000000000000000000003
S113C73200000000000000000000000000000000F3
S90380007C
