S00F000074616C6B6B72616D2E7331398E
S11300807F00707E010096B318A700E70096B418AD
S1130090A700BD017827FB96B518A700E600390034
S11300A0000000000000000000000000000000004C
S11300B0000000000000FFFFFFFFFFFFFFFFFFFF46
S11300C0FFFFFFFF7E014A7E014A7E014A7E014A0C
S11300D07E014A7E014A7E014A7E014A7E014A7EB1
S11300E0014A7E014A7E014A7E014A7E014A7E011E
S11300F04A7E014A7E01147E014A7E00807E014AC6
S11301008E00BA7F0035CC1A0CB70071F70073BDAE
S1130110017826FBC603BD01839FAFDCAFBD01831D
S113012016BD0183BD0178BD0183DEAFCB402560E0
S1130130CB402533CB402521CB07250F5C26D5BDED
S1130140017817BD0178DDAF9EAF3BCE00AF3ABD5D
S11301500178BD0183E70020CB17E600BD018308C9
S11301604A2CF7DFAF20BD17BD0178E7004A2DF315
S1130170E60008BD018320F0F60074C42027F9F6D8
S113018000773936B60074848027F932F70077395E
S113019018DEB117BD0178369D8632BD0183084A49
S10701A02DC120F059
S9030000FC
