S00F000074616C6B464538302E73313946
S113FE80867EB700F4B700FACCFEB9FD00F5FD009C
S113FE90FBCEFF4918CE008FC620A60018A7000885
S113FEA018085A26F58E00B37F1035CC300CB710E5
S113FEB02BF7102DBDFF1D26FBC603BDFF289FBDDC
S113FEC0DCBDBDFF2816BDFF28BDFF1DBDFF28DE1C
S113FED0BDCB402560CB402533CB402521CB072526
S113FEE00F5C26D5BDFF1D17BDFF1DDDBD9EBD3BAF
S113FEF0CE00BD3ABDFF1DBDFF28E70020CB17E6AD
S113FF0000BDFF28084A2CF7DFBD20BD17BDFF1D2B
S113FF10E7004A2DF3E60008BDFF2820F0F6102E76
S113FF20C42027F9F6102F3936B6102E848027F90D
S113FF3032F7102F3918DEBF17BDFF1D369D8F32E3
S113FF40BDFF28084A2DC120F096C118A700E7007C
S113FF5096C218A700F6102EC42027F9F6102F27F2
S10CFF60F496C318A700E6003969
S9030000FC
