S010000074616C6B6B464538302E733139DA
S113FE80867EB700F4B700FACCFEB9FD00F5FD009C
S113FE90FBCEFF4918CE008FC620A60018A7000885
S113FEA018085A26F58E00B37F0035CC1A0CB7001B
S113FEB071F70073BDFF1D26FBC603BDFF289FBD60
S113FEC0DCBDBDFF2816BDFF28BDFF1DBDFF28DE1C
S113FED0BDCB402560CB402533CB402521CB072526
S113FEE00F5C26D5BDFF1D17BDFF1DDDBD9EBD3BAF
S113FEF0CE00BD3ABDFF1DBDFF28E70020CB17E6AD
S113FF0000BDFF28084A2CF7DFBD20BD17BDFF1D2B
S113FF10E7004A2DF3E60008BDFF2820F0F6007440
S113FF20C42027F9F600773936B60074848027F99F
S113FF3032F700773918DEBF17BDFF1D369D8F32AB
S113FF40BDFF28084A2DC120F096C118A700E7007C
S113FF5096C218A700F60074C42027F9F600772784
S10CFF60F496C318A700E6003969
S9030000FC
