S00F000074616C6B423730302E73313960
S113B700867EB700F4B700FACCB739FD00F5FD002A
S113B710FBCEB7C918CE008FC620A60018A7000814
S113B72018085A26F58E00B37F1035CC300CB710AC
S113B7302BF7102DBDB79D26FBC603BDB7A89FBD33
S113B740DCBDBDB7A816BDB7A8BDB79DBDB7A8DE03
S113B750BDCB402560CB402533CB402521CB0725ED
S113B7600F5C26D5BDB79D17BDB79DDDBD9EBD3B06
S113B770CE00BD3ABDB79DBDB7A8E70020CB17E604
S113B78000BDB7A8084A2CF7DFBD20BD17BDB79D83
S113B790E7004A2DF3E60008BDB7A820F0F6102E06
S113B7A0C42027F9F6102F3936B6102E848027F9D5
S113B7B032F7102F3918DEBF17BDB79D369D8F3273
S113B7C0BDB7A8084A2DC120F096C118A700E7000C
S113B7D096C218A700F6102EC42027F9F6102F27BA
S10CB7E0F496C318A700E6003931
S9030000FC
