S00D000074616C6B45322E733139C4
S113FEFECEFFB618CE00CBC620A60018A700081851
S113FF0E085A26F58E00EF7F1035CC300CB7102B27
S113FF1EF7102DBDFF8A26FBC603BDFF959FF9DCA6
S113FF2EF9BDFF9516BDFF95BDFF8ABDFF95DEF9A0
S113FF3ECB402560CB402533CB402521CB07250F65
S113FF4E5C26D5BDFF8A17BDFF8ADDF99EF93BCE2F
S113FF5E00F93ABDFF8ABDFF95E70020CB17E600F6
S113FF6EBDFF95084A2CF7DFF920BD17BDFF8AE7C0
S113FF7E004A2DF3E60008BDFF9520F0F6102EC4BE
S113FF8E2027F9F6102F3936B6102E848027F93231
S113FF9EF7102F3918DEFB17BDFF8A369DCB32BD05
S113FFAEFF95084A2DC120F096FD18A700E700968C
S113FFBEFE18A700F6102EC42027F9F6102F27F4EA
S113FFCE96FF18A700E60039FF5CFF5CFF5CFF5C40
S113FFDEFF5CFF5CFF5CFF5CFF5CFF5CFF5CFF5C37
S113FFEEFF5CFF5CFF5CFF5CFF26FF5CFEFEFF5CBC
S105FFFEFEFE01
S9030000FC
