S114272E000000000000000000000000000000000096
S1250000183C1830DE003CDE003CDE003CDE003C8FD600378F7D273A27037E011EC601F7273AE7
S1250022F61009D701D601CA10D701D601F71009F61009D701D601CA20D701D601F71009F610F4
S125004408D701D601CA20D701D601F71008F61008D701D601CA10D701D601F71008CC98B1DDF0
S125006600BD0752C600D700D6004FDD00DC0005050505DD00DC00C39811DD00DC00DE008FC3C1
S1250088980B8FED00D600E700CC0002ED007C0000D600C10A22037E006ECC0000FD98ABCC981D
S12500AA01FD2738C600D700CC994EDD00CC995BDD00CC995DDD00DC00DE00ED00D6004FDE00C0
S12500CCED00DC00C3000FDD00DC00C3000FDD00DC00C3000FDD007C0000D600C16322037E0067
S12500EEC1CC0000FD9F28CC994EFD273BC60037CE00963CCE98B53CCC068CDD00BD0132D60193
S1250110F7994DBD0696DC00FD994B3838338F33D7008F38DF0038DF0038DF0038DF0018383926
S1250132183C1830DE003CDE003CDE003CDE003CDC00DD0018EC04DD007D273A27037E0156BD6B
S12501540000FC2738DD0027037E0168CCFFFFDD007E0234DC00DD00DE00EC0AFD27380FDC000D
S125017618E306DD00DC00C3FFFFDD00DC00DE00ED03DC00DE00ED05DC00DE00ED0118E608DE29
S125019800E707CC0000DE00ED08CC0000DE00ED0CCC0000DE00ED0EDC00FD272EDC00FD27320C
S12501BABDC034FC272EDE00ED01FC2736DD0027037E01DDDC00FD2736CC0000DE00ED0A7E023E
S12501DC28DE00E607D701D601DE00E10722037E020DDC00DE00ED0ADC00FD27367E0228DE0076
S12501FEEC0ADD00D601DE00E10723037E021ADC00DD00DE00EC0A27037E01FCDE00EC0ADE00C7
S1250220ED0ADC00DE00ED0A0EDE00E6004F5D2C014ADD0038DF0038DF0038DF0038DF00183892
S125024239183C1830DE003C7D273A27037E0255BD00000FCEC0003CC608D701BD0851BD06ECC9
S1250264FC2736FD2734FC2736DD00DE00EC01FD272EBDC026BD08583838DF00183839183C186C
S125028630DE003CDE003C0FFC2734DD00DE00EC01DD00DC00DE001AA30323037E02B1DC00DE78
S12502A8001AA30525037E02B4BD0858FC2734DD00DE00EC0C27037E02E7CC0001DE00ED08DCDE
S12502CA00C30001DD00DC00FD2730BD038DDC00FD2734DE00EC01FD272EBDC0170E38DF0038AE
S12502ECDF00183839183C1830BD0858183839183C1830DE003CDE003CDE003CCE00053CFC98B5
S125030EB1DD00FC98B3ED00BD0777BD072FBD052C38D60126037E037CFC2734DD00DE00EC01B7
S1250330DD00DC00DE001AA30323037E034ADC00DE001AA30525037E034DBD0858FC2734DD009C
S1250352DC00C30001DD00DC00FD2730CC0000DE00ED08BD038DDC00FD2734DE00EC01FD272E9B
S1250374C601F798007E0381D601F7980038DF0038DF0038DF00183839183C1830DE003CFC27FE
S125039636DD0026037E03B9DE00EC0827037E03AEDC00DD007E03C1DE00EC0ADD0027037E0349
S12503B89EBD0858CC0000DD0038DF00183839183C18308FD600378FCDEE063CCDEE043CCE008E
S12503DA003CBD03F3D601D700D6004FDD003838388F33D7008F1838393C3C183C1830DE003CD7
S12503FCDE003CDE003CD601D7010FFC273B27037E04180ECC0001DD007E051EBD0696DC002712
S125041E037E042B0ECC0002DD007E051EFC273BDD00DE00EC0DFD273BFC2734DD00DE00E60045
S1250440DE00E702D601D701BD0696DC00DE00ED03CDEE083CFC98B1DD00FC98B3ED00BD07778D
S125046218EC02DE00ED0518EC04DE00ED0718EC0ADE00ED0918EC0CDE00ED0B38FC273DDD0087
S125048427037E0498DC00FD273DCC0000DE00ED0D7E0518DE00EE073CDE00EE053CDE00EC05A7
S12504A6DD00DE00EC07ED00BD07D23838D6012E037E04C9FC273DDE00ED0DDC00FD273D7E0544
S12504C818FC273DDD00DE00EC0D26037E050ADE00EC0DDD00DE00EE073CDE00EE053CDE00EC92
S12504EA05DD00DE00EC07ED00BD07D23838D6012F037E050ADE00EC0DDD0027037E04D7DE009B
S125050CEC0DDE00ED0DDC00DE00ED0D0ECC0000DD0038DF0038DF0038DF001838383839183CFB
S125052E1830DE003CDE003CDE003C8FD600378FC600D700FC273D26037E05CBFC273DDD00FE37
S125055098B33CFE98B13CDE00EC05DD00DE00EC07ED00BD07D23838D6012F037E05CBFC273D54
S1250572DD00DE00EC03DD0027037E0582BD0858CC0000DE00ED08FC273DDD00DE00EC0DFD27B9
S12505943DDE00EC0C27037E05A7DC00DE00ED0C7E05B3DE00EC0EDD00DC00DE00ED0DDC00DECE
S12505B600ED0ECC0000DE00ED0D7C0000FC273D27037E054AD6004FDD008F33D7008F38DF006C
S12505D838DF0038DF00183839183C1830DE003CFC2734DD00DE00EC0CDD0026037E05FDCC0034
S12505FA01DD00DC00DD0038DF00183839183C1830DE003CDE003CDE003CDC00DD000FFC27349B
S125061CDD00DE00EC0CDD0027037E06320ECC0000DD007E0680DC00DE001AA30E27037E064F0B
S125063ECC0000DE00ED0CCC0000DE00ED0E7E0657DE00EC0DDE00ED0CDC0026037E066EDE00F0
S1250660EC09DE00ED00DE00EC0BDE00ED02FC273BDE00ED0DDC00FD273B0ECC0001DD0038DFD2
S12506820038DF0038DF00183839183C18307E0690183839183C1830DE003C8FD600378FD601AA
S12506A4D701D601C10A22037E06B2BD0858D601D700D6004FDD00DC0005050505DD00CC0000F5
S12506C6DD00DE008FC398098FEC001A83000226037E06E1DC00C39801DD008F33D7008F38DF64
S12506E800183839183C1830DE003CFC100EDD00DC00C32710DD00DC00FD1018F61022D701D62C
S125070A01CA40D701D601F71022C640F71023F61020D701D601C43FD701D601F7102038DF00F1
S125072C183839183C1830DE003CFC1018DD00DC00C32710DD00DC00FD1018C640F7102338DF6C
S107074E001838391A
S107A6A200010000AF
S125C0000FBD02FB7D98002708FE2730AF00BE272E32B4FFEF363B183C3C363707B4FFEF36FED7
S125C0222730AF00BE272E328A100633323818380E39BFA6A2BE272ECC02F13736FC27323736D1
S114C044183C3C363707B4FFEF36BF272EBEA6A239B8
S12507523C3C183C1830CC000018ED04CC000018ED02CC0000DE00ED0018EC04DE00ED02183809
S12507743838393C3C183C1830DE003CDE003CDE003CDC0018ED02EC0018ED0418EC08DD00ECA7
S125079600D300DD00DC0018ED04DC001A930025037E07B6DC00C30001DD00DC0018ED0218EC58
S12507B802DE00ED0018EC04DE00ED0238DF0038DF0038DF0018383838393C3C183C1830DE0049
S12507DA3CDC0018ED02EC0018ED0418EC08DD00DC001A930024037E082722037E0801CC000126
S12507FCDD007E082C18EC0ADD00EC001A930024037E0827CC0001DD00EC001A930023037E0801
S125081E2CCC0000DD007E082CCCFFFFDD0038DF001838383839183C18300FC600F71022C60016
S1250840F71024C60CF7103FC6A0F710390E183839183C1830183839183C1830DE003CDE003C1D
S1250862CC0000DD000FF61009D701D601CA10D701D601F71009F61000D701D601C808D701D62E
S125088401F71000F61008D701D601C4EFD701D601F71008DC0026037E0878DE0008DF00270326
S11208A67E089F7E087838DF0038DF0018383965
S11F800086FFB710098600B7100886FFB7100820EFCE0000DF000EBD271E20FE78
S104C0553BAB
S1257FACC055C055C055C055C055C055C055C055C055C055C055C055C055C055C055C055C0554A
S10B7FCEC055C055C055000068
S12508B5183C18303C18EC024F05C3BFD08F18EC04ED0038183839183C1830C60137CE01003CAF
S12508D7CE9F533CCC0F47DD00BD0132D601F7A053383833183839616E616C6F6720002076619A
S12508F96C756520000D0A003C34183C1830DE003CDE003CDE003C8FD600378FD601D701BD1655
S125091B11D601D701CC08EEDD00BD1AFAC6023718DF00DC00C30002DD00DE003CD601D700D674
S125093D004FDD00BD210E18DF00DC00C30002DD00BD1AFACC08F6DD00BD1AFAC6023718DF00C8
S125095FDC00C30002DD00DE003CD601D700D6004FDD00BD210E18DF00DC00C30002DD00BD1AF2
S1250981FACC08FEDD00BD1AFA3838388F33D7008F38DF0038DF0038DF0018383831396469679B
S12509A36974616C20003C34183C1830DE003CDE003CDE003C8FD600378FD601D701BD1659D62E
S12509C501D701CC09A0DD00BD1AFAC6023718DF00DC00C30002DD00DE003CD601D700D6004FAF
S12509E7DD00BD210E18DF00DC00C30002DD00BD1AFACC08F6DD00BD1AFAC6023718DF00DC0091
S1250A09C30002DD00DE003CD601D700D6004FDD00BD210E18DF00DC00C30002DD00BD1AFACC5D
S1250A2B08FEDD00BD1AFA3838388F33D7008F38DF0038DF0038DF0018383831396D6F746F72B9
S1250A4D200020737065656420003C34183C1830DE003CDE003CDE003C8FD600378FD601D701DE
S1250A6FBD18BFD601D701CC0A48DD00BD1AFAC6023718DF00DC00C30002DD00DE003CD601D716
S1250A9100D6004FDD00BD210E18DF00DC00C30002DD00BD1AFACC0A4FDD00BD1AFAC602371821
S1250AB3DF00DC00C30002DD00DE003CD601D700D6004F5D2C014ADD00BD210E18DF00DC00C3A0
S1250AD50002DD00BD1AFACC08FEDD00BD1AFA3838388F33D7008F38DF0038DF0038DF00183866
S1250AF738313961203F203D20616E616C6F6720696E7075742068656C700D0A00612031203D49
S1250B19207265616420616E616C6F6720696E70757420310D0A0062203F203D2062696E617266
S1250B3B7920696E7075742068656C700D0A00622038203D20726561642062696E6172792069EA
S1250B5D6E70757420380D0A006D203F202020203D206D6F746F722068656C700D0A006D2031C4
S1250B7F202020203D2073686F7773207370656564206F66206D6F746F7220310D0A006D2032A1
S1250BA1203520203D2073657473206D6F746F72203220746F20666F72776172642073706565F5
S1250BC36420350D0A006D2033202D32203D2073657473206D6F746F72203320746F20626163D4
S1250BE56B7761726420737065656420320D0A006D2078202020203D2073746F707320616C6CC3
S1250C07206D6F746F72730D0A0061203D20616E616C6F6720696E7075740D0A0064203D2064F0
S1250C29756D7020286D656D6F7279290D0A006D203D206D6F746F720D0A003F203D2068656C0B
S1250C4B700D0A00756E6B6E6F776E20636F6D6D616E642C203F20666F722068656C700D0A001B
S1250C6D3C3C183C1830DE003CDE003CDE003CDE003CBD24B7DE00E6004FDD00DC001A83006282
S1250C8F26037E0DAA2F037E0CB9DC001A83006126037E0D4EDC0026037E0F24DC001A83003F22
S1250CB126037E0EFC7E0F1CDC001A83006426037E0CD2DC001A83006D26037E0E067E0F1CCC4B
S1250CD30000DD00C6023718DF00DC00C30002DD00DE003CDC00DD00BD223518DF00DC00C3002D
S1250CF502DD00BD1AFACC0020DD00BD1AC1DC00DD002D037E0D13DC00C3000FDD00CCFFF0DD1E
S1250D1700DC009400D401DD00DC009300DD003833DC001A83000F27037E0D3BCC08FEDD00BDF9
S1250D391AFADE0008DF00DC001A83007F2E037E0CD77E0F24CC0000DD00BD2440DC00DD00DE1F
S1250D5B00E6004FDD0026037E0D9ADC001A83003F26037E0D9ADE00E600D701BD1F70DC002622
S1250D7D037E0D8EDC00DD00BD2016BD09017E0D93CC0001DD00DC0026037E0F24CC0AFADD0096
S1250D9FBD1AFACC0B14DD007E0F21CC0000DD00BD2440DC00DD00DE00E6004FDD0026037E0DC0
S1250DC1F6DC001A83003F26037E0DF6DE00E600D701BD1F70DC0026037E0DEADC00DD00BD20BC
S1250DE316BD09A97E0DEFCC0001DD00DC0026037E0F24CC0B30DD00BD1AFACC0B4ADD007E0F4B
S1250E0521CC0000DD00BD2440DC00DD00DE00E6004FDD00DC001A83007826037E0E3E2F037E9F
S1250E270E63DC0026037E0ED4DC001A83003F26037E0ED47E0E63C600D701C60037D601D70155
S1250E49BD1923D601D701BD0A57337C0001D601C10322037E0E427E0ECDDE00E600D701BD1FAE
S1250E6B70DC0026037E0EC8DC00DD00BD2016D601D701DC00DD00BD2440DC00DD00DE00E600E6
S1250E8DD701BD1F35DC0026037E0EB5DC00DD00BD2016D60137D601D701BD1923D601D701BD42
S1250EAF0A57337E0ECDDE006D0027037E0ED4D601D701BD0A577E0ECDCC0001DD00DC00260386
S1250ED17E0F24CC0B66DD00BD1AFACC0B7CDD00BD1AFACC0B9EDD00BD1AFACC0BC9DD00BD1AE7
S1250EF3FACC0BF5DD007E0F21CC0C11DD00BD1AFACC0C24DD00BD1AFACC0C38DD00BD1AFACCBD
S1250F150C44DD007E0F21CC0C4FDD00BD1AFA38DF0038DF0038DF0038DF0018383838393E2053
S1250F3700183C1830CC0F35DD00BD1AFA1838393C3C34183C1830DE003CDE003C8FD600378F0A
S1250F59C600D700BD0F38BD17DEDC0026037E0F75C6FA37C600D701BD192333BD1806DC00267A
S1250F7B037E0F8AC60637C600D701BD192333CDEE043CCDEE023CCE00643CF6A053D701BD0386
S1250F9DF3BD028318DF00DC00C30002DD00BD060738383818DF00DC00C30006DD00BD1B56DC8F
S1250FBF0026037E0F6018E606D701D601C10D26037E0FDCD601C10A27037E0FFFD6004FDD0089
S1250FE1C600E700C600D700CC08FEDD00BD1AFACC9F2ADD00BD0C6DBD0F387E0FB1D601C10896
S125100327037E1030D60026037E0FB1D600CBFFD700CC0008DD00BD1AC1CC0020DD00BD1AC181
S1251025CC0008DD00BD1AC17E0FB1D601CBE0D701D601C15F23037E0FB1D600C12723037E10F7
S125104760D6004FDD00D601E7007C000018E6064FDD00BD1AC17E0FB1CC0021DD00BD1AC17E01
S11610690FB18F33D7008F38DF0038DF0018383838313930
S105273F000094
S125107C3C3C3C183C1830C67418E702C60018E703C63E18E704C60C18E705C60618E706C6A0E7
S125109E18E707BD1433C6063718DF00DC00C30002DD00BD1490BD10C1BD1302331838383838BE
S12510C039183C1830DE003CDE003CDE003C8FD600378FC600D701CC0000DD00C600D700D60002
S12510E24FDD00DC00D300DD00C6A0E7007C0000D600C10B22037E10E0DC00C3000CDD007C002E
S125110401D601C10222037E10DCC600F7273FC600F727408F33D7008F38DF0038DF0038DF00E7
S1251126183839183C1830DE003CDE003CDE003CD601D70118E604D70118EC05DD00D60137BDF6
S12511481165DE003CD60137D601D701BD1129383838DF0038DF0038DF00183839183C1830DE85
S125116A003C18E604D701D601C10B23037E118DD601C10223037E118DD601F7273FD601F7275F
S125118C4038DF00183839183C1830DE003CDE003CDE003C8FD600378FDC00DD00C600D700DE14
S12511AE006D0026037E121DD6004FDD00DC00D300DD00DE00E600D701BD1231F627404FDD0025
S12511D0F6273F860C3DDD00DC00D300DD00D601E7007C2740F62740C10B22037E1206C600F723
S12511F227407C273FF6273FC10222037E1206C600F7273F7C0000D6004FDD00DC00D300DD0087
S1251214DE006D0027037E11B6BD13028F33D7008F38DF0038DF0038DF00183839183C1830DEB8
S1251236003C8FD600378FD601C12427037E124ECC0082DD007E1294D601C14027037E125FCC5B
S125125800C0DD007E1294D601CBDFD701D601C13922037E1285D601CB9FD701D601C11922035C
S125127A7E1285CC00A0DD007E1294D601CB80D701D601D700D6004FDD008F33D7008F38DF00E3
S125129C183839183C1830DE003CDE003CDE003C8FD600378FD601D70118E604D700D600C10B64
S12512BE23037E12F1D601C10223037E12F1D6004FDD00D601860C3DDD00DC00D300DD0018E613
S12512E005E700BD1302D60037D601D701BD13A4338F33D7008F38DF0038DF0038DF00183839D1
S1251302183C1830DE003CDE003CDE003CDE003C8FD600378FC600D701CC0000DD00C620D70191
S1251324BD14F3C674D701BD1520C600D701BD1520D601CA80D701BD1520BD15D4BD14F3C674BC
S1251346D701BD1520C640D701BD1520C600D700D6004FDD00DC00D300DD00E600D701BD15200C
S12513687C0000D600C10B22037E1356BD15D4DC00C3000CDD00D601CB20D7017C0001D601C158
S125138A0222037E13248F33D7008F38DF0038DF0038DF0038DF00183839183C1830DE003CDEC0
S12513AC003CDE003C8FD600378FD601D70118E604D701BD14F3C674D701BD1520C600D701BDEE
S12513CE1520D601CB01D701D6015858585858D701D601DB01D701D601CA80D701BD1520BD159A
S12513F0D4BD14F3C674D701BD1520C640D701BD1520D601D700D6004FDD00D601860C3DDD0038
S1251412DC00D300DD00E600D701BD1520BD15D48F33D7008F38DF0038DF0038DF0018383918C4
S12514343C1830DE003CF61009D701D601CA04D701D601F71009F61009D701D601CA20D701D653
S125145601F71009F61008D701D601C4DFD701D601F71008F61008D701D601CA04D701D601F710
S12514781008F61008D701D601CA20D701D601F7100838DF00183839183C1830DE003CDE003C61
S125149ADE003C8FD60037D600378FDC00DD0018E604D701C600D700BD14F37E14CFD6004FDD83
S12514BC00DC00D300DD007C0000DE00E600D701BD1520D601D700D600D10024037E14B8BD15DC
S12514DED48F33D70033D7008F38DF0038DF0038DF00183839183C1830DE003CF61008D701D6A2
S125150001C4DFD701D601F71008F61008D701D601C4FBD701D601F7100838DF00183839183C35
S12515221830DE003CDE003CDE003CD601D701C680D701D601D401D70126037E154EF61008D7CD
S125154401D601CA20D7017E1559F61008D701D601C4DFD701D601F71008F61008D701D601CA56
S125156604D701D601F71008F61008D701D601C4FBD701D601F71008D60154D70127037E15356E
S1251588F61009D701D601C4DFD701D601F71009F61008D701D601CA04D701D601F71008F610CE
S12515AA08D701D601C4FBD701D601F71008F61009D701D601CA20D701D601F7100938DF003831
S12515CCDF0038DF00183839183C1830DE003CF61008D701D601C4DFD701D601F71008F6100898
S12515EED701D601CA04D701D601F71008F61008D701D601CA20D701D601F7100838DF001838D0
S125161039183C1830DE003C8FD600378F0FD601C407D701D601F71030F61030D7012D037E1631
S1251632290EF61031D700D6004FDD008F33D7008F38DF001838395B002C0041004200430044F2
S1251654005D0D0A003C34183C1830DE003CDE003CDE003C8FD60037D600378FD601D701CC16D9
S125167649DD00BD1AFAD601D700D6004FDD00CE00023C18DF00DC00C30002DD00DE003CDC0030
S1251698DD00BD210E18DF00DC00C30002DD00BD1AFACC164BDD00BD1AFA3838D601C10922030C
S12516BA7E16C5CC0000DD007E17C8DC001A83000826037E170E2F037E16E3DC001A830007260F
S12516DC037E16F17E175EDC001A83000926037E17307E175EF61000D701DC004353C30000DD1A
S12516FE00DC004FC401DD00CC164DDD007E178AF61000D701D60154D701DC004353C30000DDDB
S125172000DC004FC401DD00CC164FDD007E178AF61000D701D601D700D60054545454545454FB
S1251742D700D6004FDD00CC0001DD00DC009800D801DD00CC1651DD007E178AF67FFF4FDD0005
S1251764DC00DE002F0547560926FBDD00CC0001DD00DC009800D801DD00DC004FC401DD00CC60
S12517861653DD00BD1AFACC164BDD00BD1AFACE00013C18DF00DC00C30002DD00DE003CDC00D5
S12517A8DD00BD210E18DF00DC00C30002DD00BD1AFACC1655DD00BD1AFADC00DD0038388F333C
S12517CAD70033D7008F38DF0038DF0038DF001838383139183C1830DE003CF67FFF54545454D8
S12517EC5454D701DC004353C30000DD00DC004FC401DD0038DF00183839183C1830DE003C8F93
S125180ED600378FF67FFF54545454545454D700D6004FDD00CC0001DD00DC009800D801DD00AB
S10E18308F33D7008F38DF00183839E1
S1192741000080808888AAAAEEEEFEFEFFFF000000000000000044
S125183B183C1830DE003C0FC600F77FFFC60037C600D701BD1923C60037C601D701BD1923C698
S125185D0037C602D701BD1923C60037C603D701BD1923BD19C9CE19993CCC0007DD00BD0851DD
S125187FFC100EDD00DC00C34E21DD00DC00FD101AF61022D701D601CA20D701D601F71022C6FF
S12518A120F71023F61020D701D601C4CFD701D601F710200E38383838DF00183839183C1830A7
S12518C3DE003CDE003C8FD600378FD601C10322037E18DFCC0000DD007E1915D601D700D60092
S12518E54FDD00E600D701DE008FC327538FE600C10F26037E1903D601D7007E190CD60150D7F2
S125190701D601D700D6004F5D2C014ADD008F33D7008F38DF0038DF00183839183C1830DE00DC
S12519293CDE003CDE003C8FD600378FD601D70118E604D701D601C10323037E1985D601D700E9
S125194BD6004FDD00C600E700D6012C037E1962C600E7007E196BD60150D701C60FE700D60187
S125196DC1062E037E1978C606D701D601D700D6004FDD00D601E700BD19C98F33D7008F38DF5D
S125198F0038DF0038DF00183839183C1830BD19C9BD19A6183839183C1830DE003CFC101ADD82
S11B19B100DC00C34E21DD00DC00FD101AC620F7102338DF001838397C
S105275700017B
S12519C9183C1830DE003CDE003CDE003CDE003CDE003C8FD600378FC600D701C611D701D6018B
S12519EBD700FC2757DD00D6004FDD00E6004FDD00DC0005DD00DE008FC327418FEC009400D45B
S1251A0D01DD0026037E1A2EDE008FC327538FE600CAF0D701D601D401D701D601DA01D701D651
S1251A2F0158D7017C0000D600C10322037E19F2FC275705DD00DC00FD275727037E1A55CC0006
S1251A5101FD2757D601F77FFF8F33D7008F38DF0038DF0038DF0038DF0038DF00183839183C2F
S1251A7318300FC610F7102CC6ACF7102DC630F7102BBD1A99CE1C183CCC0000DD00BD08510EA4
S1251A9538183839183C1830C61437CEA0883CCCA078DD00BD1C8CC6FF37CEA09C3CCCA080DD5A
S1251AB700BD1C8C383838183839183C1830DE003CF6102DD701D601C47FD701D601F7102DD6DF
S1251AD90137CCA080DD00BD1D4FF6102DD701D601CA80D701D601F7102D3338DF0018383918C3
S1251AFB3C1830DE003CDE003CDC00DD00F6102DD701D601C47FD701D601F7102DDE006D0026DB
S1251B1D037E1B3DDE00E60037CCA080DD00BD1D4FDE0008DF0033DE006D0027037E1B21F610AF
S1251B3F2DD701D601CA80D701D601F7102D38DF0038DF00183839183C1830DE003C8FD600376E
S1251B618FF6102DD701D601C4DFD701D601F7102DDE003CCCA078DD00BD1CBDF6102DD701D615
S1251B8301CA20D701D601F7102DD601D700D6004FDD00388F33D7008F38DF00183839183C1852
S1251BA530DE003CDE003CDE003CCC0000DD00DC00DD00F6102DD701D601C4DFD701D601F710FF
S1251BC72D18E6044FDD00DE003CDE0008DF00CCA078DD00BD1CBD38D60126037E1BF8DC001AA8
S1251BE993002D037E1BF8DE0008DF007E1BCEF6102DD701D601CA20D701D601F7102DDC00DDEE
S1251C0B0038DF0038DF0038DF0018383934183C1830DE003CDE003C0FF6102ED7012D037E1CFC
S1251C2D6418DF00DC00C30002DD00DE003CCCA080DD00BD1CBD38D60126037E1C5418E602F722
S1251C4F102F7E1C64F6102DD701D601C47FD701D601F7102DF6102ED701D601C420D701260362
S1251C717E1C81F6102F37CCA078DD00BD1D4F330E38DF0038DF0018383139183C1830DE003CFD
S1251C9318EC04DD00DC00DE00ED00DC00DE00ED02DC00DE00ED0418E606DE00E706C600DE00D8
S1251CB5E70738DF00183839183C1830DE003CDE003CDE003CDE003CDE003CDE00EC04DD00DCD6
S1251CD700DE001AA30226037E1D3818EC04DD00DE00E600DE00E700DE00EC04DD00DC00C30096
S1251CF901DD00DC00DE00ED04DE00E6064FDD00DE00EC00DD00DC00D300DD00DC00C3FFFFDD99
S1251D1B00DC00DD00DC001A930022037E1D30DC00DE00ED04CC0001DD007E1D3DCC0000DD009A
S1251D3D38DF0038DF0038DF0038DF0038DF00183839183C1830DE003CDE003CDE003CDE003C80
S1251D5FDE003C8FD600378FC600D700DE00EC02DD0018E604DE00E700DE00EC02DD00DC00C3C4
S1251D810001DD00DC00DE00ED02DE00E6064FDD00DE00EC00DD00DC00D300DD00DC00C3FFFFEF
S1251DA3DD00DC00DD00DC001A930022037E1DB9DC00DE00ED02DE00EC02DD00DC00DE001AA3B9
S1251DC50427037E1E0ADC00C30001DD00DC00DE00ED04C601D700DE00E6064FDD00DE00EC009E
S1251DE7DD00DC00D300DD00DC00C3FFFFDD00DC00DD00DC001A930022037E1E0ADC00DE00ED3F
S1251E0904D6004FDD008F33D7008F38DF0038DF0038DF0038DF0038DF00183839183C1830DE0F
S1251E2B003CF61000D701D601C808D701D601F7100038DF00183839183C1830DE003CDC001ACE
S1251E4DB3A19B26037E1E9FDC00FDA19BFC100EDD00DC00D300DD00DC00FD101EC608F7102385
S1251E6FF61020D701D601CA01D701D601F71020F61020D701D601C4FDD701D601F71020F61065
S1251E9122D701D601CA08D701D601F7102238DF00183839183C1830DE003CF61022D701D60183
S1251EB3C47FD701D601F71022F61020D701D601C4FCD701D601F71020CC0000FDA19B38DF0067
S1251ED5183839183C1830DE003CFC100EDD00DC00F3A19BDD00DC00FD101EC608F7102338DFB3
S1251EF700183839183C1830DE003C8FD600378FD601C820D701D601D700D6004FDD00DC00C375
S1251F19FFFFDD00DC00CE000F2F04040926FCDD008F33D7008F38DF00183839183C1830DE008D
S1251F3B3CD601CBD0D701D601C10922037E1F5DD601C12D26037E1F5DD601C12B27037E1F6563
S1251F5DCC0001DD007E1F6ACC0000DD0038DF00183839183C1830DE003CD601CBD0D701CC0098
S1251F7F01DD00D601C10922037E1F90CC0000DD0038DF00183839183C1830DE003CD601CBD0FA
S1251FA1D701D601C10922037E1FD7D601CBBFD701D601C10522037E1FD7D601CB9FD701CC00B4
S1251FC301DD00D601C10522037E1FDCCC0000DD007E1FDCCC0001DD0038DF00183839183C1807
S1251FE530DE003C8FD600378FD601CBD0D701CC0000DD00D601C10923037E200BD601D700D67A
S1252007004FDD008F33D7008F38DF00183839183C1830DE003CDE003CDE003CDE003C8FD60056
S125202937D600378FDC00DD00C600D700DE00E600C12027037E205A7C0000D6004FDD00DC0047
S125204BD300DD00DE00E600C12026037E2041D6004FDD00DC00D300DD00DE00E600D701C60121
S125206DD700D601C12D27037E2085C6FFD700D601C12D26037E208ED601C12B27037E20917C16
S125208F0000CC0000DD007E20C7DC000505DD00DC00D300DD00DC0005DD00DC00C3FFD0DD00C5
S12520B1DC00D300DD00DE00E6004FDD00DC00D300DD007C0000D6004FDD00DC00D300DD00DE19
S12520D300E600CBD0D701D601C10922037E2099D6004F5D2C014ADD00DC00DE003CBD000038D0
S12520F5DD008F33D70033D7008F38DF0038DF0038DF0038DF00183839183C1830DE003CDE003D
S12521173CDE003CDE003CDE003C8FD60037D60037D600378FDC00DD0018EC04DD0018E606D75A
S125213900C600D700DC002D037E215ED600D10025037E2158C62DDE00E700C601D7004F5F937D
S125215B00DD00CC0001DD00DC001A83000922037E21E6DC000505DD00DC00D300DD00DC00057B
S125217DDD00DC00050505DD00DC00D300DD00DC0005DD00DC001A930022037E216E7E21E6DC31
S125219F00DE0002DF00D601D700D6004FDD00DC00DE003CBD000038DD00DC009300DD00D600C1
S12521C1D10025037E21DED6004FDD00DC00D300DD00D600CB30DE00E7007C0000DC00CE000A2E
S12521E302DF00DC0027037E219ED600D10025037E2207D6004FDD00DC00D300DD00C600DE000A
S1252205E700D6004FDD00DC00D300DD00C600DE00E7008F33D70033D70033D7008F38DF003828
S1252227DF0038DF0038DF0038DF00183839183C1830DE003CDE003CDE003C8FD60037D6003751
S1252249D60037D600378FDC00DD0018EC04DD0018E606D700D600D70026037E22B2D601D70077
S125226BD600C40FD700D6004FDD00DC00D300DD00DC00C3FFFFDD00D600C10923037E2297D6F2
S125228D00CA30DE00E7007E229FD600CB37DE00E700DC0004040404DD00D600CBFFD700270326
S12522AF7E2267D6004FDD00DC00D300DD00C600DE00E7008F33D70033D70033D70033D7008FA3
S12522D138DF0038DF0038DF00183839183C1830DE003C8FD600378FD601CBD0D701D601C1094D
S12522F322037E232DD601CBBFD701D601C10523037E2310D601CBC9D7017E232DD601CB9FD7FC
S125231501D601C10522037E2327CC0000DD007E2336D601CBA9D701D601D700D6004FDD008F35
S125233733D7008F38DF00183839183C1830DE003CDE003CDE003C8FD600378FCC0000DD00DCAD
S125235900DD00DE00E600D701BD1F96DC0026037E2398DE00E600D701BD22DDD601C11026030C
S125237B7E2398DC0005050505DD00D601D700D6004FDD00DC00D300DD007E235CDC00DD008FB5
S125239D33D7008F38DF0038DF0038DF00183839183C1830DE003CDE003CDE003CDE003CDE00D1
S12523BF3CDE003C8FD60037D600378FDC00DD0018EC04DD0018E606D701C600D7007E2405D6D6
S12523E1004FDD00DC00D300DD00DE00E600D70126037E2412DC00D300DD00D601DE00E7007C01
S12524030000D601D700D600D10024037E23E0D6004FDD00DC00D300DD00C600DE00E7008F33DB
S1252425D70033D7008F38DF0038DF0038DF0038DF0038DF0038DF00183839183C1830DE003C58
S1252447DE003CDE003CDE003CDC00DD00CC0001DD00CC0000DD00DC00D300DD00DE00E600D7EE
S12524690126037E24A2DC0026037E248CD601D701BD1EFBDC0026037E249ACC0000DD007E249B
S125248B9AD601D701BD1EFBDC0026037E24A2DE0008DF007E245EDC00D300DD0038DF0038DF44
S12524AD0038DF0038DF00183839183C1830DE003CDE003CDE003CDC00DD00CC0000DD00DC002A
S12524CFD300DD00DE00E600D701BD1EFBDC0026037E24EBDE0008DF007E24CDDC00D300DD0073
S12524F138DF0038DF0038DF001838393C3C3C183C1830DE003CDE003CC620D701CCFF00DD000D
S125251318EC069400D40118ED06BD028318DF00DC00C30002DD00BD0607D60126037E251D18CB
S1252535E6024FDD00DC001A83000126037E2553DC001A83000226037E25747E251D7C0001D605
S125255701C12622037E2563C621D701D60137C60B37C600D701BD129F387E251D18E60318E772
S12525790618DF00DC00C30006DD00BD11937E251D38DF0038DF001838383838393C3C183C1859
S125259B30DE003CC606D701CC000018ED02D60137C600D701BD1923CDEE043CCDEE023CCE01F1
S12525BDF43CF6A6A1D701BD03F3BD028318DF00DC00C30002DD00BD0607D60150D701C60118A1
S12525DFE702CDEE043CCDEE023CF6A69DD701BD03C7308FC3000B8F357E25A938DF0018383825
S125260138393C3C183C1830DE003CC606D701CC000018ED02D60137C601D701BD1923CDEE0438
S12526233CCDEE023CCE02583CF6A69ED701BD03F3BD028318DF00DC00C30002DD00BD0607D6DC
S12526450150D701383838337E261638DF0018383838393C3C183C1830DE003CC606D701CC0003
S12526670018ED02D60137C602D701BD1923CDEE043CCDEE023CCE02BC3CF6A69FD701BD03F31D
S1252689BD028318DF00DC00C30002DD00BD0607D60150D701383838337E266B38DF0018383822
S12526AB38393C3C3C3C183C1830DE003CC606D701CC000018ED02D60137C603D701BD1923CD06
S12526CDEE043CCDEE023CCE00D23CF6A6A0D701BD03F3C60118E702CDEE043CCDEE023CF6A6C5
S12526EF9DD701BD03C7BD028318DF00DC00C30006DD00BD0607D60150D701308FC3000B8F35F4
S12027117E26C238DF0018383838383839183C1830BD0000BD107C7E2725183839CC
S9030000FC
