S00D000070726573746F2E7331394A
S1138000F6C835FAC836FAC837FAC838CE7FFFCA78
S1138010F0E700393C3C18304F5F18ED0218ED00D2
S1138020373618EC003736CE03E83C3CF6C831BD91
S113803084B3383838388F308FBD84EAF6C835C8F1
S113804001F7C8358DBA20EE3C3C18304F5F18ED6F
S11380500218ED00373618EC003736CE02BC3C3C33
S1138060F6C832BD84B318381838183818388F3029
S11380708FBD84EAF6C836C802F7C8368D82183038
S113808018EC02373618EC003736F6C831BD846177
S1138090183018EC06373618EC043736F6C833BDFA
S11380A0846120C23C3C304F5FED02ED008F308F85
S11380B0BD84EAF6C837C804F7C837BD800020ED90
S11380C03C3C18304F5F18ED0218ED00373618ECC1
S11380D0003736F6C834BD846138388F308FBD849C
S11380E0EAF6C838C808F7C838BD8000183018EC5C
S11380F002373618EC003736F6C833BD84611830C1
S113810018EC06373618EC043736F6C834BD8461EB
S1138110183818381838183820C15FF7C831F7C82C
S113812032F7C833F7C834F7C835F7C836F7C83755
S1138130F7C838BD81A4C623373418CE0100183CD3
S1138140CEC0003CCC8014BD8281F7C831C61E3736
S11381503418CE0100183CCEC3003CCC8048BD820C
S113816081F7C832C614373418CE0100183CCEC289
S1138170003CCC80A4BD8281F7C833C605373418CF
S1138180CE0100183CCEC1003CCC80C0BD8281F73A
S1138190C834BD84214F5FBD8ADE4F5F308FC3007A
S11381A0188F35393C3C347DC83F27037E827DCC13
S11381B0C400BD8A37306F0018304F18E60005053B
S11381C0050518ED03DD0018DE00C3C449188F3718
S11381D03638C3C44F8FCDEF00C3C43F8F18301857
S11381E0E600E70018EC03C3C447CE0002DD021822
S11381F0DF0418DE02CDEF0018DE04186C0018E668
S113820000C10C23B34F5FFDC50918CEC43F18FF4E
S1138210C83D30E700C61430A6003DED01373638BE
S1138220C3C5218F18DF041830C3C523ED0018DF40
S11382300218EE01188FC3C50F188FDE02E600186E
S1138240E7005CE700C12723CC18CE000018FFC864
S11382502DCCC50FFDC840C601F7C83F188F37188D
S11382608F3418CE0032183CCEC40B3CCC891B8D05
S113827010F7C40ABD891DFDC43D3838383838317B
S113828039308FC3FFF68F3530ED00F6C83F260630
S1138290CC0002BD8ADEFCC83D260CCC0008BD8A99
S11382A0DECCFFFF7E8419070F183018ED0218DFAB
S11382B00418FEC83DCDEE0AFFC83D18DF0218DEE3
S11382C00418EC0C18E30E18ED068F0918DE02CD25
S11382D0EF0318DE0418EC0CDF04DE02ED0518E6EB
S11382E011E70718CE00001AEF081AEF0C1AEF0E68
S11382F0183018E601DE04E700CDEE0609094F1830
S1138300E600E700CDEE06090909C666E700CDEEF2
S11383100609090909C655E700CDEE068FC3FFFB20
S11383208FC644E700CDEE068FC3FFFA8FC633E74E
S113833000CDEE068FC3FFF98FC611E700CDEE0620
S11383408FC3FFF88FC622E700CDEE068FC3FFF779
S11383508F5FE700CDEE068FC3FFF68FC6BBE70045
S1138360CDEE068FC3FFF58FC6AAE700CDEE068FCC
S1138370C3FFF48FC6DDE700CDEE068FC3FFF38F96
S1138380C6CCE700CDEE068FC3FFF28FC6FFE70031
S1138390CDEE068FC3FFF18FC6EEE700CDEE068F5C
S11383A0C3FFF08F18DE02CDEF01FEC83B260BDEC3
S11383B002FFC83B4F5FED0A204DFEC83BDF04DEE1
S11383C002E607DE04E107231218DF0418DE02CDFB
S11383D0EF0A18FFC83B18DE04202C18FEC83BCD5A
S11383E0EE0A2715DE02E607CDEE0AE107220ADFD0
S11383F00018DE00CDEE0A26EF18EC0ADF04DE02D8
S1138400ED0ACDEF0ADE04183018EC0206DF04DEB4
S1138410024FE6002A014ADE04308FC3000A8F357A
S1138420390FCE85DE3CC608BD8B4718CE860618AC
S11384303CC610BD8B47BD85ABFEC83BFFC8391891
S11384403818382606CC000CBD8ADEFEC839EC018B
S1138450FDC844BEC8443838383BCC0009BD8ADE68
S1138460393430E700183018EC05373618EC033788
S113847036CE00003C3C30E608BD86884F5D2A01BC
S11384804A3838383831393430E700183018EC07B6
S1138490373618EC053736CE00003C183018EE0994
S11384A0183C30E608BD86884F5D2A014A383838C2
S11384B03831393430E700183018EC09373618EC05
S11384C007373630EE093C183018EE09183C30E610
S11384D008BD86884F5D2A014A383838383139FE5C
S11384E0C839EC0C2703CC0001393C3C3C30ED008E
S11384F0FEC839EC0C260818CE00011AEF083F0715
S11385000F183018ED04FEC839EC0C18ED02DD022A
S1138510DE022606CC0010BD8ADE183018EE0218E2
S1138520EC021AB3C8392706CC0011BD8ADEFEC896
S113853039183018EC021AA30E260B4F5FED0CFE0F
S1138540C839ED0E2014FEC83918DF04183018EEAF
S11385500218EE121AEF0C18DE0430EE002714187D
S113856030DF02CDEE02EC1018DE0218ED02EC0E44
S113857018ED00FCC840183018EE0218ED1218FF70
S1138580C840183018EC0406CDEE024FE6002A016C
S11385904A383838398FFCC406ED06FCC404ED04AF
S11385A0FCC402ED02FCC400ED0039CE100EEC0058
S11385B0C31388CE1018ED00CE10221C0040CE103C
S11385C023C640E700CE10201D00C039CE1018ECA1
S11385D000C31388ED00CE1023C640E70039DE0047
S11385E03CDE023CDE043CCE00143CCCC400BD8A1C
S11385F0538DD9BD880631315D27013F38DF0438FA
S1138600DF0238DF003BDE003CDE023CDE043CFEE1
S1138610C839EC011AA30322051AA3052406CC00C9
S113862001BD8ADEFEC8393C3233C30001FDC408F3
S1138630FFC82F8D3B8FFFC839BCC82F2728EC01FA
S11386401AA30322051AA3052406CC0001BD8ADE61
S1138650FEC839EC01FDC844BFC846FEC408FCC8C6
S113866046ED00BEC84438DF0438DF0238DF003B83
S1138670FEC83B270AEC0826028F39EE0A26F6CC00
S11386800007BD8ADE4F5F393C3C3C3430E700FCD8
S1138690C8402606CC000EBD8ADE183018E600BDA0
S11386A0891D30ED032606CC000FBD8ADE070F18A6
S11386B03018ED05FEC840CDEF01EC12FDC840FEB8
S11386C0C839E60018EE0118E70130EC0318ED0292
S11386D0FCC40618ED0AFCC40418ED08FCC4021816
S11386E0ED06FCC40018ED04EC01C300041AEE0905
S11386F0183CBD8A5330EC0DEE03ED0C1830CDEE72
S11387000318EC11ED1018EC0FED0E18EC07063100
S11387103130EE092709183018EC018D1F200F3075
S1138720EE033C183018EC03BD87D23F313130EEF4
S1138730014FE6002A014A38383831393C3C3C3094
S1138740ED00070FED02FEC8422611183018EE00A6
S113875018FFC842186F13186F12206CFCC842C36C
S113876000041830CDEE00080808083CBD8A7631B4
S1138770315D2B0F270DFCC84230EE00ED12FFC80F
S1138780422045FCC8422021301AEE0418EC12C3E2
S113879000041830CDEE00080808083CBD8A763184
S11387A0315D2E0F30EE04EC1230ED04188FCDEE57
S11387B01226D530EE04EC1230EE00ED121830CD56
S11387C0EE0018EE04CDEF12183018EC020638381B
S11387D038393CDD02301AEE04070FED00CDEE0C03
S11387E02607DC0218ED0C200BCDEE0EDD04DC02B6
S11387F0ED12DC04DE02CDEF0E4F5FED1218ED0832
S113880030EC00063839308FC3FFF78F35306F00F6
S1138810070FED057E88EBFEC842DD04EC0218303C
S1138820DD02DC04DE02CDEF032606CC0004BD8AA3
S1138830DEDF04FEC8421830CDEF01DF02EE12FF86
S1138840C842DE02EC0C26037E88D5FEC84026060C
S1138850CC0003BD8ADEDF04FEC8401830CDEF072C
S1138860DF02EE12FFC84018EE0118E601DE02E74F
S113887001CDEE0218DF0418DE02CDEF0218DE048B
S113888018EC0ADE02ED0A18EC08ED0818EC06ED07
S11388900618EC04ED04183018EC07C30004CDEE00
S11388A001EE0C3CBD8A53183018EE0318EC0C187A
S11388B03018EE0918ED0C183018EC09DD02CDEE75
S11388C003EC1018DE0218ED10EC0E18ED0E188FE4
S11388D0BD873C3131183018EE03183CDF0430EC0E
S11388E003DE04BD87D2306C023131FCC842271943
S11388F0C3000418CEC400183CBD8A7631315D2A09
S1138900037E881726037E8817183018EC05064F57
S113891018E600308FC300098F353920FE3430E764
S113892000C10C2306CC000DBD8ADE304FE60005E5
S1138930050505C3C4478FEE008C000226044F5F73
S1138940200B304FE60005050505C3C43F31390F40
S1138950CE103DC601E700CE1024C606E700CE10B7
S113896039C6A3E700CE1002C603E700CE102D5F80
S1138970E700CE1028C604E700CE10205FE700CE43
S11389801021E700CE1022E700CE103CC625E700F8
S11389903920FE8EB5FFBD894F4FCEC0008CC83143
S11389A02705A7000820F6CE8B5918CEC8318C8B2A
S11389B070270AE60018E70008180820F1BD811A9C
S11389C020FE188F30EC0618E30018ED001A83031C
S11389D0E723178F8FC3FC188F18EC02C30001180C
S11389E0ED028C03E722EDCDEF0030EC0418E30236
S11389F018ED021A8303E723178F8FC3FC188F180F
S1138A00EC04C3000118ED048C03E722EDCDEF0262
S1138A1030EC0218E30418ED041A830E0F23178FA9
S1138A208FC3F1F08F18EC06C3000118ED068C0E0D
S1138A300F22EDCDEF04398F4F5FED00ED02ED0411
S1138A40ED063930EE023CCE00003C3CBD89C23814
S1138A50383839CE00003C183018EE04183C3CBDC0
S1138A6089C238383839CE00003C3C30EE063CBD73
S1138A7089C238383839188F30EE0218EC061AA338
S1138A80062404CCFFFF3918EC061AA3062304CCF1
S1138A9000013918EC041AA3042404CCFFFF39188C
S1138AA0EC041AA3042304CC00013918EC021AA321
S1138AB0022404CCFFFF3918EC021AA3022304CCCD
S1138AC000013918EC001AA3002404CCFFFF391864
S1138AD0EC001AA3002304CC0001394F5F393C3C5D
S1138AE03C30ED030F18DF0418CE1000CA0FE70264
S1138AF018DF0218DE04DF04DE02E600C808E7001F
S1138B001830186A01DE0418E60127EACE7FFF1840
S1138B10E6045858585818E705183018EC00C501F1
S1138B20270518E6052005183018E602E700183076
S1138B30186A0126E420BF3B39CC0005BD8ADE3922
S1138B40CC0006BD8ADE39C114220D4F05C3FFD601
S10C8B50301AEE028F1AEF00390D
S1138B590000000000000000000000000000000008
S10A8B690000000000000001
S113BFD68B378B378B378B378B378B378B378B3747
S113BFE68B378B378B378B378B378B378B378B3737
S10DBFF68B378B378B378B37899319
S113FFD68B408B408B408B408B408B408B408B40BF
S113FFE68B408B408B408B408B408B408B408B40AF
S10DFFF68B408B398B408B408B400D
S90380007C
