S00D000070726573746F2E7331394A
S1138000CE7FFFF6C000E70039308FC3FFF08F3515
S113801030E70C6F0E6F0DE60EE70FC6803734188D
S1138020CE0019183C30EE113C18CE0006188F9F74
S113803000D300C30001BD972D383838202BC680EB
S1138040BD8DAD5D2723C680BD8DA4306C0FE60FBA
S1138050C104260A6F0F1AEE0D18081AEF0D30E648
S11380600CF8C000F7C0008D97183018EC0DCDA3A4
S11380701225CB8F308FBD97DEC680BD8DA430E630
S11380800C53F4C000F7C000BD800030C6103A3570
S1138090393430E700C6403734CCC835BD9599181B
S11380A03018EE05183C30E604BD8009CCC835BD57
S11380B095AE383831393C306F016F00C602373421
S11380C0CCC140BD8F52C6FF3734F6C882BD8DB4D3
S11380D0C6FFBD8D61C6FF3734F6C873BD8DB4C607
S11380E0FFBD8D61C6FF3734F6C884BD8DB4C6FFAD
S11380F0BD8D61C6FF3734F6C881BD8DB4C6FFBDE2
S11381008D61308FC3000A8F3530EE003C18CE00ED
S113811001183CCCC835BD942BCC0009BD91488FC7
S113812018CE0000183C18CE0001183C3CF6C8815B
S1138130BD8FAECC0009BD91488F18CE0000183C0D
S113814018CE0004183C3CF6C884BD8FAECC0009A0
S1138150BD91488F18CE0000183C18CE0007183C7B
S11381603CF6C873BD8FAECC0009BD91488F18CEC4
S11381700000183C18CE000A183C3CF6C882BD8F9B
S1138180AEC6013734CC3A98BD97AA4F5F308FC33F
S1138190001E8F3530EE002603CC0001183018ED98
S11381A0007E81093C3C3C306F016F00C6FFBD8DF1
S11381B061C6023734CCC148BD8F52C6FF3734F68E
S11381C0C874BD8DB43838C603BD8D6130E703EC87
S11381D002C5022753CCC148BD9091183018ED0454
S11381E0BD8FA11A83000127081A830002272620C5
S11381F02FCC000CBD914830ED00C601373418CEA9
S11382000000183CCE0BB83C183018EC06BD972D76
S1138210383838200BCE00053CC60FBD80093131FB
S1138220183018EC04BD921F183018EC02C5012751
S11382309618EC00BD921FCE000A3CC601BD809189
S1138240313120833CC6FFBD8D61C6023734CCC1B9
S113825050BD8F52C6FF3734F6C874BD8DB438385C
S1138260CCC150BD908030ED00BD8FA11A830004B5
S113827027081A830005271D2038C6013734CC0F80
S1138280A0BD97AA18CE0032183CC602BD800918BA
S1138290381838201DCC0009BD91488F18CE000035
S11382A0183C18CE0002183C3CF6C881BD8FAE388D
S11382B0383830EC00BD921F20A63CC6FFBD8D614E
S11382C0C6023734CCC158BD8F52C6FF3734F6C806
S11382D074BD8DB43838CCC158BD908030ED00BD2C
S11382E08FA11A83000727081A830008271D203846
S11382F0C6013734CC03E8BD97AA18CE0032183C27
S1138300C604BD809118381838201DCC0009BD91D1
S1138310488F18CE0000183C18CE0005183C3CF6D7
S1138320C884BD8FAE38383830EC00BD921F20A60B
S1138330308FC3FFF28F35C6FFBD8D61C60237345F
S1138340CCC160BD8F52C610373418CE007D183CA6
S1138350CE00013C18CE0008188F9F00D300C30044
S113836001BD972DC6FF3734F6C874BD8DB41830DF
S1138370186F17186F16308FC3000A8F35C610BDDB
S11383808D612003BD921FCCC160BD9091DD00269C
S1138390F3F6C000C808F7C000BD8000CE1008E6A0
S11383A000C83CE700301AEE0C18081AEF0C188FBE
S11383B08F8C001926C71830186F0D186F0CCC005D
S11383C009BD91488F183018EE0C183C18CE0008DF
S11383D0183C3CF6C873BD8FAE383838209F3C3CFF
S11383E03C30ED006F056F044F5FED021AA3082CBB
S11383F05B183018EC0018E3028F188F4FE6001852
S11384008FC6023734CEC8213C188FBD9DDCCCC842
S113841021BD99B71830CDEE0808CDEF08183818EB
S1138420388C000F2E08CCC001BD99B7200ECCC0EB
S113843003BD99B71830186F05186F04301AEE028F
S113844018081AEF02188F1AA3082DA530EE042776
S113845006CCC006BD99B7CCC009BD99B738383829
S1138460393C306F016F0018CEC875183C30EC02EF
S1138470BD929BCCC00CBD99B7C614373418CEC876
S113848021183C30EC06BD9D1BCCC821BD99B7CC4E
S1138490C012BD99B7CCC015BD99B7CCC01BBD994E
S11384A0B7CCC020BD99B7C614373418CEC821182C
S11384B03CFCC87FBD9D1BCCC821BD99B7CCC0274F
S11384C0BD99B7C614373418CEC821183CFCC877F8
S11384D0BD9D1BCCC821BD99B7CCC029BD99B7CCD3
S11384E0C02CBD99B7CCC039BD99B7CCC03EBD999D
S11384F0B7C614373418CEC821183CFCC879BD9DC2
S11385001BCCC821BD99B7CCC045BD99B7C614379B
S11385103418CEC821183CFCC87DBD9D1BCCC82195
S1138520BD99B7CCC047BD99B7C614373418CEC867
S113853021183CFCC875BD9D1BCCC821BD99B7CC86
S1138540C049BD99B7CCC04CBD99B7C614373418CF
S1138550CEC821183CFCC87BBD9D1BCCC821BD994D
S1138560B7CCC061BD99B7CCC064BD99B7308FC3D7
S1138570001E8F35301AEE0018081AEF0018DF00BD
S1138580DE008C00012E037E8467CCC067BD99B7E2
S113859038393CC6013734C6023734F6C883BD992E
S11385A027CCC06ABD99B7CCC078BD99B7188F4F96
S11385B0F6C874188FC6143734CEC8213C188FBD42
S11385C09D1BCCC821BD99B7CCC082BD99B7CCC086
S11385D085BD99B7188F4FF6C881188FC6143734E4
S11385E0CEC8213C188FBD9D1BCCC821BD99B7CCEA
S11385F0C08FBD99B7CCC092BD99B7188F4FF6C83C
S113860084188FC6143734CEC8213C188FBD9D1BE7
S1138610CCC821BD99B7CCC09CBD99B7CCC09FBD77
S113862099B7188F4FF6C873188FC6143734CEC84D
S1138630213C188FBD9D1BCCC821BD99B7CCC0A9C6
S1138640BD99B7CCC0ACBD99B7188F4FF6C8821886
S11386508FC6143734CEC8213C188FBD9D1BCCC89F
S113866021BD99B7CCC0B6BD99B7CCC0B9BD99B737
S1138670188F4FF6C883188FC6143734CEC8213CE0
S1138680188FBD9D1BCCC821BD99B7CCC0C3BD9963
S1138690B7C6043734CC01F4BD97AACCC0C6BD9983
S11386A0B718CE0050183CCCC885BD83DE306F218E
S11386B06F20308FC300208F35BD8461C6043734EA
S11386C0CC01F4BD97AA3131183018EC0037363894
S11386D008CDEF001A830005227005C39FE5188FAB
S11386E0CDEE006E00CCC0D7BD99B7CE00A03CCC77
S11386F0C348204FCCC0E5BD99B718CE00A0183CA4
S1138700CCC2A8203ECCC0F3BD99B7CE00A03CCCCF
S1138710C208202FCCC101BD99B718CE00A0183CC7
S1138720CCC168201ECCC10FBD99B7CE00A03CCCF3
S1138730C3E8200FCCC11DBD99B718CE00A0183CCA
S1138740CCC488BD83DE3131200BCCC12BBD99B79D
S1138750306F016F00C6043734CC01F4BD97AA31E1
S1138760317E86B9CE1009C63FE700BD8000BD8BBF
S113877035C60E373418CE00A0183CCEC3483CCCC6
S113878081A4BD8BB7F7C881C60D373418CE00A0BD
S1138790183CCEC2A83CCC8244BD8BB7F7C884C673
S11387A00C373418CE00A0183CCEC2083CCC82BA98
S11387B0BD8BB7F7C873C60B373418CE00A0183C6E
S11387C0CEC1683CCC8330BD8BB7F7C882C6633753
S11387D03418CE00A0183CCEC3E83CCC80B6BD8B88
S11387E0B7F7C874C632373418CE00A0183CCEC4CC
S11387F0883CCC8592BD8BB7F7C88330C6243A3504
S1138800BD8C9FCC0021BD88BB4F5F390FCE103D7E
S1138810C601E700CE1024C603E700CE1039C6A374
S1138820E700CE1002C603E700CE102D5FE700CEAE
S11388301028C604E700CE10205FE700CE1021E721
S113884000CE1022E700BD8A37CE103CC62CE700CC
S11388503920FE8EC8D4BD880C4FCEC1408CC821AF
S11388602705A7000820F6CE9FF118CEC0008CA1E2
S113887031270AE60018E70008180820F1BD8764CC
S113888020FE3C3C30E700C6FFE703CE7FFF1830F4
S113889018E6005858585818E701183018EC02C563
S11388A001270518E6012007183018E600CA0FE76B
S11388B0001830186A0326E23838393C30ED000FCE
S11388C0CE1000E600C808E70030E6018DB420F0C1
S11388D000393C3430ED000F306F025F8DA4306CF2
S11388E002E602C19523F46F02CE1000E600C80828
S11388F0E700304FE6008D8A306C02E602C1632344
S1138900E86F025FBD8882306C02E602C11823F36F
S11389106F02CE1000E600C808E70030E601BD880B
S113892082306C02E602C16323E820AC3C3C30EDAB
S1138930020505050505A30205058F18308F18E308
S1138940028FFFC528CE10201D00C0CE100EEC00F3
S1138950F3C528CE1018ED00CE1023C640E700CE94
S113896010221C0040383839CE1023C640E700CE10
S11389701018EC00F3C528ED00393B39CC0020BDBC
S113898088BB39CC000BBD88BB39CC000CBD88BB7F
S113899039CC000DBD88BB39CC000EBD88BB39CCA9
S11389A0000FBD88BB39CC0010BD88BB39CC001189
S11389B0BD88BB39CC0012BD88BB39CC0013BD883F
S11389C0BB39CC0014BD88BB39CC0015BD88BB397C
S11389D0CC0016BD88BB39CC0017BD88BB39CC0090
S11389E018BD88BB39CC0019BD88BB39CC001ABD71
S11389F088BB39CC001BBD88BB39CC001CBD88BBEF
S1138A0039CC001DBD88BB39CC001EBD88BB39CC18
S1138A10001FBD88BB39BFC52AFEC52AEC08FDC5A9
S1138A202CBD88D239C114220D4F05C3FFD6301A8C
S1138A30EE028F1AEF003918CE000018DF00DC00B8
S1138A4005373638C3FFD68FC3BFD6DD0218DF041F
S1138A5018DE0218EE001AEF0018DE041808188C4D
S1138A6000132FD7CC8A16FDFFF8CC8853FDFFFEE8
S1138A70398F4F5FED00ED02ED0439188FCDEE0014
S1138A80DF0430EC0218E30018ED00DF02DE04DF3F
S1138A90001A930025093CDE021AA3023824141894
S1138AA0EC02C3000118ED02260918EC04C300010E
S1138AB018ED0439393C3C3C30ED0418CE00031861
S1138AC00918DF00DC000518DF041830CDEE04DDE2
S1138AD0008FD3008F18E30818ED02EC0018EE02A3
S1138AE018DF0218DE043CDE021AA300382405CC89
S1138AF0FFFF203D18DF00DC00053018DF041AEE0C
S1138B0004DD00188FD300188FE308ED0218EC0081
S1138B1018DE04DD04EC02DD02DC043CDE021AA3F0
S1138B2000382305CC00012008188C00002E904F3B
S1138B305F383838393C347DC1392678306F00C607
S1138B400D183018A6003D18ED01C3C52E188F303E
S1138B50E60018E700EC01C3C5391830CDEE018FEB
S1138B60C3C53B8F188FCDEF00306C00E600C10CFD
S1138B7023CD18CEC5CA18FFC137CEC52EFFC5D523
S1138B804F5FFDC5C8BD97E2BD9128BD9651BD9309
S1138B9003C601F7C1395F373418CE0100183CCE43
S1138BA0C5D73CCC8F368D0FF7C6D9BD8F39FDC6DE
S1138BB0D73838383831393C3C30ED00F6C13926E5
S1138BC006CC0001BD88BBFCC1372606CC0002BD23
S1138BD088BB070FFEC1371830CDEF02EE0BFFC183
S1138BE03706CDEE068F18E3088F8F188F180930DB
S1138BF0EE021AEF03DF0430EC06EE02ED05DE04AC
S1138C0030E60BEE02E708DE0430EE02E7075FE72A
S1138C1009E70ADE0430E60118E70018094FE60008
S1138C2018E7001809C66618E7001809C65518E7BA
S1138C30001809C64418E7001809C63318E70018D5
S1138C4009C61118E7001809C62218E70018095FB9
S1138C5018E7001809C6BB18E7001809C6AA18E7E0
S1138C60001809C6DD18E7001809C6CC18E7001873
S1138C7009C6FF18E7001809C6EE18E7001809EE40
S1138C80021AEF01183018E60B37348FDE04BD8D5D
S1138C90EB183018EE044F18E60031313838390F2C
S1138CA0CE8EC13CC610BD8A25BD97E3FCC135FDFF
S1138CB0C13331312606CC0003BD88BBFEC133EC81
S1138CC001FDC13ABEC13A3838383BCC0005BD88F5
S1138CD0BB39BD8F398F4FE608393C3430E702BDCC
S1138CE08F3930ED008FE60830E106271BEC00BD1C
S1138CF08E5A30E606EE00E70730EE00E708373418
S1138D0030EC02BD8DEB31313831393C3430E7027F
S1138D10BD8F3930ED008FE60830E1062716EC00F0
S1138D20BD8E5A30E606EE00E708373430EC02BD5B
S1138D308DEB31313831393CBD8F3930ED008FE660
S1138D400830EE00E107271730EC00BD8E5A30EEF4
S1138D5000E607E708373430EC02BD8DEB313138DB
S1138D60393C3C30E703FEC133E709FEC133E50A71
S1138D7026013FFEC1336F09070F183018ED00FEBE
S1138D80C13318E603E40A18E70253E40AE70A18B1
S1138D90EC000618304F18E602383839FEC133EAC1
S1138DA00AE70A39FEC13353E40AE70A39FEC1333C
S1138DB0E40A4F393430E700BD8F398F183018E694
S1138DC004EA0AE70A18E604E50927013F313934C1
S1138DD030E700BD8F398F183018E604EA0AE70A35
S1138DE03139FEC1334FE600393F393C3C188F0717
S1138DF00F18DF04183018ED00CEC135FCC135184A
S1138E00DF0218DE04DF04DE02ED02DE0430EC02D1
S1138E10DE04DD002719DD02DE02E608DE04DD04DF
S1138E208F308FDD02DC043CDE02E107382414DFDE
S1138E300430EE02CDEF0BDE041AEF0030EC000636
S1138E4038383918DF041830CDEE028FC3000B8F89
S1138E50EC0018DF0218DE0420AB3CDD02070F181B
S1138E603018ED00200AFEC1351AEE0B18FFC1358B
S1138E70DC021AB3C13527EEFEC1358C0000271978
S1138E80DC021AA30B260EDF04DE021AEE0BDE044C
S1138E901AEF0B20E6EE0B20E2183018EC0006382F
S1138EA039FEC13527126D0926028F39E609E50A14
S1138EB027028F39EE0B26EECC0004BD88BB4F5F32
S1138EC039DE003CDE023CDE043CFEC133EC011A18
S1138ED0A30322051AA30524054F5FBD88BBFEC169
S1138EE0333C3233C30001FDC6DCFFC6DA8DB21851
S1138EF08F18FFC13318BCC6DA2731CE1000E60044
S1138F00C808E70018EC01CDA3032205CDA305246E
S1138F10054F5FBD88BBFEC133EC01FDC13ABFC143
S1138F203CFEC6DCFCC13CED00BEC13A38DF04386F
S1138F30DF0238DF003B3E20FD3430E700C10C2364
S1138F4006CC0006BD88BBC60D30A6003DC3C52EA9
S1138F5031393C3430ED00BD8DE2183018E7024F52
S1138F6005C3C6DE8FEC00260618EE001AEF004F8C
S1138F705F30EE00ED00ED02ED04183018E602E774
S1138F800618E606E7073831393C30ED00BD8DE2BE
S1138F904F05C3C6DE1830CDEE00188FCDEF003874
S1138FA0398FEC03398FEC05398F4FE600394F05C3
S1138FB0C3C6DE8FEC00271A183018EE06183C30B2
S1138FC0EE063C183018EE06183C8D07CC0001382C
S1138FD03838393C3C3430ED002606CC0008BD88D6
S1138FE0BB30EE072606CC0007BD88BB1830CDEE9B
S1138FF00918EE07CDEF031830CDEE0B18EE07CDB0
S1139000EF05BD8DE2183018EE0718E70030EC00CC
S113901018ED01070FED021AEE00CDEE0226113015
S1139020EC0718ED0218ED04CC000118ED00201D2A
S1139030183018EE00CDEE04183018EE071AEF07BA
S113904030EE001AEF04EC00C30001ED00183018F4
S1139050EE07186F08186F07183018EC020618EEA0
S11390600018E606183018E70418EE0018E607376B
S11390703430E606BD8DCFBD8DE931313838313914
S11390803C30ED008FE607BD8D6130EC008D023879
S113909039308FC3FFF78F3530ED00188F18EE028B
S11390A01AEF0218DF00DE00277530188F8FEC01ED
S11390B030ED06BD8DE2183018EE0618E1062704DF
S11390C04F5F205C070F183018ED0418EC0218EEFF
S11390D000CDA304260D4F5F18ED0218ED0418ED22
S11390E000202F183018EE02CDEE07183018EE00CD
S11390F0CDEF021830CDEE00EC00C3FFFFED00E62B
S11391000618E708E6073734183018E60ABD8DCF8D
S1139110313130EE026F086F07183018EC04068FF7
S1139120308FC300098F3539CE000018CE00003CC3
S1139130323305C3C6DEDD02DF04DE021AEF00DED1
S113914004088C000B2FE8393C3C3C3CDD0018DE65
S11391500026037E921A306F016F0018DF04183066
S113916018EC0005050518A30005C3C8D58F18DF42
S11391700218DE041AAC0223037E91FCEC06277C61
S1139180070F18DE0218ED02EC0618ED0618DE04CF
S1139190DD02DF04DE02EC02DE04ED06EC04C300B3
S11391A001ED0430EC0206EC00050505A30005C33F
S11391B0C8D5EE06ED021AEF00DE0430EC06C3005B
S11391C004ED04DE04EC041AA30A2F02ED0A1AAC1F
S11391D00C23031AEF0C18DF00DC00E308ED081A77
S11391E0AC02240C30188FE304188FC65518E7001E
S11391F0DF0430EC06DE04C30004201E3018DF0454
S11392001AEE0018081AEF0018DF00DE0018DE045A
S11392108C00012E037E915B4F5F38383838393C1F
S11392203C3CDD022771C3FFFC183018ED043736CF
S113923038EE02CDEF02188FCDEE00183018EE0292
S1139240CDAC022C1818DE02DF00188FD300188F63
S113925018E600C1552706CC0009BD88BB070F18C6
S11392603018ED00CDEE02EC06CDEE04ED02CDEEAD
S11392700418EE02CDEF061830CDEE02EC04C3FF65
S1139280FFED0418EC0006EC0818EE0418A300ED3A
S113929008186F01186F00383838393C30ED001A5F
S11392A0EE041A8300012259050505A3000537368B
S11392B038C3C8D58FDD04EC0018ED00DD02DE04F0
S11392C08FC3C8D78FEC0018ED02DD02DE048FC314
S11392D0C8D98FEC0018ED04DD02DE048FC3C8DDAD
S11392E08FEC0018ED06DD02DE048FC3C8DF8FECBF
S11392F00018ED08DD02DC04C3C8E18FEE00CDEFF9
S11393000A3839308FC3FFE88F35CC000A30ED00BE
S113931018CE00141AEF021830CC001418ED0A18F5
S1139320EC0018ED08CE0019CDEF00CC000A18EDC2
S11393300218ED0618EC0018ED04CCC8F1186F0DF6
S1139340186F0CDD0230EC0C050505A30C05ED0EC1
S1139350C3C8D5ED16EC0C05ED10183018DF001855
S1139360EE10188FD300188F18EE04EE161AEF00C3
S113937030DF00EE108FD3008FEE08183018EE1691
S1139380CDEF02CE0000CDEF04CDEF0ACDEF0CCD32
S1139390EF0830EC0EC3C8DB188FDC0218ED00EECA
S11393A016EC0030ED14DD00DE002B662764183067
S11393B0DD04DC0218ED12CE0000DC0418DF041812
S11393C0DE02CDEF00180818081808180818DF0284
S11393D018DE0418EE16DE028F18E3028FDF023067
S11393E0EE148C0001260DCE0000183018EE12CDBC
S11393F0EF02200E183018EE12DD04DC0218ED0224
S1139400DC04301AEE1418091AEF1418DF00DE0019
S11394102E9C1830CDEE0C08CDEF0C8C00012E03E1
S11394207E9345308FC300188F35393C3C3C188FF0
S113943030EC0818ED0018ED02CE0000CDEF06CD9B
S1139440EF0818DF00DC00C3000C18ED0ADF02DCB3
S113945002050530D302ED0018DF00D300ED02C68B
S11394600DEE02E70C30EC0018DF00D3008F6F0D17
S113947030EC0018DF00D300ED0418DF00DC00E35B
S113948000C30011EE04ED0FDE02083C3233DF02AC
S11394901A8300092FB9186F3D186F3C30EE0ACDBE
S11394A0EF0438383839308FC3FFF38F3530ED008F
S11394B0070FED061AEE0018EE0A1AEF04188F8F44
S11394C08C00002606CC000ABD88BB183018EE00BC
S11394D0CDEE0AEC0318ED0A183018EC0606BD8D23
S11394E0E230EE04E700183018E610E701070F1821
S11394F0ED06186F03186F02CDEE00EE022B08275D
S113950006CC000118ED0230EE02275D1830CDEED6
S113951000EC02C3FFFFED02BD8DE2183018E70C2A
S113952018E6103734183018E60EBD8DCF30EE0231
S1139530EC0630ED0AEC02C30006ED0C1AEE061838
S11395403C30EC0EBD9652383830EE00EE0427382D
S1139550183018EC082722CDEE0A1AA300271A188F
S11395608F18E600BD8D37201030EC00C300081AB8
S1139570EE04183CBD9652313130EE00EE0427085B
S1139580183018EC00BD96D4183018EC060618EC08
S113959002308FC3000D8F3539188F30E60337340E
S11395A0188FBD94A630E605BD8D613131393C3C40
S11395B03C30ED00070FED02EC00C300061AEE008C
S11395C018EE06183CBD969B3131DD002608183094
S11395D018EC0206207730EE00EE042706BD8DE27B
S11395E0BD8D37183018EE00CDEE081830CDEF04DD
S11395F08FDD00260CCDEE00EC02C30001ED02204D
S11396003E183018EE0418E601373418E600BD8D14
S1139610CF183018EC02C30008CDEE063C8D7C1840
S11396203018EC04C30006CDEE083C8D25383838DC
S113963030EE00EE042708183018EC00BD96D4185C
S11396403018EC0206CDEE042703BD8DE938383816
S113965039393C30ED0018DF041AEE0418E600181E
S1139660DE04BD8CD2301AEE00CDEE002704E102F8
S1139670231C18DF04183018EE04CDEF0318DF02A2
S113968018DE04DD04DC0218ED00DC043839DF00E8
S113969018DE0018081808180820CE18CE00008F0D
S11396A0202BDD048F308FDD02DC043CDE021AA3A4
S11396B002382615DD0218DF0418DE0218EE031A3C
S11396C0EF0018DE04180820048F080808EC0026B0
S11396D0D1188F393C3C3430ED00188FCDEE08277B
S11396E048E600BD8CD230E7041AEE0018EE061AE4
S11396F0EF02188F8F8C0000272F183018EE0218F5
S1139700E600BD8CD230E1042411E604373418306D
S113971018EE0418E600BD8D0B313130EE02EC0377
S113972030ED028F8C000026D1383831393C34308A
S1139730ED0018CE0006183CCEC6F63C183018ECE6
S113974004BD9FC030EE093C183018EC06BD8A7B7E
S113975030EC0DEE06ED06BD8DE2183018EE06185D
S1139760E70830E61018E70938383830EE052629BE
S1139770BD8DE2183018E70218E60A37341830189D
S1139780E604BD8DCF313130EE07271B8F188F18BB
S11397903C30EC02BD8A7B3131183018EC00BD98A6
S11397A0E030EC00BD9890383139308FC3FFF48F2E
S11397B0358F183018E60F373418CE0000183C3CAB
S11397C0CE00068F9F00D300C30001BD972D183033
S11397D018E615BD8D61308FC300128F3539BD98E1
S11397E0E03939CCC6F6BD8A71CE97FB3CC608BDBC
S11397F08A25CC0002BD892C313139DE003CDE02E1
S11398003CDE043C3C3C34306F00CE00023CCCC611
S1139810F6BD8A7BBD8968BD8DE2BD8CD230E7057B
S113982031312044FCC13E30ED018FEC0AFDC13ED4
S1139830E60830E704EE01E609373430E606BD8D6C
S1139840CF313130EE01EC06270F8F3C30EC03BDF5
S11398508A7B30EC038D39313130EE01E608BD8C62
S1139860D230E10323026C00FCC13E270ECEC6F6C3
S11398703CBD8AB531315D2BAB27A9306D00270380
S1139880BD8DE938383138DF0438DF0238DF003B7A
S11398903C3C3C3C30ED00070FED02CCC13EED04F6
S11398A0FCC13EED0630EE06271130EE003C30ECF4
S11398B008BD8AB531315D2B19271730EC06EE004F
S11398C0ED0A30EC00EE04ED0030EC0206383838D6
S11398D0383930EC06C3000AED048FEC003020C3A5
S11398E03CDD02070F183018ED00200AFEC13E1AB5
S11398F0EE0A18FFC13EDC021AB3C13E27EEFEC1D8
S11399003E8C00002719DC021AA30A260EDF04DEAF
S1139910021AEE0ADE041AEF0A20E6EE0A20E21822
S11399203018EC000638393430E700CE102C5FE7ED
S113993000CE102BC630E7008D2430E600F7C81E99
S1139940E604F7C81FE606F7C820CE9A393CC600DD
S1139950BD8A25CE102DC6ACE70031313139CE0099
S1139960103C18CEC714183CCCC6FCBD9AFFCE00E0
S1139970FA3C18CEC724183CCCC708BD9AFF383827
S11399803838393430E70030E6003734CCC708BD06
S11399909B783131DD002614CE102D1C0080F6C8D2
S11399A01FBD8DA4F6C81FBD8D6120DB31398DD359
S11399B0CE102D1C0080393C30ED00188F18E600C5
S11399C0271430EE00E6008DBA1830CDEE0008CD35
S11399D0EF006D0026ECCE102D1C008038398F3C32
S11399E0CCC6FCBD9B2BCE102D1C00203131393C44
S11399F03C188F306F016F001AEF0220091830CD28
S1139A00EE0008CDEF00183018EE02183C301AEEC4
S1139A100418081AEF04CCC6FCBD9B2B3131DD00C1
S1139A202709304FE6071AA3002ED2CE102D1C00B2
S1139A3020183018EC00383839DE463CDE003CDEB5
S1139A40023CDE043C3C3C349F46DE466F056F041A
S1139A504F5FED02203318CE0001188FD346188FC4
S1139A60183CCCC708BD9B2B3131DD002713CE1029
S1139A702F18DE4618E601E700CE0001CDEF0220E4
S1139A8008CE102D1D00802009CE102EE600C480C3
S1139A9026C4CE102EE600C4202721CE000118DEF5
S1139AA046CDEF04CE102FE6003734CCC6FCBD9B68
S1139AB0783131CE102EE600C42026E818DE461890
S1139AC0EC022718CCC7088D5E1A83000F220DF60E
S1139AD0C81F3734F6C81EBD8DB43131DE46EE04DE
S1139AE0270DF6C8203734F6C81EBD8DB431313881
S1139AF0383138DF0438DF0238DF0038DF463B8F87
S1139B00183018EE021AEF00183018EC0218E304AB
S1139B10C3FFFFED0218EC02ED04ED0618EE041A83
S1139B20EF086F0B6F0A398FEC0A393C188F301825
S1139B30DF041AEE0418DF0218DE0418EC0A260407
S1139B404F5F2032070F30ED00CDEE06E600DE0257
S1139B50E70018EC06C3000118ED06CDA3022306A6
S1139B60CDEE00CDEF0618EC0AC3FFFF18ED0A3066
S1139B70EC0006CC000138393C188F18EC0ACDA350
S1139B800825044F5F203C070F30ED00DF02CDEEC7
S1139B9004DF04DE02E605DE04E70018EC04C3007B
S1139BA00118ED04CDA302230618EC0018ED0418E7
S1139BB0EC0AC3000118ED0ADF0430EC00DE0406F1
S1139BC0CC00013839C1202604CC0001394F5F395B
S1139BD03430E700CBD0C109230AE600C12D2704A5
S1139BE0C12B2605CC000120024F5F3139CBD0C1F7
S1139BF0092204CC0001394F5F393430E700CBD05F
S1139C00C1092310E600CBBFC1052308E600CB9FA2
S1139C10C1052205CC000120024F5F3139CBD0C1F0
S1139C200922024F394F5F393C3C3C188F306F009A
S1139C3018E600C1202619306C00DF0218DF00DEB0
S1139C4000DF04DE02E600DE043AE600C12027E776
S1139C5018DF00DE0018DF04183018E6003AE600CA
S1139C6018DF0218DE04C12D2604C6FF200BC6012E
S1139C70DD048F308FDD02DC04DF04DE02E703DE67
S1139C80043018DF00DC00EB008900ED04DE04DDA5
S1139C9002DE02E600DE04C12D2704C12B260330B8
S1139CA06C00CE0000DF04304FE600ED01DE041846
S1139CB0DF00D30020403C32330505DF00D300052C
S1139CC018DF00DE0018DF0418308F18E3018FEB73
S1139CD0008900C3FFD08F186C0018E600186F01CC
S1139CE018E70218DF0218DE0418DF00DC00DF04C6
S1139CF0DE02E301DE04DD02DF04DE02E600DE0450
S1139D00CBD0C10923B0183018E603188F188F4F31
S1139D105D2A014ABD9FA8383838393C3CDD023001
S1139D206F00DD002A1A5FE109240CC62D1AEE0625
S1139D3018E700C601E700DC024353C30001DD025B
S1139D4018CE0001DE028C0009236D18DF00DC0050
S1139D50050518DF00D30005DD0018DE0005051831
S1139D60DF00D300051A930223E1204CDC0218DF44
S1139D7000DE00028F30E7014F18DF00DE00BD9FD8
S1139D80A818DF0418DE02DD00188F9300188F3046
S1139D90E60018DF0218DE04E1092413EC06EB00E8
S1139DA08900ED02E601CB30EE02E700306C0018CA
S1139DB08FCE000A028F188F188C000026AE183040
S1139DC018E60018E1092406CDEE063A6F001830B3
S1139DD0CDEE0618E6093A6F003838393C3C30EDD0
S1139DE0001AEE06E609E702E609274430E601C454
S1139DF00FE70318DF00DC00EB028900DF028F09A4
S1139E00DF04DE02E603DE04C1092204CB302009AC
S1139E10DF0430E603DE04CB37E70030EC00040453
S1139E200404ED006A02DF023CDE02E6023826BCCE
S1139E30188F8FDF0430E609DE043A6F00383839B2
S1139E403430E700CBD0C10922034F202230E60092
S1139E50CBBFC1052207E600CBC94F201230E60074
S1139E60CB9FC1052207E600CBA94F20024F5F31EB
S1139E70393C3C34306F026F01ED03201A30EE039D
S1139E80E6008DBC30E700C1102718EC010505057C
S1139E9005EB008900ED0130EE03E600BD9BFADD21
S1139EA00026DA30EC01383831393C3C3C3430EDB2
S1139EB0051AEE096F005FE10C245218E600274DE5
S1139EC018DF0418304F18E600CDEE05DD008FD3FF
S1139ED0008F18DF0218DE0418DF00D300DF04DE71
S1139EE002ED03DE04DD02DE02E600DE04E70030FC
S1139EF06C00E600E10C241518DF00DC00EB00899F
S1139F0000ED01DD023CDE02E6003826B31830CD58
S1139F10EE0518E6003A6F0038383831393C3C3CDD
S1139F2030ED00CC0001ED026F056F041830CDEE6A
S1139F30008F18E3048F6D00273418EC022713E612
S1139F4000BD9BC5DD00271B1830186F03186F0276
S1139F50201130EC00E304188F18E600BD9BC5DD2A
S1139F6000270B301AEE0418081AEF0420BE30EC58
S1139F7000E304383838393C3C30ED006F036F029D
S1139F80183018EC0018E3028FE600BD9BC5DD0015
S1139F90270B1830CDEE0208CDEF0220E31830185D
S1139FA0EC0018E302383839DF0037D6013D96005B
S1139FB0D70033373DDB00D7009601333D9B003992
S1139FC0188F30EC04EE021A8300002715183C4C5D
S1139FD036A60018A7000818085A26F5324A26F0B3
S1089FE01838188F3948
S10F9FE586E586F48705871487258734F9
S1139FF1FF20000D0A000D0A000D0A00706F6F6C3E
S113A0013D000D0A0053495A4520006D61782F0027
S113A0116C696D69743D002F000D0A00515459207B
S113A02163757272656E742F006D61782F006C69AF
S113A0316D69743D002F002F000D0A006375727263
S113A041656E745F746F74616C5F62797465733D7E
S113A051000D0A000D0A000D0A0068656C6C6F2082
S113A061776F726C640D0A006374726C5F74696457
S113A0713D000D0A00707265735F7469643D000DE3
S113A0810A006D6E67725F7469643D000D0A0065B4
S113A0916D706C5F7469643D000D0A0073747564BE
S113A0A15F7469643D000D0A00646275675F7469D9
S113A0B1643D000D0A00696E697469616C5F7374B3
S113A0C161636B3A0D0A0070726573207374616386
S113A0D16B3A0D0A006D6E677220737461636B3A9B
S113A0E10D0A00656D706C20737461636B3A0D0A1F
S113A0F1007374756420737461636B3A0D0A0063B1
S113A10174726C20737461636B3A0D0A0064627536
S113A1116720737461636B3A0D0A002D2D2D0D0AAE
S113A1210D0A000000000000000000000000000013
S113BFD68983898A89918998899F89A689AD89B433
S113BFE689BB89C289C989D089D789DE89E589EC63
S10DBFF689F38A0189FA8A08885346
S113C885000000000000000000000000000000009F
S113C895000000000000000000000000000000008F
S113C8A5000000000000000000000000000000007F
S113C8B5000000000000000000000000000000006F
S90380007C
