S00D000070726573746F2E7331394A
S11380008EC7E9BD802F4FCEC0008CC7A82705A717
S1138010000820F6CE8EA818CEC7A88C8EB8270AE2
S1138020E60018E70008180820F1BD8E1C20FE0F9A
S1138030CE103DC601E700CE1024C606E700CE10E0
S113804039C6A3E700CE1002C603E700CE102D5FA9
S1138050E700CE1028C604E700CE10205FE700CE6C
S11380601021E700CE1022E700CE103CC625E70021
S11380703920FE3B39CC0001BD822539BFC05AFEF0
S1138080C05AEC08FDC05CBD823C39C114220D4FBE
S113809005C3FFD6301AEE028F1AEF0039CE100E48
S11380A0EC00C304E2CE1018ED00CE10221C0040F8
S11380B0CE1023C640E700CE10201D00C039CE10DC
S11380C018EC00C304E2ED00CE1023C640E70039EB
S11380D0188F30EC0618E30018ED001A8303E72329
S11380E0178F8FC3FC188F18EC02C3000118ED0220
S11380F08C03E722EDCDEF0030EC0418E30218ED19
S1138100021A8303E723178F8FC3FC188F18EC041C
S1138110C3000118ED048C03E722EDCDEF0230EC2F
S11381200218E30418ED041A830E0F23178F8FC36C
S1138130F1F08F18EC06C3000118ED068C0E0F2227
S1138140EDCDEF04398F4F5FED00ED02ED04ED0648
S11381503930EE023CCE00003C3CBD80D03838388B
S113816039CE00003C183018EE04183C3CBD80D0D9
S113817038383839CE00003C3C30EE063CBD80D067
S113818038383839188F30EE0218EC061AA3062452
S113819004CCFFFF3918EC061AA3062304CC000113
S11381A03918EC041AA3042404CCFFFF3918EC0496
S11381B01AA3042304CC00013918EC021AA30224E4
S11381C004CCFFFF3918EC021AA3022304CC0001EB
S11381D03918EC001AA3002404CCFFFF3918EC0072
S11381E01AA3002304CC0001394F5F393C3C30E72B
S11381F000C6FFE703CE7FFF183018E60058585832
S11382005818E701183018EC02C501270518E601D3
S11382102007183018E600CA0FE7001830186A0360
S113822026E23838393C30ED000FCE1000E600C8A5
S113823008E70030E6018DB420F000393C3430ED1D
S1138240000F306F025F8DA4306C02E602C19523EB
S1138250F46F02CE1000E600C808E700304FE600D5
S11382608D8A306C02E602C16323E86F025FBD8130
S1138270EC306C02E602C11823F36F02CE1000E664
S113828000C808E70030E601BD81EC306C02E6026C
S1138290C16323E820AC3C347DC7AE27037E83242E
S11382A0CCC000BD8145306F00C60D183018A60043
S11382B03D18ED01C3C05E188FDF0430E60018E7F7
S11382C000DF02EE018FC3C0698F18DF0418DE02DD
S11382D018EC01C3C06BED0018E60018DE0418E7C3
S11382E0005CDE02E700C10C23BF18CE000018FFBB
S11382F0C105CCC05EFDC7ACBD8816BD88EBBD8B87
S113830073C601F7C7AE5F373418CE0032183CCEBF
S1138310C1073CCC866E8D0FF7C13BBD8670FDC195
S1138320393838383831393C3C3C30ED00F6C7AE8A
S11383302606CC0002BD8225FCC7AC260CCC00036B
S1138340BD8225CCFFFF7E8422070F183018ED0470
S1138350DF04FEC7ACCDEF02DF02EE0BFFC7ACCDEE
S1138360EE088F18E30A8F8F188F1809DE021AEFB0
S113837003DF0430EC08EE02ED05DE0430E60DEE1A
S113838002E708DE0430EE02E7075FE709E70ADEEA
S11383900430E60118E70018094FE60018E7001852
S11383A009C66618E7001809C65518E7001809C673
S11383B04418E7001809C63318E7001809C611184D
S11383C0E7001809C62218E70018095F18E7001823
S11383D009C6BB18E7001809C6AA18E7001809C699
S11383E0DD18E7001809C6CC18E7001809C6FF18FD
S11383F0E7001809C6EE18E7001809EE021AEF01A3
S1138400183018E60D37348FDE04BD850318301894
S1138410EC0606DF04CDEE044FE6002A014ADE0432
S11384203131383838390FCE85CE3CC608BD808B03
S113843018CE85F7183CC610BD808BBD809DFEC745
S1138440AAFFC7A8183818382606CC0004BD822510
S1138450FEC7A8EC01FDC7AFBEC7AF3838383BCC68
S11384600005BD822539FEC7A8E709FEC7A8E50AAD
S113847026013FFEC7A86F09FEC7A8E40A4F393793
S113848034FCC7A88D40313139FEC7A853E40AE74C
S11384900A39FEC7A8E40A4F393430E700BD8670B4
S11384A0188F30E6043734188F8D1B3F3131313942
S11384B08FFCC006ED06FCC004ED04FCC002ED0216
S11384C0FCC000ED00398F183018E603EA0AE70A09
S11384D0393C30ED00BD857230E605EE00E7083723
S11384E03430EC028D1D313138393C30ED00BD851E
S11384F07230EE00E607E708373430EC028D0431C1
S11385003138393C3C188F070F18DF04183018ED48
S113851000CEC7AAFCC7AA18DF0218DE04DF04DEF7
S113852002ED02DE0430EC02DE04DD002719DD0278
S1138530DE02E608DE04DD048F308FDD02DC043C5D
S1138540DE02E107382414DF0430EE02CDEF0BDE47
S1138550041AEF0030EC000638383918DF041830FC
S1138560CDEE028FC3000B8FEC0018DF0218DE047F
S113857020AB188F070F18BCC7AA2612FEC7AADDA6
S113858004EC0BFDC7AADC0418BCC7AA27EEFEC77F
S1138590AA8C000027161AAC0B260DDD0418EC0B70
S11385A0ED0BDD02DC0420E9EE0B20E50639FEC705
S11385B0AA27126D0926028F39E609E50A27028FD8
S11385C039EE0B26EECC0006BD82254F5F39DE0066
S11385D03CDE023CDE043CCE00053CCCC000BD8148
S11385E061BD80BEBD88EC31315D27013F38DF04B9
S11385F038DF0238DF003BDE003CDE023CDE043CB8
S1138600FEC7A8EC011AA30322051AA3052406CC6D
S1138610000DBD8225FEC7A83C3233C30001FDC155
S11386203EFFC13C8D88188F18FFC7A818BCC13CF9
S11386302732CE1000E600C808E70018EC01CDA3ED
S1138640032205CDA3052406CC000DBD8225FEC75B
S1138650A8EC01FDC7AFBFC7B1FEC13EFCC7B1ED79
S113866000BEC7AF38DF0438DF0238DF003B20FE2E
S1138670FEC7AA270AE10026028F39EE0B26F64F21
S11386805F398F4F5FED00ED02ED04FCC7A8ED06E6
S1138690183018E603E708393C3C30ED00FCC7B35A
S11386A02606CC0007BD822530EE002606CC000845
S11386B0BD8225070F30ED0218FEC7B3DF02CDEEF1
S11386C007FFC7B3FEC7A8E60018E700DE02EE0006
S11386D0CDEF05DF0430EC0818ED03EC0618ED01CE
S11386E0EC0206070FED02DF02EE00EE02261DDEAD
S11386F002EE001AEF021AEF04DF02CE000118DFC7
S11387000418DE02CDEF0018DE04202018DF041860
S11387103018EE00CDEE0418DF0218DE041AEF075D
S1138720DE021AEF04EC00C30001ED00186F081814
S11387306F0730EE001AEE06E6083734188FBD8452
S1138740C630EC04063F31313838393C30ED008F07
S1138750E608BD846630EE00EC022606CC000ABDB5
S1138760822530EE043C30EC028D04313138393C42
S11387703C3C30ED00188F18EC0226054F5F7E88D4
S113878012070F183018ED04CDEE00EE02CDEF0203
S11387902606CC000BBD8225183018EE02CDEE055E
S11387A0EC061AB3C7A82706CC000CBD82251830E6
S11387B018EC0218EE00CDA304260D4F5F18ED024D
S11387C018ED0418ED00201930EE02EE07183018E9
S11387D0EE00CDEF021830CDEE00EC00C3FFFFED4C
S11387E00030EE0827141830DF02CDEE02EC031837
S11387F0DE0218ED02EC0118ED00FCC7B3183018C6
S1138800EE0218ED0718FFC7B3183018EC0406CCB5
S113881000013838383918CE000018DF00DC0005B4
S1138820050518DF00D300373638C3C1478FC3C1ED
S113883049ED001808188C00272FDF7FC2A77FC2DC
S1138840A6CCC140FDC7B3393C30ED008FFCC00657
S1138850ED06FCC004ED04FCC002ED02FCC000ED1A
S11388600030EE043C30EC02BD816130EC08EE02D5
S1138870ED08FCC7A830EE02ED0A30E60BEE02E785
S11388800C313130EC04261DE6093734FCC7A8BD91
S113889084C6313130EE06271830EE063C30EC0247
S11388A0BD8161313130EC00BD899930EC00BD8966
S11388B0493839308FC3FFF18F358F183018E612DD
S11388C0373418CE0000183C3CCE00068F9F00D3EE
S11388D000C30001BD8848183018E618BD8466300E
S11388E08FC300158F3539BD899939393C3C3430F3
S11388F06F00070FED032033FCC7B530ED018FEC9B
S11389000DFDC7B51AEE0AE60C3734188FBD84C6C0
S1138910313130EE01EC08270F8F3C30EC03BD8180
S11389206130EC038D233131306C00FCC7B5270E68
S1138930CEC0003CBD818431315D2BBC27BA30EC04
S113894003064FE600383831393C3C3C3C30ED00FE
S1138950070FED02CCC7B5ED04FCC7B5ED0630EE4C
S113896006271130EE003C30EC08BD818431315DC6
S11389702B19271730EC06EE00ED0D30EC00EE0459
S1138980ED0030EC0206383838383930EC06C300D4
S11389900DED048FEC003020C3188F070F18BCC7EF
S11389A0B52612FEC7B5DD04EC0DFDC7B5DC041811
S11389B0BCC7B527EEFEC7B58C000027161AAC0D50
S11389C0260DDD0418EC0DED0DDD02DC0420E9EECE
S11389D00D20E506393C3C188F30EC0618ED0018E4
S11389E0ED02EC0818ED04CE0000CDEF06CDEF0843
S11389F018DF00DC00C3000C18ED0ADF02DC0205FE
S1138A000530D302ED0018DF00D3008F6F0D6F0C1B
S1138A1030EC0018DF00D3008F6F0E30EC0018DF4D
S1138A2000D300ED0218DF00DC00E300C30011EE08
S1138A3002ED0FDE02083C3233DF021A8300092FF5
S1138A40BC186F3D186F3C3838393C3C3C30ED0065
S1138A50070FED041AEE0018EE0A1AEF02188F8FB2
S1138A608C00002606CC000FBD8225183018EE00BD
S1138A70CDEE0AEC0318ED0A183018EC0406FCC716
S1138A80A8CDEE02ED0018E609E702070F18ED0481
S1138A90CDEE00EE022B2A2728CDEE00EC02C3FF18
S1138AA0FFED0218E6093734FCC7A8BD84C61830A8
S1138AB018EC02C30006CDEE043CBD8B743838209C
S1138AC03730EE00EE042720183018EE00CDEE0605
S1138AD0EE0018FEC7A8E60818E108240B18E608FB
S1138AE037348FBD84D13131183018EC00C30008FD
S1138AF0CDEE023C8D7E3131183018EC0406383846
S1138B003839188F30E6033734188FBD8A4A30E677
S1138B1005BD84663131393C3C3C30ED00070FED36
S1138B20021AEE00CDEE042706FCC7A8BD84EA3085
S1138B30EE00EC0830ED04260E1AEE0018EC02C329
S1138B40000118ED02201C30EE04EC0330EE00EDC1
S1138B5008183018EE0418E602373418EC00BD8407
S1138B60C63131183018EC0206CDEE0427013F3827
S1138B70383839393C3C3430ED011AEE07CDEE007B
S1138B80E60718DF02183018E70018EE0118EC00A9
S1138B9030ED0130EE01271030EE01EC0030ED0332
S1138BA08FE60730E100241C30EE0118DF0418DEE4
S1138BB002CDEF0318DE04DD04DC0218ED00DC0452
S1138BC038383139301AEE0118081808180818EC2A
S1138BD00020BECE7FFFF6C7B7E70039308FC3FF52
S1138BE0EE8F3530E70F6F116F10C620373418CE73
S1138BF00064183C30EE143C18CE0006188F9F0019
S1138C00D300C30001BD88483838382020C620BDB1
S1138C1084925D2718C620BD8489301AEE10180886
S1138C201AEF10E60FF8C7B7F7C7B78DA6183018B4
S1138C30EC10CDA31425D68F308FBD88E7C620BD98
S1138C408489308FC300128F35393430E700C61061
S1138C503734CCC009BD8B02183018EE05183C30EF
S1138C60E604BD8BDCCCC009BD8B17C610BD84895E
S1138C70383831393C306F016F00C6803734F6C064
S1138C8048BD8499C680BD8466C680BD8489C6807B
S1138C903734F6C047BD8499C680BD8466C680BD9E
S1138CA08489C6803734F6C008BD8499C680BD84E3
S1138CB066C680BD8489C6803734F6C049BD8499B0
S1138CC0C680BD8466C680BD84893838383830EEA5
S1138CD0003C18CE0001183CCCC009BD89D5C64063
S1138CE03734F6C048BD8499C6403734F6C047BD12
S1138CF08499C6403734F6C008BD8499C6403734D9
S1138D00F6C049BD8499C6013734CC3A98BD88B3BE
S1138D10C601BD84894F5F308FC3000E8F3530EE9E
S1138D20002603CC0001183018ED0020A1C680BD38
S1138D308466C6803734F6C059BD84993131C64043
S1138D40BD8466C640BD8489C6013734CC0BB8BD2A
S1138D5088B3C601BD848918CE000A183CC601BD7B
S1138D608C4A1838183820D6C680BD8466C6803729
S1138D7034F6C059BD84993131C640BD8466C640BD
S1138D80BD8489C6013734CC0FA0BD88B3C601BDEC
S1138D90848918CE0032183CC602BD8BDC18381802
S1138DA03820D6C680BD8466C6803734F6C059BD27
S1138DB084993131C640BD8466C640BD8489C601EC
S1138DC03734CC03E8BD88B3C601BD848918CE000E
S1138DD032183CC604BD8C4A1838183820D6C680D0
S1138DE0BD8466C602373418CE00C8183CCE0000D5
S1138DF03CCCC04ABD8848C6803734F6C059BD84CF
S1138E009938383838C602BD8466C602BD8489F6EE
S1138E10C7B7C808F7C7B7BD8BD320E9BD8BD3BD8F
S1138E208296C663373418CE0100183CCEC6A83CDF
S1138E30CC8C74BD8327F7C059C60E373418CE01C5
S1138E4000183CCEC5A83CCC8D2DBD8327F7C04867
S1138E50C60D373418CE0100183CCEC4A83CCC8DC6
S1138E6068BD8327F7C047C60C373418CE010018F5
S1138E703CCEC3A83CCC8DA3BD8327F7C008C60B4A
S1138E80373418CE0100183CCEC2A83CCC8DDEBDD0
S1138E908327F7C049BD8426CC0010BD82254F5FCF
S10B8EA0308FC3001E8F353929
S1138EA8000000000000000000000000000000F0C6
S113BFD680758075807580758075807580758075AF
S113BFE6807580758075807580758075807580759F
S10DBFF680758075807580758000E9
S113C7B8000000000000000000000000000000006D
S113C7C8000000000000000000000000000000005D
S113C7D8000000000000000000000000000000004D
S105C7E800004B
S113FFD6807580758075807580758075807580756F
S113FFE6807580758075807580758075807580755F
S10DFFF68075807C8075807580752D
S90380007C
