:1000000035C078C440C044C0B0C147C04BC04FC029
:0A00100053C057C05BC05FC063C05F
:1000360011241FBECFE5D2E0DEBFCDBF10E0A0E6A3
:10004600B0E0E2EFF9E003C0C89531960D92A03614
:10005600B107D1F712E0A0E6B0E001C01D92A833C7
:10006600B107E1F78EC0F8941DB81AB811BC8FEF2E
:1000760087BB88BB11BADCCF8FEF18BA88BBFDCF20
:100086009EEF8FEF98BB88BBFDCF9DEF8FEF98BBA0
:1000960088BBFDCF9CEF8FEF98BB88BBFDCF9BEF56
:1000A6008FEF98BB88BBFDCF9AEF8FEF98BB88BBCD
:1000B600FDCF99EF8FEF98BB88BBFDCF98EF8FEF01
:1000C60098BB88BBFDCF97EF8FEF98BB88BBFDCF62
:1000D60096EF8FEF98BB88BBFDCF95EF8FEF98BB60
:1000E60088BBFDCF282F392F80E48FBD89E08EBDD8
:1000F600932F822F60EA7FE067D49BBD8ABD89B7C4
:10010600806489BF08958FE00FD380FDC09881FD7C
:10011600C09A82FDC19883FFF6CFC19AF4CF61E001
:100126008091360249D320E140E050E068EE73E06A
:1001360080E591E0B0D080E1F7D262E080913602AE
:100146003BD320E140E050E068EE73E080E591E0CB
:10015600A2D080E1E9D2E3CF20E14AEF50E06DE79B
:1001660070E08CE591E097D080E1DED264E080918A
:10017600360222D380E1D8D268E0809136021CD3C1
:10018600F3CFCFE5D2E0DEBFCDBFCBD124E140E552
:1001960050E060E670E086E890E005D28093360293
:1001A6002FE040E550E060EB70E082E990E0FBD1A3
:1001B600809337022AE040E550E060E071E08FEA84
:1001C60090E0F1D18093350238D280E090E022CFE2
:1001D600F92FE82F1082118212821382148215825F
:1001E6000895F92FE82F80819181262F372F280F28
:1001F600391F208331832817390718F02617370748
:1002060060F482819381019682839383892B29F4FA
:100216008481958101968483958308950895CF936B
:10022600DF93D92FC82F43E050E041505040952F1F
:10023600842F840F951FF92FE82FEC0FFD1FB92F80
:10024600A82FA60FB71F208131818D919C91281769
:10025600390718F48FEF9FEF1BC0952F842F840F5B
:10026600951FF92FE82FEC0FFD1FB92FA82FA60F0A
:10027600B71F208131818D919C918217930718F4C5
:1002860081E090E005C0141615067CF280E090E04F
:10029600DF91CF910895DF92EF92FF920F931F9314
:1002A600CF93DF93D92FC82F062F172FE42EF52EC5
:1002B600D22E86E0FD2FEC2FAAE6B1E00D9001923A
:1002C6008A95E1F78C2F9D2F8CDFEE82FF828CD2F0
:1002D6008887D986012B59F487D26D2D7BD2E114FC
:1002E600F10459F07F2D6E2D8C2F9D2F7ADF8C2FE8
:1002F6009D2FDCD08C2F9D2F96D0DF91CF911F9113
:100306000F91FF90EF90DF9008951F93CF93DF93A7
:10031600CDB7DEB72C970FB6F894DEBF0FBECDBFB4
:10032600162F262F40E050E0682F792F8C2F9D2F17
:100336000196B1DF812FF8D12C960FB6F894DEBF67
:100346000FBECDBFDF91CF911F910895AFD0089515
:1003560008958AE691E03CDF65EB71E081E090E08C
:10036600C1DE089578941F920F920FB60F92112452
:100376000F931F932F933F934F935F936F937F93A7
:100386008F939F93AF93BF93CF93DF93EF93FF9397
:10039600C79800E061E070E08AE691E022DF24D2AF
:1003A6007BD1182F1DC0C0916801D09169018A8543
:1003B6009B859093690180936801698588850AD237
:1003C6006E817F816115710531F08C2F9D2F09DFBC
:1003D6008C2F9D2F28D088855FD1181708F40F5FC2
:1003E6008091680190916901009729F06AE671E0B1
:1003F60016DF1816C4F6C79A0111FDD1FF91EF91C9
:10040600DF91CF91BF91AF919F918F917F916F9126
:100416005F914F913F912F911F910F910F900FBEBA
:100426000F901F901895CF92DF92EF92FF920F9345
:100436001F93CF93DF93082F192F8FB7E82EFF2432
:1004460080E8E822FF24F8940F2EF8E6CF2EF1E09C
:10045600DF2EF02DC0916801D0916901209791F0AF
:10046600712F602F8C2F9D2FDADE18165CF00F2E61
:10047600FAE0CF2EDD24F02DCC0EDD1E0A84DB85BE
:10048600C02DECCFF12FE02FC287D387FD2DEC2DA9
:1004960000831183EF2809F07894DF91CF911F91A3
:1004A6000F91FF90EF90DF90CF900895CF93DF9359
:1004B600B92FA82F8FB7282F332720783070F894BC
:1004C6008091680190916901F92FE82F8A179B079F
:1004D60059F4828593859093690180936801F92F79
:1004E600E82F8A179B07A9F3E0916801F09169014B
:1004F600309789F0828593858A179B0739F41A9677
:100506008D919C911B978287938703C00284F38504
:10051600E02D309779F7232B09F07894DF91CF916E
:100526000895CF93DF93809176018823C9F5282F0C
:10053600C7E7D1E0ADE0B0E0822F99276A2F7B2F85
:1005460043D2F92FE82FEC0FFD1F20838C579E4FC7
:10055600838794872F5F293078F38FED91E090930E
:10056600750180937401885690409093EB018093B7
:10057600EA011092DE011092DD01EADE81E080934D
:10058600760120E040E450E06CEE71E08CED94E002
:100596000AD080932E0210D290932D0280932C02C3
:1005A600DF91CF9108951F93CF93DF93B92FA82F93
:1005B600122F8FB7282F332720783070F894C091E8
:1005C6007401D09175018B859C85909375018093FC
:1005D6007401232B09F07894972F862F840F951F8B
:1005E600F92FE82F3197EB83FC836D837E83188781
:1005F6001F8319861A86A0833197B08312921292AE
:1006060012921292129212921292129212921292C4
:1006160012921292129212921292129212921292B4
:100626003197E983FA83612F8C2F9D2FE7D088813C
:100636009927DF91CF911F910895F8948BB78F7BFF
:100646008BBF85B7836085BF92988A9A8BB7806483
:100656008BBF7FDEE0917201F0917301F09371011F
:10066600E0937001818192819EBF8DBFFF91EF91D2
:10067600DF91BF91AF919F918F917F916F915F9124
:100686004F913F912F911F910F910F900FBE0F9099
:100696001F907894189508958FD1F92FE82F8085AB
:1006A600992708951F93CF93DF93162F85D1D92FBE
:1006B600C82F8885811749F08C2F9D2FC5D01F83A1
:1006C6001887612F8C2F9D2F99D0DF91CF911F9185
:1006D60008951F93CF93DF93162F6ED1D92FC82F6E
:1006E6008885811741F08C2F9D2FAED01887612FFA
:1006F6008C2F9D2F83D0DF91CF911F910895CF939B
:10070600DF935AD1D92FC82F98858F81981749F032
:100716008C2F9D2F99D08F818887682F8C2F9D2FA6
:100726006DD0DF91CF910895CF93C82FE0917001DE
:10073600F09171018187E0917001F09171018285DC
:100746008C2309F458D0E0917001F0917101118663
:100756008FB7282F332720783070F894E0917001F6
:10076600F091710192854C2F4923842F809589231E
:100776008287232B09F07894842F9927CF910895A7
:10078600982FE0917001F09171018285892B828703
:100796000895E0917001F0917101982F90958285EE
:1007A600892382870895982FE0917001F091710155
:1007B60082858923992708951F93162FFDD0F92F37
:1007C600E82F8285812B82878185812309F013D0CA
:1007D6001F9108951F93162FEFD0F92FE82F8285CA
:1007E600812B82871F910895E0917001F09171012C
:1007F6008081992708959298929A0895CF93DF93CE
:10080600D92FC82F8FB7282F332720783070F89428
:10081600A2E7B1E0E0917201F0917301309751F0D7
:100826008085861738F0AE2FBF2F1B960384F4857C
:10083600E02DF4CFEB87FC87CD93DC93232B09F0D7
:100846007894DF91CF910895CF93DF93B92FA82F96
:100856008FB7282F332720783070F8948091720153
:1008660090917301F92FE82F8A179B0759F4838516
:1008760094859093730180937201F92FE82F8A175C
:100886009B07A9F3E0917201F0917301309789F00B
:10089600838594858A179B0739F41B968D919C91C5
:1008A6001C978387948703C00384F485E02D3097D3
:1008B60079F7232B09F07894DF91CF910895E09191
:1008C6007201F0917301309779F08185882321F0C8
:1008D60081859285892319F08E2F9F2F0895038491
:1008E600F485E02D309789F780E090E008957894BC
:1008F6001F920F920FB60F9211240F931F932F93EF
:100906003F934F935F936F937F938F939F93AF9391
:10091600BF93DF93EF93FF9392988BB780648BBF5F
:10092600C69A2091700130917101932F822F019602
:1009360090933402809333023093300220932F0237
:10094600BEDFF92FE82F909371018093700180919B
:100956002F0290913002E817F907B1F0C598C59AB1
:10096600818192819093320280933102E091330229
:10097600F09134028DB79EB78083918380913102C6
:10098600909132029EBF8DBFC698FF91EF91DF9185
:10099600BF91AF919F918F917F916F915F914F9191
:1009A6003F912F911F910F910F900FBE0F901F90A7
:1009B6001895C498C49AFDCF99276DE070E004D0CD
:1009C60089589E4F089527CB5527002480FF02C0E3
:1009D600060E571F660F771F6115710521F0969554
:0C09E6008795009799F7952F802D0895B4
:0400000300000036C3
:00000001FF
