:10000000B2C5EEC426C029C0C5C12BC02EC031C0A8
:0A00100034C037C03AC03DC040C004
:10001C0011241FBECFE5D2E0DEBFCDBF10E0A0E6BD
:10002C00B0E0ECE8FCE003C0C89531960D92A03628
:10003C00B107D1F712E0A0E6B0E001C01D92A035E7
:10004C00B107E1F79CC081E190E0C9D5089582E148
:10005C0090E0C5D5089584E190E0C1D5089585E17F
:10006C0090E0BDD5089586E190E0B9D5089587E17B
:10007C0090E0B5D5089588E190E0B1D5089589E177
:10008C0090E0ADD508958AE190E0A9D508958BE173
:10009C0090E0A5D508958CE190E0A1D58FEF90E08C
:1000AC0084D380FDC09881FDC09A82FDC19883FDE8
:1000BC00C19A84FDC29885FFF1CFC29AEFCF61E05F
:1000CC0070E080914E02D3D320E830E040E050E065
:1000DC0062E370E080E690E0E6D080E890E065D3E3
:1000EC0062E070E080914E02C2D320E830E040E044
:1000FC0050E062EC71E080E690E0D5D080E890E0D2
:10010C0054D3DDCF20E830E044E650E0752F642F67
:10011C008DE690E0C8D064E070E080914E02A7D3E9
:10012C0080E890E042D368E070E080914E029FD36B
:10013C0080E890E03AD3EFCF60E170E080914E021E
:10014C0096D320E830E040E050E064EF71E08AE7BD
:10015C0090E0A9D080E890E028D360E270E0809134
:10016C004E0285D320E830E040E050E06AEF70E0CA
:10017C008AE790E098D080E890E017D3DDCFCFE508
:10018C00D2E0DEBFCDBFE0D129E141E450E067E829
:10019C0070E084E590E01BD280934E0224E141E4B0
:1001AC0050E068EC70E085E690E011D280934C0250
:1001BC002FE041E450E069E071E088E890E007D27C
:1001CC0080934F022AE041E450E06AE471E082EA55
:1001DC0090E0FDD180934D0257D280E090E017CF94
:1001EC00F92FE82F10821182128213821482158249
:1001FC000895F92FE82F80819181262F372F280F12
:10020C00391F208331832817390718F02617370731
:10021C0060F482819381019682839383892B29F4E4
:10022C008481958101968483958308950895CF9355
:10023C00DF93D92FC82F43E050E041505040952F09
:10024C00842F840F951FF92FE82FEC0FFD1FB92F6A
:10025C00A82FA60FB71F208131818D919C91281753
:10026C00390718F48FEF9FEF1BC0952F842F840F45
:10027C00951FF92FE82FEC0FFD1FB92FA82FA60FF4
:10028C00B71F208131818D919C918217930718F4AF
:10029C0081E090E005C0141615067CF280E090E039
:1002AC00DF91CF910895CF92DF92EF92FF920F934F
:1002BC001F93CF93DF93D92FC82F062F172FE42E20
:1002CC00F52EC22ED32E86E0FD2FEC2FADE8B1E03B
:1002DC000D9001928A95E1F78C2F9D2F8ADFEE828B
:1002EC00FF82ECD28887C986DA86012B61F4E6D2CC
:1002FC007D2D6C2DD3D2E114F10459F07F2D6E2D90
:10030C008C2F9D2F76DF8C2F9D2FE3D08C2F9D2F44
:10031C009DD0DF91CF911F910F91FF90EF90DF90C7
:10032C00CF9008950F931F93CF93DF93CDB7DEB784
:10033C002D970FB6F894DEBF0FBECDBF062F172F2B
:10034C00262F372F40E050E0682F792F8C2F9D2FD0
:10035C000196A9DF912F802F28D22D960FB6F894F5
:10036C00DEBF0FBECDBFDF91CF911F910F910895CE
:10037C00B0D0089508958DE891E032DF6AEC71E019
:10038C0082E090E058D4089578941F920F920FB6A3
:10039C000F9211240F931F932F933F934F935F93BF
:1003AC006F937F938F939F93AF93BF93CF93DF9371
:1003BC00EF93FF93C69800E062E070E08DE891E067
:1003CC0018DF7CD2AAD1182F1EC0C0918B01D091FE
:1003DC008C018B859C8590938C0180938B01698516
:1003EC007A8588855BD26E817F816115710531F0CC
:1003FC008C2F9D2FFEDE8C2F9D2F28D088858DD1A4
:10040C00181708F40F5F80918B0190918C01009765
:10041C0029F06DE871E00BDF1816BCF6C69A0111D5
:10042C0054D2FF91EF91DF91CF91BF91AF919F91FA
:10043C008F917F916F915F914F913F912F911F9170
:10044C000F910F900FBE0F901F901895CF92DF92C7
:10045C00EF92FF920F931F93CF93DF93082F192FD7
:10046C008FB7E82EFF2480E8E822FF24F8940F2EA3
:10047C00FBE8CF2EF1E0DF2EF02DC0918B01D09157
:10048C008C01209791F0712F602F8C2F9D2FCFDE38
:10049C0018165CF00F2EFBE0CF2EDD24F02DCC0EC9
:1004AC00DD1E0B84DC85C02DECCFF12FE02FC38734
:1004BC00D487FD2DEC2D00831183EF2809F078945F
:1004CC00DF91CF911F910F91FF90EF90DF90CF9024
:1004DC000895CF93DF93B92FA82F8FB7282F3327E9
:1004EC0020783070F89480918B0190918C01F92FC9
:1004FC00E82F8A179B0759F48385948590938C0178
:10050C0080938B01F92FE82F8A179B07A9F3E091B1
:10051C008B01F0918C01309789F0838594858A1733
:10052C009B0739F41B968D919C911C97838794871C
:10053C0003C00384F485E02D309779F7232B09F061
:10054C007894DF91CF910895209199012223F1F5B0
:10055C00422F6AE971E0242F3327932F822F829543
:10056C009295907F9827807F9827821B930BF92F69
:10057C00E82FE60FF71F408387559E4F8587968798
:10058C004F5F473040F384EF91E090939801809354
:10059C0097018A5590409093020280930102109229
:1005AC00F3011092F201E6DE81E08093990120E0E4
:1005BC0040E450E063E072E085E995E008D0809378
:1005CC004502B2D290934402809343020895AF92B5
:1005DC00BF92CF92DF92FF920F931F93CF93DF9333
:1005EC00A82EB92E062F172FC42ED52EF22E8091A1
:1005FC009901882319F485E090E0F1D2809197015C
:10060C0090919801892B19F489E090E0E8D28FB78A
:10061C00282F332720783070F894C0919701D0910F
:10062C0098018D859E859093980180939701232B3B
:10063C0009F07894912F802F8C0D9D1DF92FE82FA8
:10064C003197EB83FC830D831E83F886FF8219861A
:10065C001A861B861C86A0823197B0821292129247
:10066C0012927F97E983FA836F2D8C2F9D2F31D1B6
:10067C0088819927DF91CF911F910F91FF90DF9087
:10068C00CF90BF90AF900895F8948BB78F7B8BBFB2
:10069C0085B7836085BF92988A9A8BB780648BBF2D
:1006AC006ADE8091950190919601909394018093CC
:1006BC009301892B19F48AE090E091D2E091930197
:1006CC00F0919401818192819EBF8DBFFF91EF913A
:1006DC00DF91CF91BF91AF919F918F917F916F914E
:1006EC005F914F913F912F911F910F91FF90EF9040
:1006FC00DF90CF90BF90AF909F908F907F906F9036
:10070C005F904F903F902F900F900FBE0F901F90C7
:10071C00189581E090E063D2089506D2F92FE82F66
:10072C008085992708951F93CF93DF93162FFCD1C3
:10073C00D92FC82F8885811749F08C2F9D2FEFD08A
:10074C001F831887612F8C2F9D2FC3D0DF91CF91E2
:10075C001F9108951F93CF93DF93162FE5D1D92FB7
:10076C00C82F8885811741F08C2F9D2FD8D01887E2
:10077C00612F8C2F9D2FADD0DF91CF911F910895BC
:10078C00CF93DF93D1D1D92FC82F98858F8198170C
:10079C0049F08C2F9D2FC3D08F818887682F8C2F89
:1007AC009D2F97D0DF91CF910895CF93DF93D92FC1
:1007BC00C82FE0919301F091940181879287E09189
:1007CC009301F0919401838594858C239D23892B2F
:1007DC0009F47BD0E0919301F0919401118612867B
:1007EC008FB7482F552740785070F894E0919301BB
:1007FC00F0919401238534856C2F7D2F6223732314
:10080C00972F862F809590958223932383879487A7
:10081C00452B09F07894972F862FDF91CF9108956F
:10082C00282F392FE0919301F091940183859485C1
:10083C00822B932B838794870895E0919301F091F9
:10084C009401282F392F2095309583859485822308
:10085C009323838794870895282F392FE091930150
:10086C00F0919401838594858223932308950F93AB
:10087C001F93062F172F58D1F92FE82F83859485B6
:10088C00802B912B8387948781859285802391235C
:10089C00892B09F01AD01F910F9108950F931F9374
:1008AC00062F172F41D1F92FE82F83859485802BA4
:1008BC00912B838794871F910F910895E091930159
:1008CC00F09194018081992708959298929A789446
:1008DC000895CF93DF93D92FC82F8FB7282F3327A5
:1008EC0020783070F894A5E9B1E0E0919501F09191
:1008FC009601309751F08085861738F0AE2FBF2FB8
:10090C001D960584F685E02DF4CFED87FE87CD93FB
:10091C00DC93232B09F07894DF91CF910895CF933A
:10092C00DF93B92FA82F8FB7282F3327207830705B
:10093C00F8948091950190919601F92FE82F8A17E0
:10094C009B0759F485859685909396018093950124
:10095C00F92FE82F8A179B07A9F3E0919501F091E5
:10096C009601309789F0858596858A179B0739F40F
:10097C001D968D919C911E978587968703C0058443
:10098C00F685E02D309779F7232B09F07894DF91D9
:10099C00CF910895E0919501F09196013097A1F0D7
:1009AC0081859285892B41F08185928523853485BB
:1009BC0082239323892B19F08E2F9F2F0895058462
:1009CC00F685E02D309761F78BE090E008D180E060
:1009DC0090E008951F920F920FB60F9211242F9250
:1009EC003F924F925F926F927F928F929F92AF92B3
:1009FC00BF92CF92DF92EF92FF920F931F932F93A0
:100A0C003F934F935F936F937F938F939F93AF938A
:100A1C00BF93CF93DF93EF93FF9392988BB7806440
:100A2C008BBFC598E0919301F091940121813281A3
:100A3C00838194818217930728F0858196812817EA
:100A4C00390718F484E090E0CAD08091930190911A
:100A5C009401282F392F2F5F3F4F30934B02209357
:100A6C004A02909347028093460294DFF92FE82FB5
:100A7C009093940180939301809146029091470248
:100A8C00E817F90739F1218132818381948182172A
:100A9C00930728F0858196812817390718F484E08C
:100AAC0090E09DD0E0919301F0919401818192812D
:100ABC009093490280934802E0914A02F0914B02D4
:100ACC008DB79EB7808391838091480290914902A3
:100ADC009EBF8DBFC59AC79AFF91EF91DF91CF91C1
:100AEC00BF91AF919F918F917F916F915F914F913A
:100AFC003F912F911F910F91FF90EF90DF90CF902E
:100B0C00BF90AF909F908F907F906F905F904F9021
:100B1C003F902F900F900FBE0F901F9018959FE74E
:100B2C0088B3892388BBFCCFCF93C82F873018F0AC
:100B3C0082E090E054D08C2F9927282F392F2295C2
:100B4C003295307F3227207F3227281B390B932F89
:100B5C00822F86569E4FCF910895F8941DB81AB8DF
:100B6C0011BC8FEF87BB88BB11BA52CACF93DF93EE
:100B7C00CDB7DEB722970FB6F894DEBF0FBECDBF50
:100B8C00809588BB19821A8289819A8180549F41F1
:100B9C0050F489819A81019689839A8389819A81FB
:100BAC0080549F41B0F38FEF88BB19821A828981E0
:100BBC009A8180549F4150F489819A81019689834E
:100BCC009A8389819A8180549F41B0F322960FB603
:100BDC00F894DEBF0FBECDBFDF91CF910895CF93B8
:100BEC00DF93D92FC82FF8948C2FC0DFFDCF089539
:100BFC00EF92FF920F931F93CF93E82EF92EF89458
:100C0C00C0E080E0B3DFCF5FC639D8F3C0E00F2D72
:100C1C001127802FABDFCF5FC436D8F3C0E080E064
:100C2C00A5DFCF5FC931D8F3C0E08E2D9FDFCF5F3A
:100C3C00C436D8F3E5CF282F392F80E48FBD89E057
:100C4C008EBD932F822F60EA7FE008D09BBD8ABDBA
:100C5C0089B7806489BF8D9A08951DCA55270024D1
:100C6C0080FF02C0060E571F660F771F61157105B6
:100C7C0021F096958795009799F7952F802D0895DB
:040000030000001CDD
:00000001FF
