:100000002DC599C438C53CC59EC13FC543C547C52C
:0A0010004BC54FC553C557C55BC56E
:1000360011241FBECFE5D2E0DEBFCDBF10E0A0E6A3
:10004600B0E0E2E2FBE003C0C89531960D92A0361F
:10005600B107D1F712E0A0E6B0E001C01D92AC33C3
:10006600B107E1F768C08FEF90E051D380FDC098EB
:1000760081FDC09A82FDC19883FDC19A84FDC29814
:1000860085FFF1CFC29AEFCF20E830E044E650E09A
:10009600752F642F80E591E0E2D061E070E08091F9
:1000A6003A0297D380E890E032D362E070E0809124
:1000B6003A028FD380E890E02AD3EFCF64E070E075
:1000C60080913A0286D320E830E040E050E064EFC9
:1000D60071E08DE591E0C3D080E890E018D368E048
:1000E60070E080913A0275D320E830E040E050E0BD
:1000F60061EE70E08DE591E0B2D080E890E007D344
:10010600DDCF20E830E04AEF50E06DE770E08AE6A8
:1001160091E0A5D080E890E0FAD260E170E08091AD
:100126003A0257D380E890E0F2D260E270E0809124
:100136003A024FD3EFCFCFE5D2E0DEBFCDBFE0D15D
:1001460029E14CE350E060E670E086E390E01BD2E4
:1001560080933A0224E14CE350E06CE970E087E4D6
:1001660090E011D2809338022FE04CE350E068ED26
:1001760070E081E690E007D280933B022AE04CE3F0
:1001860050E064E171E084E890E0FDD180933902AB
:1001960039D280E090E03ECFF92FE82F108211820D
:1001A60012821382148215820895F92FE82F808116
:1001B6009181262F372F280F391F20833183281747
:1001C600390718F02617370760F482819381019664
:1001D60082839383892B29F4848195810196848374
:1001E600958308950895CF93DF93D92FC82F43E0C1
:1001F60050E041505040952F842F840F951FF92FC2
:10020600E82FEC0FFD1FB92FA82FA60FB71F2081CF
:1002160031818D919C912817390718F48FEF9FEF44
:100226001BC0952F842F840F951FF92FE82FEC0FF5
:10023600FD1FB92FA82FA60FB71F208131818D91E1
:100246009C918217930718F481E090E005C014167C
:1002560015067CF280E090E0DF91CF910895CF9271
:10026600DF92EF92FF920F931F93CF93DF93D92FD5
:10027600C82F062F172FE42EF52EC22ED32E86E07A
:10028600FD2FEC2FA9E7B1E00D9001928A95E1F7D9
:100296008C2F9D2F8ADFEE82FF82C2D28887C98685
:1002A600DA86012B61F4BCD27D2D6C2DA9D2E11426
:1002B600F10459F07F2D6E2D8C2F9D2F76DF8C2F1C
:1002C6009D2FE3D08C2F9D2F9DD0DF91CF911F9135
:1002D6000F91FF90EF90DF90CF9008950F931F93AB
:1002E600CF93DF93CDB7DEB72D970FB6F894DEBF69
:1002F6000FBECDBF062F172F262F372F40E050E019
:10030600682F792F8C2F9D2F0196A9DF912F802F93
:10031600FED12D960FB6F894DEBF0FBECDBFDF918E
:10032600CF911F910F910895B0D00895089589E750
:1003360091E032DF63EA71E081E090E0CBD308958B
:1003460078941F920F920FB60F9211240F931F935A
:100356002F933F934F935F936F937F938F939F93C7
:10036600AF93BF93CF93DF93EF93FF93C59800E0CE
:1003760061E070E089E791E018DF52D280D1182F52
:100386001EC0C0917701D09178018B859C85909392
:1003960078018093770169857A85888531D26E8167
:1003A6007F816115710531F08C2F9D2FFEDE8C2F1C
:1003B6009D2F28D0888563D1181708F40F5F809188
:1003C600770190917801009729F069E771E00BDFDA
:1003D6001816BCF6C59A01112AD2FF91EF91DF914A
:1003E600CF91BF91AF919F918F917F916F915F91C7
:1003F6004F913F912F911F910F910F900FBE0F902C
:100406001F901895CF92DF92EF92FF920F931F9352
:10041600CF93DF93082F192F8FB7E82EFF2480E89C
:10042600E822FF24F8940F2EF7E7CF2EF1E0DF2E17
:10043600F02DC0917701D0917801209791F0712F1E
:10044600602F8C2F9D2FCFDE18165CF00F2EFBE051
:10045600CF2EDD24F02DCC0EDD1E0B84DC85C02DC9
:10046600ECCFF12FE02FC387D487FD2DEC2D008331
:100476001183EF2809F07894DF91CF911F910F91A6
:10048600FF90EF90DF90CF900895CF93DF93B92F31
:10049600A82F8FB7282F332720783070F8948091B3
:1004A600770190917801F92FE82F8A179B0759F465
:1004B600838594859093780180937701F92FE82FAF
:1004C6008A179B07A9F3E0917701F091780130979D
:1004D60089F0838594858A179B0739F41B968D913D
:1004E6009C911C978387948703C00384F485E02D31
:1004F600309779F7232B09F07894DF91CF910895FF
:10050600209185012223F1F5422F66E871E0242F20
:100516003327932F822F82959295907F9827807FFD
:100526009827821B930BF92FE82FE60FF71F4083BE
:100536008B569E4F858796874F5F473040F380EEF8
:1005460091E090938401809383018A559040909323
:10055600EE018093ED011092DF011092DE01E6DEDE
:1005660081E08093850120E040E450E06FEE71E089
:100576008CE195E008D0809331025ED290933002F0
:1005860080932F0208950F931F93CF93DF93082F25
:10059600192FA22F8FB7282F332720783070F89481
:1005A600C0918301D09184018D859E8590938401AD
:1005B60080938301232B09F07894972F862F840F3D
:1005C600951FF92FE82F3197EB83FC836D837E838C
:1005D600A887AF8319861A861B861C8600833197E7
:1005E60010831292129212927F97E983FA836A2FEE
:1005F6008C2F9D2F1FD188819927DF91CF911F9135
:100606000F910895F8948BB78F7B8BBF85B7836066
:1006160085BF92988A9A8BB780648BBF88DEE091FB
:100626008101F0918201F0938001E0937F01818145
:1006360092819EBF8DBFFF91EF91DF91CF91BF91C8
:10064600AF919F918F917F916F915F914F913F9164
:100656002F911F910F91FF90EF90DF90CF90BF9059
:10066600AF909F908F907F906F905F904F903F904C
:100676002F900F900FBE0F901F9018950895DCD104
:10068600F92FE82F8085992708951F93CF93DF933D
:10069600162FD2D1D92FC82F8885811749F08C2FD4
:1006A6009D2FEED01F831887612F8C2F9D2FC2D0D0
:1006B600DF91CF911F9108951F93CF93DF93162F4C
:1006C600BBD1D92FC82F8885811741F08C2F9D2F3C
:1006D600D7D01887612F8C2F9D2FACD0DF91CF916B
:1006E6001F910895CF93DF93A7D1D92FC82F98854F
:1006F6008F81981749F08C2F9D2FC2D08F818887C4
:10070600682F8C2F9D2F96D0DF91CF910895CF9390
:10071600DF93D92FC82FE0917F01F0918001818767
:100726009287E0917F01F0918001838594858C23E7
:100736009D23892B09F47BD0E0917F01F091800104
:10074600118612868FB7482F552740785070F89437
:10075600E0917F01F0918001238534856C2F7D2FF8
:1007660062237323972F862F809590958223932358
:1007760083879487452B09F07894972F862FDF91EE
:10078600CF910895282F392FE0917F01F0918001B4
:1007960083859485822B932B838794870895E09194
:1007A6007F01F0918001282F392F20953095838580
:1007B600948582239323838794870895282F392F3E
:1007C600E0917F01F09180018385948582239323B4
:1007D60008950F931F93062F172F2ED1F92FE82F69
:1007E60083859485802B912B838794878185928539
:1007F60080239123892B09F01AD01F910F91089518
:100806000F931F93062F172F17D1F92FE82F8385E4
:100816009485802B912B838794871F910F91089540
:10082600E0917F01F0918001808199270895929847
:10083600929A0895CF93DF93D92FC82F8FB7282F79
:10084600332720783070F894A1E8B1E0E091810177
:10085600F0918201309751F08085861738F0AE2FDF
:10086600BF2F1D960584F685E02DF4CFED87FE8714
:10087600CD93DC93232B09F07894DF91CF910895E3
:10088600CF93DF93B92FA82F8FB7282F3327207840
:100896003070F8948091810190918201F92FE82FB0
:1008A6008A179B0759F485859685909382018093D4
:1008B6008101F92FE82F8A179B07A9F3E09181019F
:1008C600F0918201309789F0858596858A179B0776
:1008D60039F41D968D919C911E978587968703C046
:1008E6000584F685E02D309779F7232B09F0789467
:1008F600DF91CF910895E0918101F09182013097C7
:10090600A1F081859285892B41F081859285238589
:10091600348582239323892B19F08E2F9F2F0895D8
:100926000584F685E02D309761F780E090E0089524
:100936001F920F920FB60F9211242F923F924F9251
:100946005F926F927F928F929F92AF92BF92CF9259
:10095600DF92EF92FF920F931F932F933F934F9344
:100966005F936F937F938F939F93AF93BF93CF9331
:10097600DF93EF93FF9392988BB780648BBFC498F5
:1009860020917F0130918001932F822F01969093C1
:100996003702809336023093330220933202ABDF64
:1009A600F92FE82F9093800180937F018091320286
:1009B60090913302E817F907C1F098B380E88927C8
:1009C60088BB818192819093350280933402E091B5
:1009D6003602F09137028DB79EB78083918380915E
:1009E6003402909135029EBF8DBFC49AFF91EF915C
:1009F600DF91CF91BF91AF919F918F917F916F9131
:100A06005F914F913F912F911F910F91FF90EF9022
:100A1600DF90CF90BF90AF909F908F907F906F9018
:100A26005F904F903F902F900F900FBE0F901F90AA
:100A36001895C698C69AFDCF282F3327932F822F55
:100A460082959295907F9827807F9827821B930B9B
:100A56008A579E4F0895F8941DB81AB811BC8FEFA7
:100A660087BB88BB11BAE4CA8FEF18BA88BBFDCF23
:100A76009EEF8FEF98BB88BBFDCF9DEF8FEF98BBA6
:100A860088BBFDCF9CEF8FEF98BB88BBFDCF9BEF5C
:100A96008FEF98BB88BBFDCF9AEF8FEF98BB88BBD3
:100AA600FDCF99EF8FEF98BB88BBFDCF98EF8FEF07
:100AB60098BB88BBFDCF97EF8FEF98BB88BBFDCF68
:100AC60096EF8FEF98BB88BBFDCF95EF8FEF98BB66
:100AD60088BBFDCF282F392F80E48FBD89E08EBDDE
:100AE600932F822F60EA7FE007D09BBD8ABD89B72E
:100AF600806489BF08958FCA5527002480FF02C0ED
:100B0600060E571F660F771F6115710521F0969522
:0C0B16008795009799F7952F802D089582
:0400000300000036C3
:00000001FF
